{
	"Bones-of-Bitcoin/contracts/conditional/hard.sol": {
		"Insurance": {
			"abi": [
				{
					"inputs": [
						{
							"internalType": "uint256",
							"name": "delayHours",
							"type": "uint256"
						},
						{
							"internalType": "bool",
							"name": "isVIP",
							"type": "bool"
						},
						{
							"internalType": "uint256",
							"name": "dayAfterFlight",
							"type": "uint256"
						}
					],
					"name": "claim",
					"outputs": [
						{
							"internalType": "uint256",
							"name": "",
							"type": "uint256"
						},
						{
							"internalType": "string",
							"name": "",
							"type": "string"
						}
					],
					"stateMutability": "pure",
					"type": "function"
				}
			],
			"devdoc": {
				"kind": "dev",
				"methods": {},
				"version": 1
			},
			"evm": {
				"assembly": "    /* \"Bones-of-Bitcoin/contracts/conditional/hard.sol\":79:1076  contract Insurance{... */\n  mstore(0x40, 0x80)\n  callvalue\n  dup1\n  iszero\n  tag_1\n  jumpi\n  revert(0x00, 0x00)\ntag_1:\n  pop\n  dataSize(sub_0)\n  dup1\n  dataOffset(sub_0)\n  0x00\n  codecopy\n  0x00\n  return\nstop\n\nsub_0: assembly {\n        /* \"Bones-of-Bitcoin/contracts/conditional/hard.sol\":79:1076  contract Insurance{... */\n      mstore(0x40, 0x80)\n      callvalue\n      dup1\n      iszero\n      tag_1\n      jumpi\n      revert(0x00, 0x00)\n    tag_1:\n      pop\n      jumpi(tag_2, lt(calldatasize, 0x04))\n      shr(0xe0, calldataload(0x00))\n      dup1\n      0x2d91e458\n      eq\n      tag_3\n      jumpi\n    tag_2:\n      revert(0x00, 0x00)\n        /* \"Bones-of-Bitcoin/contracts/conditional/hard.sol\":104:1073  function claim(uint delayHours,bool isVIP,uint dayAfterFlight) pure public returns(uint,string memory){... */\n    tag_3:\n      tag_4\n      0x04\n      dup1\n      calldatasize\n      sub\n      dup2\n      add\n      swap1\n      tag_5\n      swap2\n      swap1\n      tag_6\n      jump\t// in\n    tag_5:\n      tag_7\n      jump\t// in\n    tag_4:\n      mload(0x40)\n      tag_8\n      swap3\n      swap2\n      swap1\n      tag_9\n      jump\t// in\n    tag_8:\n      mload(0x40)\n      dup1\n      swap2\n      sub\n      swap1\n      return\n    tag_7:\n        /* \"Bones-of-Bitcoin/contracts/conditional/hard.sol\":187:191  uint */\n      0x00\n        /* \"Bones-of-Bitcoin/contracts/conditional/hard.sol\":192:205  string memory */\n      0x60\n        /* \"Bones-of-Bitcoin/contracts/conditional/hard.sol\":235:236  3 */\n      0x03\n        /* \"Bones-of-Bitcoin/contracts/conditional/hard.sol\":221:231  delayHours */\n      dup6\n        /* \"Bones-of-Bitcoin/contracts/conditional/hard.sol\":221:236  delayHours <= 3 */\n      gt\n        /* \"Bones-of-Bitcoin/contracts/conditional/hard.sol\":217:306  if (delayHours <= 3) {... */\n      tag_11\n      jumpi\n        /* \"Bones-of-Bitcoin/contracts/conditional/hard.sol\":261:262  0 */\n      0x00\n        /* \"Bones-of-Bitcoin/contracts/conditional/hard.sol\":253:294  return (0, \"No payout - Delay too short\") */\n      mload(0x40)\n      dup1\n      0x40\n      add\n      0x40\n      mstore\n      dup1\n      0x1b\n      dup2\n      mstore\n      0x20\n      add\n      0x4e6f207061796f7574202d2044656c617920746f6f2073686f72740000000000\n      dup2\n      mstore\n      pop\n      swap2\n      pop\n      swap2\n      pop\n      jump(tag_10)\n        /* \"Bones-of-Bitcoin/contracts/conditional/hard.sol\":217:306  if (delayHours <= 3) {... */\n    tag_11:\n        /* \"Bones-of-Bitcoin/contracts/conditional/hard.sol\":339:340  7 */\n      0x07\n        /* \"Bones-of-Bitcoin/contracts/conditional/hard.sol\":322:336  dayAfterFlight */\n      dup4\n        /* \"Bones-of-Bitcoin/contracts/conditional/hard.sol\":322:340  dayAfterFlight > 7 */\n      gt\n        /* \"Bones-of-Bitcoin/contracts/conditional/hard.sol\":318:417  if (dayAfterFlight > 7) {... */\n      iszero\n      tag_12\n      jumpi\n        /* \"Bones-of-Bitcoin/contracts/conditional/hard.sol\":365:366  0 */\n      0x00\n        /* \"Bones-of-Bitcoin/contracts/conditional/hard.sol\":357:405  return (0, \"Claim invalid - submitted too late\") */\n      mload(0x40)\n      dup1\n      0x60\n      add\n      0x40\n      mstore\n      dup1\n      0x22\n      dup2\n      mstore\n      0x20\n      add\n      data_dd0206810208551d23409d8d0159d19eb3d3a8321c02d36157d0c73845271dd0\n      0x22\n      swap2\n      codecopy\n      swap2\n      pop\n      swap2\n      pop\n      jump(tag_10)\n        /* \"Bones-of-Bitcoin/contracts/conditional/hard.sol\":318:417  if (dayAfterFlight > 7) {... */\n    tag_12:\n        /* \"Bones-of-Bitcoin/contracts/conditional/hard.sol\":427:445  uint payoutPercent */\n      0x00\n        /* \"Bones-of-Bitcoin/contracts/conditional/hard.sol\":456:476  string memory status */\n      0x60\n        /* \"Bones-of-Bitcoin/contracts/conditional/hard.sol\":513:514  6 */\n      0x06\n        /* \"Bones-of-Bitcoin/contracts/conditional/hard.sol\":500:510  delayHours */\n      dup8\n        /* \"Bones-of-Bitcoin/contracts/conditional/hard.sol\":500:514  delayHours < 6 */\n      lt\n        /* \"Bones-of-Bitcoin/contracts/conditional/hard.sol\":497:788  if(delayHours < 6){... */\n      iszero\n      tag_13\n      jumpi\n        /* \"Bones-of-Bitcoin/contracts/conditional/hard.sol\":544:546  25 */\n      0x19\n        /* \"Bones-of-Bitcoin/contracts/conditional/hard.sol\":530:546  payoutPercent=25 */\n      swap2\n      pop\n        /* \"Bones-of-Bitcoin/contracts/conditional/hard.sol\":561:578  status=\"Approved\" */\n      mload(0x40)\n      dup1\n      0x40\n      add\n      0x40\n      mstore\n      dup1\n      0x08\n      dup2\n      mstore\n      0x20\n      add\n      0x417070726f766564000000000000000000000000000000000000000000000000\n      dup2\n      mstore\n      pop\n      swap1\n      pop\n        /* \"Bones-of-Bitcoin/contracts/conditional/hard.sol\":497:788  if(delayHours < 6){... */\n      jump(tag_14)\n    tag_13:\n        /* \"Bones-of-Bitcoin/contracts/conditional/hard.sol\":620:622  12 */\n      0x0c\n        /* \"Bones-of-Bitcoin/contracts/conditional/hard.sol\":609:619  delayHours */\n      dup8\n        /* \"Bones-of-Bitcoin/contracts/conditional/hard.sol\":609:622  delayHours<12 */\n      lt\n        /* \"Bones-of-Bitcoin/contracts/conditional/hard.sol\":605:788  if (delayHours<12){... */\n      iszero\n      tag_15\n      jumpi\n        /* \"Bones-of-Bitcoin/contracts/conditional/hard.sol\":652:654  50 */\n      0x32\n        /* \"Bones-of-Bitcoin/contracts/conditional/hard.sol\":638:654  payoutPercent=50 */\n      swap2\n      pop\n        /* \"Bones-of-Bitcoin/contracts/conditional/hard.sol\":669:686  status=\"Approved\" */\n      mload(0x40)\n      dup1\n      0x40\n      add\n      0x40\n      mstore\n      dup1\n      0x08\n      dup2\n      mstore\n      0x20\n      add\n      0x417070726f766564000000000000000000000000000000000000000000000000\n      dup2\n      mstore\n      pop\n      swap1\n      pop\n        /* \"Bones-of-Bitcoin/contracts/conditional/hard.sol\":605:788  if (delayHours<12){... */\n      jump(tag_16)\n    tag_15:\n        /* \"Bones-of-Bitcoin/contracts/conditional/hard.sol\":741:744  100 */\n      0x64\n        /* \"Bones-of-Bitcoin/contracts/conditional/hard.sol\":727:744  payoutPercent=100 */\n      swap2\n      pop\n        /* \"Bones-of-Bitcoin/contracts/conditional/hard.sol\":759:776  status=\"Approved\" */\n      mload(0x40)\n      dup1\n      0x40\n      add\n      0x40\n      mstore\n      dup1\n      0x08\n      dup2\n      mstore\n      0x20\n      add\n      0x417070726f766564000000000000000000000000000000000000000000000000\n      dup2\n      mstore\n      pop\n      swap1\n      pop\n        /* \"Bones-of-Bitcoin/contracts/conditional/hard.sol\":605:788  if (delayHours<12){... */\n    tag_16:\n        /* \"Bones-of-Bitcoin/contracts/conditional/hard.sol\":497:788  if(delayHours < 6){... */\n    tag_14:\n        /* \"Bones-of-Bitcoin/contracts/conditional/hard.sol\":803:808  isVIP */\n      dup6\n        /* \"Bones-of-Bitcoin/contracts/conditional/hard.sol\":803:828  isVIP && payoutPercent!=0 */\n      dup1\n      iszero\n      tag_17\n      jumpi\n      pop\n        /* \"Bones-of-Bitcoin/contracts/conditional/hard.sol\":827:828  0 */\n      0x00\n        /* \"Bones-of-Bitcoin/contracts/conditional/hard.sol\":812:825  payoutPercent */\n      dup3\n        /* \"Bones-of-Bitcoin/contracts/conditional/hard.sol\":812:828  payoutPercent!=0 */\n      eq\n      iszero\n        /* \"Bones-of-Bitcoin/contracts/conditional/hard.sol\":803:828  isVIP && payoutPercent!=0 */\n    tag_17:\n        /* \"Bones-of-Bitcoin/contracts/conditional/hard.sol\":800:1027  if(isVIP && payoutPercent!=0 ){... */\n      iszero\n      tag_18\n      jumpi\n        /* \"Bones-of-Bitcoin/contracts/conditional/hard.sol\":860:862  10 */\n      0x0a\n        /* \"Bones-of-Bitcoin/contracts/conditional/hard.sol\":845:862  payoutPercent+=10 */\n      dup3\n      tag_19\n      swap2\n      swap1\n      tag_20\n      jump\t// in\n    tag_19:\n      swap2\n      pop\n        /* \"Bones-of-Bitcoin/contracts/conditional/hard.sol\":894:897  110 */\n      0x6e\n        /* \"Bones-of-Bitcoin/contracts/conditional/hard.sol\":880:893  payoutPercent */\n      dup3\n        /* \"Bones-of-Bitcoin/contracts/conditional/hard.sol\":880:897  payoutPercent>110 */\n      gt\n        /* \"Bones-of-Bitcoin/contracts/conditional/hard.sol\":877:950  if(payoutPercent>110){... */\n      iszero\n      tag_21\n      jumpi\n        /* \"Bones-of-Bitcoin/contracts/conditional/hard.sol\":931:934  110 */\n      0x6e\n        /* \"Bones-of-Bitcoin/contracts/conditional/hard.sol\":917:934  payoutPercent=110 */\n      swap2\n      pop\n        /* \"Bones-of-Bitcoin/contracts/conditional/hard.sol\":877:950  if(payoutPercent>110){... */\n    tag_21:\n        /* \"Bones-of-Bitcoin/contracts/conditional/hard.sol\":985:991  status */\n      dup1\n        /* \"Bones-of-Bitcoin/contracts/conditional/hard.sol\":971:1015  string.concat(status,\" - VIP bonus applied\") */\n      add(0x20, mload(0x40))\n      tag_22\n      swap2\n      swap1\n      tag_23\n      jump\t// in\n    tag_22:\n      mload(0x40)\n      0x20\n      dup2\n      dup4\n      sub\n      sub\n      dup2\n      mstore\n      swap1\n      0x40\n      mstore\n        /* \"Bones-of-Bitcoin/contracts/conditional/hard.sol\":964:1015  status=string.concat(status,\" - VIP bonus applied\") */\n      swap1\n      pop\n        /* \"Bones-of-Bitcoin/contracts/conditional/hard.sol\":800:1027  if(isVIP && payoutPercent!=0 ){... */\n    tag_18:\n        /* \"Bones-of-Bitcoin/contracts/conditional/hard.sol\":1044:1057  payoutPercent */\n      dup2\n        /* \"Bones-of-Bitcoin/contracts/conditional/hard.sol\":1058:1064  status */\n      dup2\n        /* \"Bones-of-Bitcoin/contracts/conditional/hard.sol\":1037:1065  return(payoutPercent,status) */\n      swap4\n      pop\n      swap4\n      pop\n      pop\n      pop\n        /* \"Bones-of-Bitcoin/contracts/conditional/hard.sol\":104:1073  function claim(uint delayHours,bool isVIP,uint dayAfterFlight) pure public returns(uint,string memory){... */\n    tag_10:\n      swap4\n      pop\n      swap4\n      swap2\n      pop\n      pop\n      jump\t// out\n        /* \"#utility.yul\":88:205   */\n    tag_25:\n        /* \"#utility.yul\":197:198   */\n      0x00\n        /* \"#utility.yul\":194:195   */\n      0x00\n        /* \"#utility.yul\":187:199   */\n      revert\n        /* \"#utility.yul\":334:411   */\n    tag_27:\n        /* \"#utility.yul\":371:378   */\n      0x00\n        /* \"#utility.yul\":400:405   */\n      dup2\n        /* \"#utility.yul\":389:405   */\n      swap1\n      pop\n        /* \"#utility.yul\":334:411   */\n      swap2\n      swap1\n      pop\n      jump\t// out\n        /* \"#utility.yul\":417:539   */\n    tag_28:\n        /* \"#utility.yul\":490:514   */\n      tag_49\n        /* \"#utility.yul\":508:513   */\n      dup2\n        /* \"#utility.yul\":490:514   */\n      tag_27\n      jump\t// in\n    tag_49:\n        /* \"#utility.yul\":483:488   */\n      dup2\n        /* \"#utility.yul\":480:515   */\n      eq\n        /* \"#utility.yul\":470:533   */\n      tag_50\n      jumpi\n        /* \"#utility.yul\":529:530   */\n      0x00\n        /* \"#utility.yul\":526:527   */\n      0x00\n        /* \"#utility.yul\":519:531   */\n      revert\n        /* \"#utility.yul\":470:533   */\n    tag_50:\n        /* \"#utility.yul\":417:539   */\n      pop\n      jump\t// out\n        /* \"#utility.yul\":545:684   */\n    tag_29:\n        /* \"#utility.yul\":591:596   */\n      0x00\n        /* \"#utility.yul\":629:635   */\n      dup2\n        /* \"#utility.yul\":616:636   */\n      calldataload\n        /* \"#utility.yul\":607:636   */\n      swap1\n      pop\n        /* \"#utility.yul\":645:678   */\n      tag_52\n        /* \"#utility.yul\":672:677   */\n      dup2\n        /* \"#utility.yul\":645:678   */\n      tag_28\n      jump\t// in\n    tag_52:\n        /* \"#utility.yul\":545:684   */\n      swap3\n      swap2\n      pop\n      pop\n      jump\t// out\n        /* \"#utility.yul\":690:780   */\n    tag_30:\n        /* \"#utility.yul\":724:731   */\n      0x00\n        /* \"#utility.yul\":767:772   */\n      dup2\n        /* \"#utility.yul\":760:773   */\n      iszero\n        /* \"#utility.yul\":753:774   */\n      iszero\n        /* \"#utility.yul\":742:774   */\n      swap1\n      pop\n        /* \"#utility.yul\":690:780   */\n      swap2\n      swap1\n      pop\n      jump\t// out\n        /* \"#utility.yul\":786:902   */\n    tag_31:\n        /* \"#utility.yul\":856:877   */\n      tag_55\n        /* \"#utility.yul\":871:876   */\n      dup2\n        /* \"#utility.yul\":856:877   */\n      tag_30\n      jump\t// in\n    tag_55:\n        /* \"#utility.yul\":849:854   */\n      dup2\n        /* \"#utility.yul\":846:878   */\n      eq\n        /* \"#utility.yul\":836:896   */\n      tag_56\n      jumpi\n        /* \"#utility.yul\":892:893   */\n      0x00\n        /* \"#utility.yul\":889:890   */\n      0x00\n        /* \"#utility.yul\":882:894   */\n      revert\n        /* \"#utility.yul\":836:896   */\n    tag_56:\n        /* \"#utility.yul\":786:902   */\n      pop\n      jump\t// out\n        /* \"#utility.yul\":908:1041   */\n    tag_32:\n        /* \"#utility.yul\":951:956   */\n      0x00\n        /* \"#utility.yul\":989:995   */\n      dup2\n        /* \"#utility.yul\":976:996   */\n      calldataload\n        /* \"#utility.yul\":967:996   */\n      swap1\n      pop\n        /* \"#utility.yul\":1005:1035   */\n      tag_58\n        /* \"#utility.yul\":1029:1034   */\n      dup2\n        /* \"#utility.yul\":1005:1035   */\n      tag_31\n      jump\t// in\n    tag_58:\n        /* \"#utility.yul\":908:1041   */\n      swap3\n      swap2\n      pop\n      pop\n      jump\t// out\n        /* \"#utility.yul\":1047:1660   */\n    tag_6:\n        /* \"#utility.yul\":1121:1127   */\n      0x00\n        /* \"#utility.yul\":1129:1135   */\n      0x00\n        /* \"#utility.yul\":1137:1143   */\n      0x00\n        /* \"#utility.yul\":1186:1188   */\n      0x60\n        /* \"#utility.yul\":1174:1183   */\n      dup5\n        /* \"#utility.yul\":1165:1172   */\n      dup7\n        /* \"#utility.yul\":1161:1184   */\n      sub\n        /* \"#utility.yul\":1157:1189   */\n      slt\n        /* \"#utility.yul\":1154:1273   */\n      iszero\n      tag_60\n      jumpi\n        /* \"#utility.yul\":1192:1271   */\n      tag_61\n      tag_25\n      jump\t// in\n    tag_61:\n        /* \"#utility.yul\":1154:1273   */\n    tag_60:\n        /* \"#utility.yul\":1312:1313   */\n      0x00\n        /* \"#utility.yul\":1337:1390   */\n      tag_62\n        /* \"#utility.yul\":1382:1389   */\n      dup7\n        /* \"#utility.yul\":1373:1379   */\n      dup3\n        /* \"#utility.yul\":1362:1371   */\n      dup8\n        /* \"#utility.yul\":1358:1380   */\n      add\n        /* \"#utility.yul\":1337:1390   */\n      tag_29\n      jump\t// in\n    tag_62:\n        /* \"#utility.yul\":1327:1390   */\n      swap4\n      pop\n        /* \"#utility.yul\":1283:1400   */\n      pop\n        /* \"#utility.yul\":1439:1441   */\n      0x20\n        /* \"#utility.yul\":1465:1515   */\n      tag_63\n        /* \"#utility.yul\":1507:1514   */\n      dup7\n        /* \"#utility.yul\":1498:1504   */\n      dup3\n        /* \"#utility.yul\":1487:1496   */\n      dup8\n        /* \"#utility.yul\":1483:1505   */\n      add\n        /* \"#utility.yul\":1465:1515   */\n      tag_32\n      jump\t// in\n    tag_63:\n        /* \"#utility.yul\":1455:1515   */\n      swap3\n      pop\n        /* \"#utility.yul\":1410:1525   */\n      pop\n        /* \"#utility.yul\":1564:1566   */\n      0x40\n        /* \"#utility.yul\":1590:1643   */\n      tag_64\n        /* \"#utility.yul\":1635:1642   */\n      dup7\n        /* \"#utility.yul\":1626:1632   */\n      dup3\n        /* \"#utility.yul\":1615:1624   */\n      dup8\n        /* \"#utility.yul\":1611:1633   */\n      add\n        /* \"#utility.yul\":1590:1643   */\n      tag_29\n      jump\t// in\n    tag_64:\n        /* \"#utility.yul\":1580:1643   */\n      swap2\n      pop\n        /* \"#utility.yul\":1535:1653   */\n      pop\n        /* \"#utility.yul\":1047:1660   */\n      swap3\n      pop\n      swap3\n      pop\n      swap3\n      jump\t// out\n        /* \"#utility.yul\":1666:1784   */\n    tag_33:\n        /* \"#utility.yul\":1753:1777   */\n      tag_66\n        /* \"#utility.yul\":1771:1776   */\n      dup2\n        /* \"#utility.yul\":1753:1777   */\n      tag_27\n      jump\t// in\n    tag_66:\n        /* \"#utility.yul\":1748:1751   */\n      dup3\n        /* \"#utility.yul\":1741:1778   */\n      mstore\n        /* \"#utility.yul\":1666:1784   */\n      pop\n      pop\n      jump\t// out\n        /* \"#utility.yul\":1790:1889   */\n    tag_34:\n        /* \"#utility.yul\":1842:1848   */\n      0x00\n        /* \"#utility.yul\":1876:1881   */\n      dup2\n        /* \"#utility.yul\":1870:1882   */\n      mload\n        /* \"#utility.yul\":1860:1882   */\n      swap1\n      pop\n        /* \"#utility.yul\":1790:1889   */\n      swap2\n      swap1\n      pop\n      jump\t// out\n        /* \"#utility.yul\":1895:2064   */\n    tag_35:\n        /* \"#utility.yul\":1979:1990   */\n      0x00\n        /* \"#utility.yul\":2013:2019   */\n      dup3\n        /* \"#utility.yul\":2008:2011   */\n      dup3\n        /* \"#utility.yul\":2001:2020   */\n      mstore\n        /* \"#utility.yul\":2053:2057   */\n      0x20\n        /* \"#utility.yul\":2048:2051   */\n      dup3\n        /* \"#utility.yul\":2044:2058   */\n      add\n        /* \"#utility.yul\":2029:2058   */\n      swap1\n      pop\n        /* \"#utility.yul\":1895:2064   */\n      swap3\n      swap2\n      pop\n      pop\n      jump\t// out\n        /* \"#utility.yul\":2070:2209   */\n    tag_36:\n        /* \"#utility.yul\":2159:2165   */\n      dup3\n        /* \"#utility.yul\":2154:2157   */\n      dup2\n        /* \"#utility.yul\":2149:2152   */\n      dup4\n        /* \"#utility.yul\":2143:2166   */\n      mcopy\n        /* \"#utility.yul\":2200:2201   */\n      0x00\n        /* \"#utility.yul\":2191:2197   */\n      dup4\n        /* \"#utility.yul\":2186:2189   */\n      dup4\n        /* \"#utility.yul\":2182:2198   */\n      add\n        /* \"#utility.yul\":2175:2202   */\n      mstore\n        /* \"#utility.yul\":2070:2209   */\n      pop\n      pop\n      pop\n      jump\t// out\n        /* \"#utility.yul\":2215:2317   */\n    tag_37:\n        /* \"#utility.yul\":2256:2262   */\n      0x00\n        /* \"#utility.yul\":2307:2309   */\n      0x1f\n        /* \"#utility.yul\":2303:2310   */\n      not\n        /* \"#utility.yul\":2298:2300   */\n      0x1f\n        /* \"#utility.yul\":2291:2296   */\n      dup4\n        /* \"#utility.yul\":2287:2301   */\n      add\n        /* \"#utility.yul\":2283:2311   */\n      and\n        /* \"#utility.yul\":2273:2311   */\n      swap1\n      pop\n        /* \"#utility.yul\":2215:2317   */\n      swap2\n      swap1\n      pop\n      jump\t// out\n        /* \"#utility.yul\":2323:2700   */\n    tag_38:\n        /* \"#utility.yul\":2411:2414   */\n      0x00\n        /* \"#utility.yul\":2439:2478   */\n      tag_72\n        /* \"#utility.yul\":2472:2477   */\n      dup3\n        /* \"#utility.yul\":2439:2478   */\n      tag_34\n      jump\t// in\n    tag_72:\n        /* \"#utility.yul\":2494:2565   */\n      tag_73\n        /* \"#utility.yul\":2558:2564   */\n      dup2\n        /* \"#utility.yul\":2553:2556   */\n      dup6\n        /* \"#utility.yul\":2494:2565   */\n      tag_35\n      jump\t// in\n    tag_73:\n        /* \"#utility.yul\":2487:2565   */\n      swap4\n      pop\n        /* \"#utility.yul\":2574:2639   */\n      tag_74\n        /* \"#utility.yul\":2632:2638   */\n      dup2\n        /* \"#utility.yul\":2627:2630   */\n      dup6\n        /* \"#utility.yul\":2620:2624   */\n      0x20\n        /* \"#utility.yul\":2613:2618   */\n      dup7\n        /* \"#utility.yul\":2609:2625   */\n      add\n        /* \"#utility.yul\":2574:2639   */\n      tag_36\n      jump\t// in\n    tag_74:\n        /* \"#utility.yul\":2664:2693   */\n      tag_75\n        /* \"#utility.yul\":2686:2692   */\n      dup2\n        /* \"#utility.yul\":2664:2693   */\n      tag_37\n      jump\t// in\n    tag_75:\n        /* \"#utility.yul\":2659:2662   */\n      dup5\n        /* \"#utility.yul\":2655:2694   */\n      add\n        /* \"#utility.yul\":2648:2694   */\n      swap2\n      pop\n        /* \"#utility.yul\":2415:2700   */\n      pop\n        /* \"#utility.yul\":2323:2700   */\n      swap3\n      swap2\n      pop\n      pop\n      jump\t// out\n        /* \"#utility.yul\":2706:3129   */\n    tag_9:\n        /* \"#utility.yul\":2847:2851   */\n      0x00\n        /* \"#utility.yul\":2885:2887   */\n      0x40\n        /* \"#utility.yul\":2874:2883   */\n      dup3\n        /* \"#utility.yul\":2870:2888   */\n      add\n        /* \"#utility.yul\":2862:2888   */\n      swap1\n      pop\n        /* \"#utility.yul\":2898:2969   */\n      tag_77\n        /* \"#utility.yul\":2966:2967   */\n      0x00\n        /* \"#utility.yul\":2955:2964   */\n      dup4\n        /* \"#utility.yul\":2951:2968   */\n      add\n        /* \"#utility.yul\":2942:2948   */\n      dup6\n        /* \"#utility.yul\":2898:2969   */\n      tag_33\n      jump\t// in\n    tag_77:\n        /* \"#utility.yul\":3016:3025   */\n      dup2\n        /* \"#utility.yul\":3010:3014   */\n      dup2\n        /* \"#utility.yul\":3006:3026   */\n      sub\n        /* \"#utility.yul\":3001:3003   */\n      0x20\n        /* \"#utility.yul\":2990:2999   */\n      dup4\n        /* \"#utility.yul\":2986:3004   */\n      add\n        /* \"#utility.yul\":2979:3027   */\n      mstore\n        /* \"#utility.yul\":3044:3122   */\n      tag_78\n        /* \"#utility.yul\":3117:3121   */\n      dup2\n        /* \"#utility.yul\":3108:3114   */\n      dup5\n        /* \"#utility.yul\":3044:3122   */\n      tag_38\n      jump\t// in\n    tag_78:\n        /* \"#utility.yul\":3036:3122   */\n      swap1\n      pop\n        /* \"#utility.yul\":2706:3129   */\n      swap4\n      swap3\n      pop\n      pop\n      pop\n      jump\t// out\n        /* \"#utility.yul\":3135:3315   */\n    tag_39:\n        /* \"#utility.yul\":3183:3260   */\n      0x4e487b7100000000000000000000000000000000000000000000000000000000\n        /* \"#utility.yul\":3180:3181   */\n      0x00\n        /* \"#utility.yul\":3173:3261   */\n      mstore\n        /* \"#utility.yul\":3280:3284   */\n      0x11\n        /* \"#utility.yul\":3277:3278   */\n      0x04\n        /* \"#utility.yul\":3270:3285   */\n      mstore\n        /* \"#utility.yul\":3304:3308   */\n      0x24\n        /* \"#utility.yul\":3301:3302   */\n      0x00\n        /* \"#utility.yul\":3294:3309   */\n      revert\n        /* \"#utility.yul\":3321:3512   */\n    tag_20:\n        /* \"#utility.yul\":3361:3364   */\n      0x00\n        /* \"#utility.yul\":3380:3400   */\n      tag_81\n        /* \"#utility.yul\":3398:3399   */\n      dup3\n        /* \"#utility.yul\":3380:3400   */\n      tag_27\n      jump\t// in\n    tag_81:\n        /* \"#utility.yul\":3375:3400   */\n      swap2\n      pop\n        /* \"#utility.yul\":3414:3434   */\n      tag_82\n        /* \"#utility.yul\":3432:3433   */\n      dup4\n        /* \"#utility.yul\":3414:3434   */\n      tag_27\n      jump\t// in\n    tag_82:\n        /* \"#utility.yul\":3409:3434   */\n      swap3\n      pop\n        /* \"#utility.yul\":3457:3458   */\n      dup3\n        /* \"#utility.yul\":3454:3455   */\n      dup3\n        /* \"#utility.yul\":3450:3459   */\n      add\n        /* \"#utility.yul\":3443:3459   */\n      swap1\n      pop\n        /* \"#utility.yul\":3478:3481   */\n      dup1\n        /* \"#utility.yul\":3475:3476   */\n      dup3\n        /* \"#utility.yul\":3472:3482   */\n      gt\n        /* \"#utility.yul\":3469:3505   */\n      iszero\n      tag_83\n      jumpi\n        /* \"#utility.yul\":3485:3503   */\n      tag_84\n      tag_39\n      jump\t// in\n    tag_84:\n        /* \"#utility.yul\":3469:3505   */\n    tag_83:\n        /* \"#utility.yul\":3321:3512   */\n      swap3\n      swap2\n      pop\n      pop\n      jump\t// out\n        /* \"#utility.yul\":3518:3666   */\n    tag_40:\n        /* \"#utility.yul\":3620:3631   */\n      0x00\n        /* \"#utility.yul\":3657:3660   */\n      dup2\n        /* \"#utility.yul\":3642:3660   */\n      swap1\n      pop\n        /* \"#utility.yul\":3518:3666   */\n      swap3\n      swap2\n      pop\n      pop\n      jump\t// out\n        /* \"#utility.yul\":3672:4062   */\n    tag_41:\n        /* \"#utility.yul\":3778:3781   */\n      0x00\n        /* \"#utility.yul\":3806:3845   */\n      tag_87\n        /* \"#utility.yul\":3839:3844   */\n      dup3\n        /* \"#utility.yul\":3806:3845   */\n      tag_34\n      jump\t// in\n    tag_87:\n        /* \"#utility.yul\":3861:3950   */\n      tag_88\n        /* \"#utility.yul\":3943:3949   */\n      dup2\n        /* \"#utility.yul\":3938:3941   */\n      dup6\n        /* \"#utility.yul\":3861:3950   */\n      tag_40\n      jump\t// in\n    tag_88:\n        /* \"#utility.yul\":3854:3950   */\n      swap4\n      pop\n        /* \"#utility.yul\":3959:4024   */\n      tag_89\n        /* \"#utility.yul\":4017:4023   */\n      dup2\n        /* \"#utility.yul\":4012:4015   */\n      dup6\n        /* \"#utility.yul\":4005:4009   */\n      0x20\n        /* \"#utility.yul\":3998:4003   */\n      dup7\n        /* \"#utility.yul\":3994:4010   */\n      add\n        /* \"#utility.yul\":3959:4024   */\n      tag_36\n      jump\t// in\n    tag_89:\n        /* \"#utility.yul\":4049:4055   */\n      dup1\n        /* \"#utility.yul\":4044:4047   */\n      dup5\n        /* \"#utility.yul\":4040:4056   */\n      add\n        /* \"#utility.yul\":4033:4056   */\n      swap2\n      pop\n        /* \"#utility.yul\":3782:4062   */\n      pop\n        /* \"#utility.yul\":3672:4062   */\n      swap3\n      swap2\n      pop\n      pop\n      jump\t// out\n        /* \"#utility.yul\":4068:4266   */\n    tag_42:\n        /* \"#utility.yul\":4237:4259   */\n      0x202d2056495020626f6e7573206170706c696564000000000000000000000000\n        /* \"#utility.yul\":4232:4235   */\n      dup2\n        /* \"#utility.yul\":4225:4260   */\n      mstore\n        /* \"#utility.yul\":4068:4266   */\n      pop\n      jump\t// out\n        /* \"#utility.yul\":4272:4814   */\n    tag_23:\n        /* \"#utility.yul\":4495:4498   */\n      0x00\n        /* \"#utility.yul\":4517:4612   */\n      tag_92\n        /* \"#utility.yul\":4608:4611   */\n      dup3\n        /* \"#utility.yul\":4599:4605   */\n      dup5\n        /* \"#utility.yul\":4517:4612   */\n      tag_41\n      jump\t// in\n    tag_92:\n        /* \"#utility.yul\":4510:4612   */\n      swap2\n      pop\n        /* \"#utility.yul\":4622:4760   */\n      tag_93\n        /* \"#utility.yul\":4756:4759   */\n      dup3\n        /* \"#utility.yul\":4622:4760   */\n      tag_42\n      jump\t// in\n    tag_93:\n        /* \"#utility.yul\":4785:4787   */\n      0x14\n        /* \"#utility.yul\":4780:4783   */\n      dup3\n        /* \"#utility.yul\":4776:4788   */\n      add\n        /* \"#utility.yul\":4769:4788   */\n      swap2\n      pop\n        /* \"#utility.yul\":4805:4808   */\n      dup2\n        /* \"#utility.yul\":4798:4808   */\n      swap1\n      pop\n        /* \"#utility.yul\":4272:4814   */\n      swap3\n      swap2\n      pop\n      pop\n      jump\t// out\n    stop\n    data_dd0206810208551d23409d8d0159d19eb3d3a8321c02d36157d0c73845271dd0 436c61696d20696e76616c6964202d207375626d697474656420746f6f206c617465\n\n    auxdata: 0xa2646970667358221220f8ec6e6dbb832999253cf45e7a5d079437c6893d3dcb40d2fbbd64d6bae9eb6764736f6c634300081e0033\n}\n",
				"bytecode": {
					"linkReferences": {},
					"object": "6080604052348015600e575f5ffd5b506104b38061001c5f395ff3fe608060405234801561000f575f5ffd5b5060043610610029575f3560e01c80632d91e4581461002d575b5f5ffd5b61004760048036038101906100429190610279565b61005e565b604051610055929190610348565b60405180910390f35b5f6060600385116100a9575f6040518060400160405280601b81526020017f4e6f207061796f7574202d2044656c617920746f6f2073686f7274000000000081525091509150610205565b60078311156100d5575f60405180606001604052806022815260200161045c6022913991509150610205565b5f6060600687101561012257601991506040518060400160405280600881526020017f417070726f76656400000000000000000000000000000000000000000000000081525090506101aa565b600c87101561016c57603291506040518060400160405280600881526020017f417070726f76656400000000000000000000000000000000000000000000000081525090506101a9565b606491506040518060400160405280600881526020017f417070726f76656400000000000000000000000000000000000000000000000081525090505b5b8580156101b757505f8214155b156101fc57600a826101c991906103a3565b9150606e8211156101d957606e91505b806040516020016101ea9190610436565b60405160208183030381529060405290505b81819350935050505b935093915050565b5f5ffd5b5f819050919050565b61022381610211565b811461022d575f5ffd5b50565b5f8135905061023e8161021a565b92915050565b5f8115159050919050565b61025881610244565b8114610262575f5ffd5b50565b5f813590506102738161024f565b92915050565b5f5f5f606084860312156102905761028f61020d565b5b5f61029d86828701610230565b93505060206102ae86828701610265565b92505060406102bf86828701610230565b9150509250925092565b6102d281610211565b82525050565b5f81519050919050565b5f82825260208201905092915050565b8281835e5f83830152505050565b5f601f19601f8301169050919050565b5f61031a826102d8565b61032481856102e2565b93506103348185602086016102f2565b61033d81610300565b840191505092915050565b5f60408201905061035b5f8301856102c9565b818103602083015261036d8184610310565b90509392505050565b7f4e487b71000000000000000000000000000000000000000000000000000000005f52601160045260245ffd5b5f6103ad82610211565b91506103b883610211565b92508282019050808211156103d0576103cf610376565b5b92915050565b5f81905092915050565b5f6103ea826102d8565b6103f481856103d6565b93506104048185602086016102f2565b80840191505092915050565b7f202d2056495020626f6e7573206170706c696564000000000000000000000000815250565b5f61044182846103e0565b915061044c82610410565b6014820191508190509291505056fe436c61696d20696e76616c6964202d207375626d697474656420746f6f206c617465a2646970667358221220f8ec6e6dbb832999253cf45e7a5d079437c6893d3dcb40d2fbbd64d6bae9eb6764736f6c634300081e0033",
					"opcodes": "PUSH1 0x80 PUSH1 0x40 MSTORE CALLVALUE DUP1 ISZERO PUSH1 0xE JUMPI PUSH0 PUSH0 REVERT JUMPDEST POP PUSH2 0x4B3 DUP1 PUSH2 0x1C PUSH0 CODECOPY PUSH0 RETURN INVALID PUSH1 0x80 PUSH1 0x40 MSTORE CALLVALUE DUP1 ISZERO PUSH2 0xF JUMPI PUSH0 PUSH0 REVERT JUMPDEST POP PUSH1 0x4 CALLDATASIZE LT PUSH2 0x29 JUMPI PUSH0 CALLDATALOAD PUSH1 0xE0 SHR DUP1 PUSH4 0x2D91E458 EQ PUSH2 0x2D JUMPI JUMPDEST PUSH0 PUSH0 REVERT JUMPDEST PUSH2 0x47 PUSH1 0x4 DUP1 CALLDATASIZE SUB DUP2 ADD SWAP1 PUSH2 0x42 SWAP2 SWAP1 PUSH2 0x279 JUMP JUMPDEST PUSH2 0x5E JUMP JUMPDEST PUSH1 0x40 MLOAD PUSH2 0x55 SWAP3 SWAP2 SWAP1 PUSH2 0x348 JUMP JUMPDEST PUSH1 0x40 MLOAD DUP1 SWAP2 SUB SWAP1 RETURN JUMPDEST PUSH0 PUSH1 0x60 PUSH1 0x3 DUP6 GT PUSH2 0xA9 JUMPI PUSH0 PUSH1 0x40 MLOAD DUP1 PUSH1 0x40 ADD PUSH1 0x40 MSTORE DUP1 PUSH1 0x1B DUP2 MSTORE PUSH1 0x20 ADD PUSH32 0x4E6F207061796F7574202D2044656C617920746F6F2073686F72740000000000 DUP2 MSTORE POP SWAP2 POP SWAP2 POP PUSH2 0x205 JUMP JUMPDEST PUSH1 0x7 DUP4 GT ISZERO PUSH2 0xD5 JUMPI PUSH0 PUSH1 0x40 MLOAD DUP1 PUSH1 0x60 ADD PUSH1 0x40 MSTORE DUP1 PUSH1 0x22 DUP2 MSTORE PUSH1 0x20 ADD PUSH2 0x45C PUSH1 0x22 SWAP2 CODECOPY SWAP2 POP SWAP2 POP PUSH2 0x205 JUMP JUMPDEST PUSH0 PUSH1 0x60 PUSH1 0x6 DUP8 LT ISZERO PUSH2 0x122 JUMPI PUSH1 0x19 SWAP2 POP PUSH1 0x40 MLOAD DUP1 PUSH1 0x40 ADD PUSH1 0x40 MSTORE DUP1 PUSH1 0x8 DUP2 MSTORE PUSH1 0x20 ADD PUSH32 0x417070726F766564000000000000000000000000000000000000000000000000 DUP2 MSTORE POP SWAP1 POP PUSH2 0x1AA JUMP JUMPDEST PUSH1 0xC DUP8 LT ISZERO PUSH2 0x16C JUMPI PUSH1 0x32 SWAP2 POP PUSH1 0x40 MLOAD DUP1 PUSH1 0x40 ADD PUSH1 0x40 MSTORE DUP1 PUSH1 0x8 DUP2 MSTORE PUSH1 0x20 ADD PUSH32 0x417070726F766564000000000000000000000000000000000000000000000000 DUP2 MSTORE POP SWAP1 POP PUSH2 0x1A9 JUMP JUMPDEST PUSH1 0x64 SWAP2 POP PUSH1 0x40 MLOAD DUP1 PUSH1 0x40 ADD PUSH1 0x40 MSTORE DUP1 PUSH1 0x8 DUP2 MSTORE PUSH1 0x20 ADD PUSH32 0x417070726F766564000000000000000000000000000000000000000000000000 DUP2 MSTORE POP SWAP1 POP JUMPDEST JUMPDEST DUP6 DUP1 ISZERO PUSH2 0x1B7 JUMPI POP PUSH0 DUP3 EQ ISZERO JUMPDEST ISZERO PUSH2 0x1FC JUMPI PUSH1 0xA DUP3 PUSH2 0x1C9 SWAP2 SWAP1 PUSH2 0x3A3 JUMP JUMPDEST SWAP2 POP PUSH1 0x6E DUP3 GT ISZERO PUSH2 0x1D9 JUMPI PUSH1 0x6E SWAP2 POP JUMPDEST DUP1 PUSH1 0x40 MLOAD PUSH1 0x20 ADD PUSH2 0x1EA SWAP2 SWAP1 PUSH2 0x436 JUMP JUMPDEST PUSH1 0x40 MLOAD PUSH1 0x20 DUP2 DUP4 SUB SUB DUP2 MSTORE SWAP1 PUSH1 0x40 MSTORE SWAP1 POP JUMPDEST DUP2 DUP2 SWAP4 POP SWAP4 POP POP POP JUMPDEST SWAP4 POP SWAP4 SWAP2 POP POP JUMP JUMPDEST PUSH0 PUSH0 REVERT JUMPDEST PUSH0 DUP2 SWAP1 POP SWAP2 SWAP1 POP JUMP JUMPDEST PUSH2 0x223 DUP2 PUSH2 0x211 JUMP JUMPDEST DUP2 EQ PUSH2 0x22D JUMPI PUSH0 PUSH0 REVERT JUMPDEST POP JUMP JUMPDEST PUSH0 DUP2 CALLDATALOAD SWAP1 POP PUSH2 0x23E DUP2 PUSH2 0x21A JUMP JUMPDEST SWAP3 SWAP2 POP POP JUMP JUMPDEST PUSH0 DUP2 ISZERO ISZERO SWAP1 POP SWAP2 SWAP1 POP JUMP JUMPDEST PUSH2 0x258 DUP2 PUSH2 0x244 JUMP JUMPDEST DUP2 EQ PUSH2 0x262 JUMPI PUSH0 PUSH0 REVERT JUMPDEST POP JUMP JUMPDEST PUSH0 DUP2 CALLDATALOAD SWAP1 POP PUSH2 0x273 DUP2 PUSH2 0x24F JUMP JUMPDEST SWAP3 SWAP2 POP POP JUMP JUMPDEST PUSH0 PUSH0 PUSH0 PUSH1 0x60 DUP5 DUP7 SUB SLT ISZERO PUSH2 0x290 JUMPI PUSH2 0x28F PUSH2 0x20D JUMP JUMPDEST JUMPDEST PUSH0 PUSH2 0x29D DUP7 DUP3 DUP8 ADD PUSH2 0x230 JUMP JUMPDEST SWAP4 POP POP PUSH1 0x20 PUSH2 0x2AE DUP7 DUP3 DUP8 ADD PUSH2 0x265 JUMP JUMPDEST SWAP3 POP POP PUSH1 0x40 PUSH2 0x2BF DUP7 DUP3 DUP8 ADD PUSH2 0x230 JUMP JUMPDEST SWAP2 POP POP SWAP3 POP SWAP3 POP SWAP3 JUMP JUMPDEST PUSH2 0x2D2 DUP2 PUSH2 0x211 JUMP JUMPDEST DUP3 MSTORE POP POP JUMP JUMPDEST PUSH0 DUP2 MLOAD SWAP1 POP SWAP2 SWAP1 POP JUMP JUMPDEST PUSH0 DUP3 DUP3 MSTORE PUSH1 0x20 DUP3 ADD SWAP1 POP SWAP3 SWAP2 POP POP JUMP JUMPDEST DUP3 DUP2 DUP4 MCOPY PUSH0 DUP4 DUP4 ADD MSTORE POP POP POP JUMP JUMPDEST PUSH0 PUSH1 0x1F NOT PUSH1 0x1F DUP4 ADD AND SWAP1 POP SWAP2 SWAP1 POP JUMP JUMPDEST PUSH0 PUSH2 0x31A DUP3 PUSH2 0x2D8 JUMP JUMPDEST PUSH2 0x324 DUP2 DUP6 PUSH2 0x2E2 JUMP JUMPDEST SWAP4 POP PUSH2 0x334 DUP2 DUP6 PUSH1 0x20 DUP7 ADD PUSH2 0x2F2 JUMP JUMPDEST PUSH2 0x33D DUP2 PUSH2 0x300 JUMP JUMPDEST DUP5 ADD SWAP2 POP POP SWAP3 SWAP2 POP POP JUMP JUMPDEST PUSH0 PUSH1 0x40 DUP3 ADD SWAP1 POP PUSH2 0x35B PUSH0 DUP4 ADD DUP6 PUSH2 0x2C9 JUMP JUMPDEST DUP2 DUP2 SUB PUSH1 0x20 DUP4 ADD MSTORE PUSH2 0x36D DUP2 DUP5 PUSH2 0x310 JUMP JUMPDEST SWAP1 POP SWAP4 SWAP3 POP POP POP JUMP JUMPDEST PUSH32 0x4E487B7100000000000000000000000000000000000000000000000000000000 PUSH0 MSTORE PUSH1 0x11 PUSH1 0x4 MSTORE PUSH1 0x24 PUSH0 REVERT JUMPDEST PUSH0 PUSH2 0x3AD DUP3 PUSH2 0x211 JUMP JUMPDEST SWAP2 POP PUSH2 0x3B8 DUP4 PUSH2 0x211 JUMP JUMPDEST SWAP3 POP DUP3 DUP3 ADD SWAP1 POP DUP1 DUP3 GT ISZERO PUSH2 0x3D0 JUMPI PUSH2 0x3CF PUSH2 0x376 JUMP JUMPDEST JUMPDEST SWAP3 SWAP2 POP POP JUMP JUMPDEST PUSH0 DUP2 SWAP1 POP SWAP3 SWAP2 POP POP JUMP JUMPDEST PUSH0 PUSH2 0x3EA DUP3 PUSH2 0x2D8 JUMP JUMPDEST PUSH2 0x3F4 DUP2 DUP6 PUSH2 0x3D6 JUMP JUMPDEST SWAP4 POP PUSH2 0x404 DUP2 DUP6 PUSH1 0x20 DUP7 ADD PUSH2 0x2F2 JUMP JUMPDEST DUP1 DUP5 ADD SWAP2 POP POP SWAP3 SWAP2 POP POP JUMP JUMPDEST PUSH32 0x202D2056495020626F6E7573206170706C696564000000000000000000000000 DUP2 MSTORE POP JUMP JUMPDEST PUSH0 PUSH2 0x441 DUP3 DUP5 PUSH2 0x3E0 JUMP JUMPDEST SWAP2 POP PUSH2 0x44C DUP3 PUSH2 0x410 JUMP JUMPDEST PUSH1 0x14 DUP3 ADD SWAP2 POP DUP2 SWAP1 POP SWAP3 SWAP2 POP POP JUMP INVALID NUMBER PUSH13 0x61696D20696E76616C6964202D KECCAK256 PUSH20 0x75626D697474656420746F6F206C617465A26469 PUSH17 0x667358221220F8EC6E6DBB832999253CF4 MCOPY PUSH27 0x5D079437C6893D3DCB40D2FBBD64D6BAE9EB6764736F6C63430008 0x1E STOP CALLER "
				},
				"gasEstimates": {
					"creation": {
						"codeDepositCost": "240600",
						"executionCost": "279",
						"totalCost": "240879"
					},
					"external": {
						"claim(uint256,bool,uint256)": "infinite"
					}
				},
				"methodIdentifiers": {
					"claim(uint256,bool,uint256)": "2d91e458"
				}
			},
			"storageLayout": {
				"storage": [],
				"types": null
			},
			"userdoc": {
				"kind": "user",
				"methods": {},
				"version": 1
			}
		}
	}
}