{
	"Bones-of-Bitcoin/contracts/conditional/medium.sol": {
		"ElectricityBill": {
			"abi": [
				{
					"inputs": [
						{
							"internalType": "uint256",
							"name": "units",
							"type": "uint256"
						}
					],
					"name": "calculateBill",
					"outputs": [
						{
							"internalType": "uint256",
							"name": "totalCost",
							"type": "uint256"
						},
						{
							"internalType": "string",
							"name": "Usage",
							"type": "string"
						}
					],
					"stateMutability": "pure",
					"type": "function"
				}
			],
			"devdoc": {
				"kind": "dev",
				"methods": {},
				"version": 1
			},
			"evm": {
				"assembly": "    /* \"Bones-of-Bitcoin/contracts/conditional/medium.sol\":81:1121  contract ElectricityBill {... */\n  mstore(0x40, 0x80)\n  callvalue\n  dup1\n  iszero\n  tag_1\n  jumpi\n  revert(0x00, 0x00)\ntag_1:\n  pop\n  dataSize(sub_0)\n  dup1\n  dataOffset(sub_0)\n  0x00\n  codecopy\n  0x00\n  return\nstop\n\nsub_0: assembly {\n        /* \"Bones-of-Bitcoin/contracts/conditional/medium.sol\":81:1121  contract ElectricityBill {... */\n      mstore(0x40, 0x80)\n      callvalue\n      dup1\n      iszero\n      tag_1\n      jumpi\n      revert(0x00, 0x00)\n    tag_1:\n      pop\n      jumpi(tag_2, lt(calldatasize, 0x04))\n      shr(0xe0, calldataload(0x00))\n      dup1\n      0x20d8c7be\n      eq\n      tag_3\n      jumpi\n    tag_2:\n      revert(0x00, 0x00)\n        /* \"Bones-of-Bitcoin/contracts/conditional/medium.sol\":113:712  function calculateBill(uint units) public pure returns (uint totalCost, string memory Usage) {... */\n    tag_3:\n      tag_4\n      0x04\n      dup1\n      calldatasize\n      sub\n      dup2\n      add\n      swap1\n      tag_5\n      swap2\n      swap1\n      tag_6\n      jump\t// in\n    tag_5:\n      tag_7\n      jump\t// in\n    tag_4:\n      mload(0x40)\n      tag_8\n      swap3\n      swap2\n      swap1\n      tag_9\n      jump\t// in\n    tag_8:\n      mload(0x40)\n      dup1\n      swap2\n      sub\n      swap1\n      return\n    tag_7:\n        /* \"Bones-of-Bitcoin/contracts/conditional/medium.sol\":169:183  uint totalCost */\n      0x00\n        /* \"Bones-of-Bitcoin/contracts/conditional/medium.sol\":185:204  string memory Usage */\n      0x60\n        /* \"Bones-of-Bitcoin/contracts/conditional/medium.sol\":217:231  uint totalcost */\n      0x00\n        /* \"Bones-of-Bitcoin/contracts/conditional/medium.sol\":242:261  string memory usage */\n      0x60\n        /* \"Bones-of-Bitcoin/contracts/conditional/medium.sol\":285:286  0 */\n      0x00\n        /* \"Bones-of-Bitcoin/contracts/conditional/medium.sol\":276:281  units */\n      dup6\n        /* \"Bones-of-Bitcoin/contracts/conditional/medium.sol\":276:286  units == 0 */\n      sub\n        /* \"Bones-of-Bitcoin/contracts/conditional/medium.sol\":272:629  if (units == 0) {... */\n      tag_11\n      jumpi\n        /* \"Bones-of-Bitcoin/contracts/conditional/medium.sol\":314:315  0 */\n      0x00\n        /* \"Bones-of-Bitcoin/contracts/conditional/medium.sol\":303:315  totalcost= 0 */\n      swap2\n      pop\n        /* \"Bones-of-Bitcoin/contracts/conditional/medium.sol\":272:629  if (units == 0) {... */\n      jump(tag_12)\n    tag_11:\n        /* \"Bones-of-Bitcoin/contracts/conditional/medium.sol\":355:358  100 */\n      0x64\n        /* \"Bones-of-Bitcoin/contracts/conditional/medium.sol\":346:351  units */\n      dup6\n        /* \"Bones-of-Bitcoin/contracts/conditional/medium.sol\":346:358  units <= 100 */\n      gt\n        /* \"Bones-of-Bitcoin/contracts/conditional/medium.sol\":342:629  if (units <= 100) {... */\n      tag_13\n      jumpi\n        /* \"Bones-of-Bitcoin/contracts/conditional/medium.sol\":394:399  1 wei */\n      0x01\n        /* \"Bones-of-Bitcoin/contracts/conditional/medium.sol\":386:391  units */\n      dup6\n        /* \"Bones-of-Bitcoin/contracts/conditional/medium.sol\":386:399  units * 1 wei */\n      tag_14\n      swap2\n      swap1\n      tag_15\n      jump\t// in\n    tag_14:\n        /* \"Bones-of-Bitcoin/contracts/conditional/medium.sol\":375:399  totalcost= units * 1 wei */\n      swap2\n      pop\n        /* \"Bones-of-Bitcoin/contracts/conditional/medium.sol\":342:629  if (units <= 100) {... */\n      jump(tag_16)\n    tag_13:\n        /* \"Bones-of-Bitcoin/contracts/conditional/medium.sol\":439:442  300 */\n      0x012c\n        /* \"Bones-of-Bitcoin/contracts/conditional/medium.sol\":430:435  units */\n      dup6\n        /* \"Bones-of-Bitcoin/contracts/conditional/medium.sol\":430:442  units <= 300 */\n      gt\n        /* \"Bones-of-Bitcoin/contracts/conditional/medium.sol\":426:629  if (units <= 300) {... */\n      tag_17\n      jumpi\n        /* \"Bones-of-Bitcoin/contracts/conditional/medium.sol\":503:508  2 wei */\n      0x02\n        /* \"Bones-of-Bitcoin/contracts/conditional/medium.sol\":496:499  100 */\n      0x64\n        /* \"Bones-of-Bitcoin/contracts/conditional/medium.sol\":488:493  units */\n      dup7\n        /* \"Bones-of-Bitcoin/contracts/conditional/medium.sol\":488:499  units - 100 */\n      tag_18\n      swap2\n      swap1\n      tag_19\n      jump\t// in\n    tag_18:\n        /* \"Bones-of-Bitcoin/contracts/conditional/medium.sol\":487:508  (units - 100) * 2 wei */\n      tag_20\n      swap2\n      swap1\n      tag_15\n      jump\t// in\n    tag_20:\n        /* \"Bones-of-Bitcoin/contracts/conditional/medium.sol\":471:482  100 * 1 wei */\n      0x64\n        /* \"Bones-of-Bitcoin/contracts/conditional/medium.sol\":470:509  (100 * 1 wei) + ((units - 100) * 2 wei) */\n      tag_21\n      swap2\n      swap1\n      tag_22\n      jump\t// in\n    tag_21:\n        /* \"Bones-of-Bitcoin/contracts/conditional/medium.sol\":459:509  totalcost= (100 * 1 wei) + ((units - 100) * 2 wei) */\n      swap2\n      pop\n        /* \"Bones-of-Bitcoin/contracts/conditional/medium.sol\":426:629  if (units <= 300) {... */\n      jump(tag_23)\n    tag_17:\n        /* \"Bones-of-Bitcoin/contracts/conditional/medium.sol\":611:616  3 wei */\n      0x03\n        /* \"Bones-of-Bitcoin/contracts/conditional/medium.sol\":604:607  300 */\n      0x012c\n        /* \"Bones-of-Bitcoin/contracts/conditional/medium.sol\":596:601  units */\n      dup7\n        /* \"Bones-of-Bitcoin/contracts/conditional/medium.sol\":596:607  units - 300 */\n      tag_24\n      swap2\n      swap1\n      tag_19\n      jump\t// in\n    tag_24:\n        /* \"Bones-of-Bitcoin/contracts/conditional/medium.sol\":595:616  (units - 300) * 3 wei */\n      tag_25\n      swap2\n      swap1\n      tag_15\n      jump\t// in\n    tag_25:\n        /* \"Bones-of-Bitcoin/contracts/conditional/medium.sol\":562:591  (100 * 1 wei) + (200 * 2 wei) */\n      0x01f4\n        /* \"Bones-of-Bitcoin/contracts/conditional/medium.sol\":562:617  (100 * 1 wei) + (200 * 2 wei) + ((units - 300) * 3 wei) */\n      tag_26\n      swap2\n      swap1\n      tag_22\n      jump\t// in\n    tag_26:\n        /* \"Bones-of-Bitcoin/contracts/conditional/medium.sol\":551:617  totalcost= (100 * 1 wei) + (200 * 2 wei) + ((units - 300) * 3 wei) */\n      swap2\n      pop\n        /* \"Bones-of-Bitcoin/contracts/conditional/medium.sol\":426:629  if (units <= 300) {... */\n    tag_23:\n        /* \"Bones-of-Bitcoin/contracts/conditional/medium.sol\":342:629  if (units <= 100) {... */\n    tag_16:\n        /* \"Bones-of-Bitcoin/contracts/conditional/medium.sol\":272:629  if (units == 0) {... */\n    tag_12:\n        /* \"Bones-of-Bitcoin/contracts/conditional/medium.sol\":646:669  billCategory(totalcost) */\n      tag_27\n        /* \"Bones-of-Bitcoin/contracts/conditional/medium.sol\":659:668  totalcost */\n      dup3\n        /* \"Bones-of-Bitcoin/contracts/conditional/medium.sol\":646:658  billCategory */\n      tag_28\n        /* \"Bones-of-Bitcoin/contracts/conditional/medium.sol\":646:669  billCategory(totalcost) */\n      jump\t// in\n    tag_27:\n        /* \"Bones-of-Bitcoin/contracts/conditional/medium.sol\":639:669  usage= billCategory(totalcost) */\n      swap1\n      pop\n        /* \"Bones-of-Bitcoin/contracts/conditional/medium.sol\":688:697  totalcost */\n      dup2\n        /* \"Bones-of-Bitcoin/contracts/conditional/medium.sol\":698:703  usage */\n      dup2\n        /* \"Bones-of-Bitcoin/contracts/conditional/medium.sol\":680:704  return (totalcost,usage) */\n      swap4\n      pop\n      swap4\n      pop\n      pop\n      pop\n        /* \"Bones-of-Bitcoin/contracts/conditional/medium.sol\":113:712  function calculateBill(uint units) public pure returns (uint totalCost, string memory Usage) {... */\n      swap2\n      pop\n      swap2\n      jump\t// out\n        /* \"Bones-of-Bitcoin/contracts/conditional/medium.sol\":720:1118  function billCategory(uint totalCost) internal pure returns (string memory usage) {... */\n    tag_28:\n        /* \"Bones-of-Bitcoin/contracts/conditional/medium.sol\":781:800  string memory usage */\n      0x60\n        /* \"Bones-of-Bitcoin/contracts/conditional/medium.sol\":830:831  0 */\n      0x00\n        /* \"Bones-of-Bitcoin/contracts/conditional/medium.sol\":817:826  totalCost */\n      dup3\n        /* \"Bones-of-Bitcoin/contracts/conditional/medium.sol\":817:831  totalCost == 0 */\n      sub\n        /* \"Bones-of-Bitcoin/contracts/conditional/medium.sol\":813:1111  if (totalCost == 0) {... */\n      tag_30\n      jumpi\n        /* \"Bones-of-Bitcoin/contracts/conditional/medium.sol\":848:865  return \"No Usage\" */\n      mload(0x40)\n      dup1\n      0x40\n      add\n      0x40\n      mstore\n      dup1\n      0x08\n      dup2\n      mstore\n      0x20\n      add\n      0x4e6f205573616765000000000000000000000000000000000000000000000000\n      dup2\n      mstore\n      pop\n      swap1\n      pop\n      jump(tag_29)\n        /* \"Bones-of-Bitcoin/contracts/conditional/medium.sol\":813:1111  if (totalCost == 0) {... */\n    tag_30:\n        /* \"Bones-of-Bitcoin/contracts/conditional/medium.sol\":908:915  200 wei */\n      0xc8\n        /* \"Bones-of-Bitcoin/contracts/conditional/medium.sol\":896:905  totalCost */\n      dup3\n        /* \"Bones-of-Bitcoin/contracts/conditional/medium.sol\":896:915  totalCost < 200 wei */\n      lt\n        /* \"Bones-of-Bitcoin/contracts/conditional/medium.sol\":892:1111  if (totalCost < 200 wei) {... */\n      iszero\n      tag_32\n      jumpi\n        /* \"Bones-of-Bitcoin/contracts/conditional/medium.sol\":932:950  return \"Low Usage\" */\n      mload(0x40)\n      dup1\n      0x40\n      add\n      0x40\n      mstore\n      dup1\n      0x09\n      dup2\n      mstore\n      0x20\n      add\n      0x4c6f772055736167650000000000000000000000000000000000000000000000\n      dup2\n      mstore\n      pop\n      swap1\n      pop\n      jump(tag_29)\n        /* \"Bones-of-Bitcoin/contracts/conditional/medium.sol\":892:1111  if (totalCost < 200 wei) {... */\n    tag_32:\n        /* \"Bones-of-Bitcoin/contracts/conditional/medium.sol\":993:1000  600 wei */\n      0x0258\n        /* \"Bones-of-Bitcoin/contracts/conditional/medium.sol\":981:990  totalCost */\n      dup3\n        /* \"Bones-of-Bitcoin/contracts/conditional/medium.sol\":981:1000  totalCost < 600 wei */\n      lt\n        /* \"Bones-of-Bitcoin/contracts/conditional/medium.sol\":977:1111  if (totalCost < 600 wei) {... */\n      iszero\n      tag_34\n      jumpi\n        /* \"Bones-of-Bitcoin/contracts/conditional/medium.sol\":1017:1038  return \"Medium Usage\" */\n      mload(0x40)\n      dup1\n      0x40\n      add\n      0x40\n      mstore\n      dup1\n      0x0c\n      dup2\n      mstore\n      0x20\n      add\n      0x4d656469756d2055736167650000000000000000000000000000000000000000\n      dup2\n      mstore\n      pop\n      swap1\n      pop\n      jump(tag_29)\n        /* \"Bones-of-Bitcoin/contracts/conditional/medium.sol\":977:1111  if (totalCost < 600 wei) {... */\n    tag_34:\n        /* \"Bones-of-Bitcoin/contracts/conditional/medium.sol\":1080:1099  return \"High Usage\" */\n      mload(0x40)\n      dup1\n      0x40\n      add\n      0x40\n      mstore\n      dup1\n      0x0a\n      dup2\n      mstore\n      0x20\n      add\n      0x4869676820557361676500000000000000000000000000000000000000000000\n      dup2\n      mstore\n      pop\n      swap1\n      pop\n        /* \"Bones-of-Bitcoin/contracts/conditional/medium.sol\":720:1118  function billCategory(uint totalCost) internal pure returns (string memory usage) {... */\n    tag_29:\n      swap2\n      swap1\n      pop\n      jump\t// out\n        /* \"#utility.yul\":88:205   */\n    tag_37:\n        /* \"#utility.yul\":197:198   */\n      0x00\n        /* \"#utility.yul\":194:195   */\n      0x00\n        /* \"#utility.yul\":187:199   */\n      revert\n        /* \"#utility.yul\":334:411   */\n    tag_39:\n        /* \"#utility.yul\":371:378   */\n      0x00\n        /* \"#utility.yul\":400:405   */\n      dup2\n        /* \"#utility.yul\":389:405   */\n      swap1\n      pop\n        /* \"#utility.yul\":334:411   */\n      swap2\n      swap1\n      pop\n      jump\t// out\n        /* \"#utility.yul\":417:539   */\n    tag_40:\n        /* \"#utility.yul\":490:514   */\n      tag_55\n        /* \"#utility.yul\":508:513   */\n      dup2\n        /* \"#utility.yul\":490:514   */\n      tag_39\n      jump\t// in\n    tag_55:\n        /* \"#utility.yul\":483:488   */\n      dup2\n        /* \"#utility.yul\":480:515   */\n      eq\n        /* \"#utility.yul\":470:533   */\n      tag_56\n      jumpi\n        /* \"#utility.yul\":529:530   */\n      0x00\n        /* \"#utility.yul\":526:527   */\n      0x00\n        /* \"#utility.yul\":519:531   */\n      revert\n        /* \"#utility.yul\":470:533   */\n    tag_56:\n        /* \"#utility.yul\":417:539   */\n      pop\n      jump\t// out\n        /* \"#utility.yul\":545:684   */\n    tag_41:\n        /* \"#utility.yul\":591:596   */\n      0x00\n        /* \"#utility.yul\":629:635   */\n      dup2\n        /* \"#utility.yul\":616:636   */\n      calldataload\n        /* \"#utility.yul\":607:636   */\n      swap1\n      pop\n        /* \"#utility.yul\":645:678   */\n      tag_58\n        /* \"#utility.yul\":672:677   */\n      dup2\n        /* \"#utility.yul\":645:678   */\n      tag_40\n      jump\t// in\n    tag_58:\n        /* \"#utility.yul\":545:684   */\n      swap3\n      swap2\n      pop\n      pop\n      jump\t// out\n        /* \"#utility.yul\":690:1019   */\n    tag_6:\n        /* \"#utility.yul\":749:755   */\n      0x00\n        /* \"#utility.yul\":798:800   */\n      0x20\n        /* \"#utility.yul\":786:795   */\n      dup3\n        /* \"#utility.yul\":777:784   */\n      dup5\n        /* \"#utility.yul\":773:796   */\n      sub\n        /* \"#utility.yul\":769:801   */\n      slt\n        /* \"#utility.yul\":766:885   */\n      iszero\n      tag_60\n      jumpi\n        /* \"#utility.yul\":804:883   */\n      tag_61\n      tag_37\n      jump\t// in\n    tag_61:\n        /* \"#utility.yul\":766:885   */\n    tag_60:\n        /* \"#utility.yul\":924:925   */\n      0x00\n        /* \"#utility.yul\":949:1002   */\n      tag_62\n        /* \"#utility.yul\":994:1001   */\n      dup5\n        /* \"#utility.yul\":985:991   */\n      dup3\n        /* \"#utility.yul\":974:983   */\n      dup6\n        /* \"#utility.yul\":970:992   */\n      add\n        /* \"#utility.yul\":949:1002   */\n      tag_41\n      jump\t// in\n    tag_62:\n        /* \"#utility.yul\":939:1002   */\n      swap2\n      pop\n        /* \"#utility.yul\":895:1012   */\n      pop\n        /* \"#utility.yul\":690:1019   */\n      swap3\n      swap2\n      pop\n      pop\n      jump\t// out\n        /* \"#utility.yul\":1025:1143   */\n    tag_42:\n        /* \"#utility.yul\":1112:1136   */\n      tag_64\n        /* \"#utility.yul\":1130:1135   */\n      dup2\n        /* \"#utility.yul\":1112:1136   */\n      tag_39\n      jump\t// in\n    tag_64:\n        /* \"#utility.yul\":1107:1110   */\n      dup3\n        /* \"#utility.yul\":1100:1137   */\n      mstore\n        /* \"#utility.yul\":1025:1143   */\n      pop\n      pop\n      jump\t// out\n        /* \"#utility.yul\":1149:1248   */\n    tag_43:\n        /* \"#utility.yul\":1201:1207   */\n      0x00\n        /* \"#utility.yul\":1235:1240   */\n      dup2\n        /* \"#utility.yul\":1229:1241   */\n      mload\n        /* \"#utility.yul\":1219:1241   */\n      swap1\n      pop\n        /* \"#utility.yul\":1149:1248   */\n      swap2\n      swap1\n      pop\n      jump\t// out\n        /* \"#utility.yul\":1254:1423   */\n    tag_44:\n        /* \"#utility.yul\":1338:1349   */\n      0x00\n        /* \"#utility.yul\":1372:1378   */\n      dup3\n        /* \"#utility.yul\":1367:1370   */\n      dup3\n        /* \"#utility.yul\":1360:1379   */\n      mstore\n        /* \"#utility.yul\":1412:1416   */\n      0x20\n        /* \"#utility.yul\":1407:1410   */\n      dup3\n        /* \"#utility.yul\":1403:1417   */\n      add\n        /* \"#utility.yul\":1388:1417   */\n      swap1\n      pop\n        /* \"#utility.yul\":1254:1423   */\n      swap3\n      swap2\n      pop\n      pop\n      jump\t// out\n        /* \"#utility.yul\":1429:1568   */\n    tag_45:\n        /* \"#utility.yul\":1518:1524   */\n      dup3\n        /* \"#utility.yul\":1513:1516   */\n      dup2\n        /* \"#utility.yul\":1508:1511   */\n      dup4\n        /* \"#utility.yul\":1502:1525   */\n      mcopy\n        /* \"#utility.yul\":1559:1560   */\n      0x00\n        /* \"#utility.yul\":1550:1556   */\n      dup4\n        /* \"#utility.yul\":1545:1548   */\n      dup4\n        /* \"#utility.yul\":1541:1557   */\n      add\n        /* \"#utility.yul\":1534:1561   */\n      mstore\n        /* \"#utility.yul\":1429:1568   */\n      pop\n      pop\n      pop\n      jump\t// out\n        /* \"#utility.yul\":1574:1676   */\n    tag_46:\n        /* \"#utility.yul\":1615:1621   */\n      0x00\n        /* \"#utility.yul\":1666:1668   */\n      0x1f\n        /* \"#utility.yul\":1662:1669   */\n      not\n        /* \"#utility.yul\":1657:1659   */\n      0x1f\n        /* \"#utility.yul\":1650:1655   */\n      dup4\n        /* \"#utility.yul\":1646:1660   */\n      add\n        /* \"#utility.yul\":1642:1670   */\n      and\n        /* \"#utility.yul\":1632:1670   */\n      swap1\n      pop\n        /* \"#utility.yul\":1574:1676   */\n      swap2\n      swap1\n      pop\n      jump\t// out\n        /* \"#utility.yul\":1682:2059   */\n    tag_47:\n        /* \"#utility.yul\":1770:1773   */\n      0x00\n        /* \"#utility.yul\":1798:1837   */\n      tag_70\n        /* \"#utility.yul\":1831:1836   */\n      dup3\n        /* \"#utility.yul\":1798:1837   */\n      tag_43\n      jump\t// in\n    tag_70:\n        /* \"#utility.yul\":1853:1924   */\n      tag_71\n        /* \"#utility.yul\":1917:1923   */\n      dup2\n        /* \"#utility.yul\":1912:1915   */\n      dup6\n        /* \"#utility.yul\":1853:1924   */\n      tag_44\n      jump\t// in\n    tag_71:\n        /* \"#utility.yul\":1846:1924   */\n      swap4\n      pop\n        /* \"#utility.yul\":1933:1998   */\n      tag_72\n        /* \"#utility.yul\":1991:1997   */\n      dup2\n        /* \"#utility.yul\":1986:1989   */\n      dup6\n        /* \"#utility.yul\":1979:1983   */\n      0x20\n        /* \"#utility.yul\":1972:1977   */\n      dup7\n        /* \"#utility.yul\":1968:1984   */\n      add\n        /* \"#utility.yul\":1933:1998   */\n      tag_45\n      jump\t// in\n    tag_72:\n        /* \"#utility.yul\":2023:2052   */\n      tag_73\n        /* \"#utility.yul\":2045:2051   */\n      dup2\n        /* \"#utility.yul\":2023:2052   */\n      tag_46\n      jump\t// in\n    tag_73:\n        /* \"#utility.yul\":2018:2021   */\n      dup5\n        /* \"#utility.yul\":2014:2053   */\n      add\n        /* \"#utility.yul\":2007:2053   */\n      swap2\n      pop\n        /* \"#utility.yul\":1774:2059   */\n      pop\n        /* \"#utility.yul\":1682:2059   */\n      swap3\n      swap2\n      pop\n      pop\n      jump\t// out\n        /* \"#utility.yul\":2065:2488   */\n    tag_9:\n        /* \"#utility.yul\":2206:2210   */\n      0x00\n        /* \"#utility.yul\":2244:2246   */\n      0x40\n        /* \"#utility.yul\":2233:2242   */\n      dup3\n        /* \"#utility.yul\":2229:2247   */\n      add\n        /* \"#utility.yul\":2221:2247   */\n      swap1\n      pop\n        /* \"#utility.yul\":2257:2328   */\n      tag_75\n        /* \"#utility.yul\":2325:2326   */\n      0x00\n        /* \"#utility.yul\":2314:2323   */\n      dup4\n        /* \"#utility.yul\":2310:2327   */\n      add\n        /* \"#utility.yul\":2301:2307   */\n      dup6\n        /* \"#utility.yul\":2257:2328   */\n      tag_42\n      jump\t// in\n    tag_75:\n        /* \"#utility.yul\":2375:2384   */\n      dup2\n        /* \"#utility.yul\":2369:2373   */\n      dup2\n        /* \"#utility.yul\":2365:2385   */\n      sub\n        /* \"#utility.yul\":2360:2362   */\n      0x20\n        /* \"#utility.yul\":2349:2358   */\n      dup4\n        /* \"#utility.yul\":2345:2363   */\n      add\n        /* \"#utility.yul\":2338:2386   */\n      mstore\n        /* \"#utility.yul\":2403:2481   */\n      tag_76\n        /* \"#utility.yul\":2476:2480   */\n      dup2\n        /* \"#utility.yul\":2467:2473   */\n      dup5\n        /* \"#utility.yul\":2403:2481   */\n      tag_47\n      jump\t// in\n    tag_76:\n        /* \"#utility.yul\":2395:2481   */\n      swap1\n      pop\n        /* \"#utility.yul\":2065:2488   */\n      swap4\n      swap3\n      pop\n      pop\n      pop\n      jump\t// out\n        /* \"#utility.yul\":2494:2674   */\n    tag_48:\n        /* \"#utility.yul\":2542:2619   */\n      0x4e487b7100000000000000000000000000000000000000000000000000000000\n        /* \"#utility.yul\":2539:2540   */\n      0x00\n        /* \"#utility.yul\":2532:2620   */\n      mstore\n        /* \"#utility.yul\":2639:2643   */\n      0x11\n        /* \"#utility.yul\":2636:2637   */\n      0x04\n        /* \"#utility.yul\":2629:2644   */\n      mstore\n        /* \"#utility.yul\":2663:2667   */\n      0x24\n        /* \"#utility.yul\":2660:2661   */\n      0x00\n        /* \"#utility.yul\":2653:2668   */\n      revert\n        /* \"#utility.yul\":2680:3090   */\n    tag_15:\n        /* \"#utility.yul\":2720:2727   */\n      0x00\n        /* \"#utility.yul\":2743:2763   */\n      tag_79\n        /* \"#utility.yul\":2761:2762   */\n      dup3\n        /* \"#utility.yul\":2743:2763   */\n      tag_39\n      jump\t// in\n    tag_79:\n        /* \"#utility.yul\":2738:2763   */\n      swap2\n      pop\n        /* \"#utility.yul\":2777:2797   */\n      tag_80\n        /* \"#utility.yul\":2795:2796   */\n      dup4\n        /* \"#utility.yul\":2777:2797   */\n      tag_39\n      jump\t// in\n    tag_80:\n        /* \"#utility.yul\":2772:2797   */\n      swap3\n      pop\n        /* \"#utility.yul\":2832:2833   */\n      dup3\n        /* \"#utility.yul\":2829:2830   */\n      dup3\n        /* \"#utility.yul\":2825:2834   */\n      mul\n        /* \"#utility.yul\":2854:2884   */\n      tag_81\n        /* \"#utility.yul\":2872:2883   */\n      dup2\n        /* \"#utility.yul\":2854:2884   */\n      tag_39\n      jump\t// in\n    tag_81:\n        /* \"#utility.yul\":2843:2884   */\n      swap2\n      pop\n        /* \"#utility.yul\":3033:3034   */\n      dup3\n        /* \"#utility.yul\":3024:3031   */\n      dup3\n        /* \"#utility.yul\":3020:3035   */\n      div\n        /* \"#utility.yul\":3017:3018   */\n      dup5\n        /* \"#utility.yul\":3014:3036   */\n      eq\n        /* \"#utility.yul\":2994:2995   */\n      dup4\n        /* \"#utility.yul\":2987:2996   */\n      iszero\n        /* \"#utility.yul\":2967:3050   */\n      or\n        /* \"#utility.yul\":2944:3083   */\n      tag_82\n      jumpi\n        /* \"#utility.yul\":3063:3081   */\n      tag_83\n      tag_48\n      jump\t// in\n    tag_83:\n        /* \"#utility.yul\":2944:3083   */\n    tag_82:\n        /* \"#utility.yul\":2728:3090   */\n      pop\n        /* \"#utility.yul\":2680:3090   */\n      swap3\n      swap2\n      pop\n      pop\n      jump\t// out\n        /* \"#utility.yul\":3096:3290   */\n    tag_19:\n        /* \"#utility.yul\":3136:3140   */\n      0x00\n        /* \"#utility.yul\":3156:3176   */\n      tag_85\n        /* \"#utility.yul\":3174:3175   */\n      dup3\n        /* \"#utility.yul\":3156:3176   */\n      tag_39\n      jump\t// in\n    tag_85:\n        /* \"#utility.yul\":3151:3176   */\n      swap2\n      pop\n        /* \"#utility.yul\":3190:3210   */\n      tag_86\n        /* \"#utility.yul\":3208:3209   */\n      dup4\n        /* \"#utility.yul\":3190:3210   */\n      tag_39\n      jump\t// in\n    tag_86:\n        /* \"#utility.yul\":3185:3210   */\n      swap3\n      pop\n        /* \"#utility.yul\":3234:3235   */\n      dup3\n        /* \"#utility.yul\":3231:3232   */\n      dup3\n        /* \"#utility.yul\":3227:3236   */\n      sub\n        /* \"#utility.yul\":3219:3236   */\n      swap1\n      pop\n        /* \"#utility.yul\":3258:3259   */\n      dup2\n        /* \"#utility.yul\":3252:3256   */\n      dup2\n        /* \"#utility.yul\":3249:3260   */\n      gt\n        /* \"#utility.yul\":3246:3283   */\n      iszero\n      tag_87\n      jumpi\n        /* \"#utility.yul\":3263:3281   */\n      tag_88\n      tag_48\n      jump\t// in\n    tag_88:\n        /* \"#utility.yul\":3246:3283   */\n    tag_87:\n        /* \"#utility.yul\":3096:3290   */\n      swap3\n      swap2\n      pop\n      pop\n      jump\t// out\n        /* \"#utility.yul\":3296:3487   */\n    tag_22:\n        /* \"#utility.yul\":3336:3339   */\n      0x00\n        /* \"#utility.yul\":3355:3375   */\n      tag_90\n        /* \"#utility.yul\":3373:3374   */\n      dup3\n        /* \"#utility.yul\":3355:3375   */\n      tag_39\n      jump\t// in\n    tag_90:\n        /* \"#utility.yul\":3350:3375   */\n      swap2\n      pop\n        /* \"#utility.yul\":3389:3409   */\n      tag_91\n        /* \"#utility.yul\":3407:3408   */\n      dup4\n        /* \"#utility.yul\":3389:3409   */\n      tag_39\n      jump\t// in\n    tag_91:\n        /* \"#utility.yul\":3384:3409   */\n      swap3\n      pop\n        /* \"#utility.yul\":3432:3433   */\n      dup3\n        /* \"#utility.yul\":3429:3430   */\n      dup3\n        /* \"#utility.yul\":3425:3434   */\n      add\n        /* \"#utility.yul\":3418:3434   */\n      swap1\n      pop\n        /* \"#utility.yul\":3453:3456   */\n      dup1\n        /* \"#utility.yul\":3450:3451   */\n      dup3\n        /* \"#utility.yul\":3447:3457   */\n      gt\n        /* \"#utility.yul\":3444:3480   */\n      iszero\n      tag_92\n      jumpi\n        /* \"#utility.yul\":3460:3478   */\n      tag_93\n      tag_48\n      jump\t// in\n    tag_93:\n        /* \"#utility.yul\":3444:3480   */\n    tag_92:\n        /* \"#utility.yul\":3296:3487   */\n      swap3\n      swap2\n      pop\n      pop\n      jump\t// out\n\n    auxdata: 0xa26469706673582212209878e0cb9b866c37370ac01b7dde7126917375e2d7a18bae0592620551f5703664736f6c634300081e0033\n}\n",
				"bytecode": {
					"linkReferences": {},
					"object": "6080604052348015600e575f5ffd5b506104328061001c5f395ff3fe608060405234801561000f575f5ffd5b5060043610610029575f3560e01c806320d8c7be1461002d575b5f5ffd5b61004760048036038101906100429190610250565b61005e565b6040516100559291906102fa565b60405180910390f35b5f60605f60605f8503610073575f91506100f0565b6064851161008f576001856100889190610355565b91506100ef565b61012c85116100c45760026064866100a79190610396565b6100b19190610355565b60646100bd91906103c9565b91506100ee565b600361012c866100d49190610396565b6100de9190610355565b6101f46100eb91906103c9565b91505b5b5b6100f982610108565b90508181935093505050915091565b60605f820361014e576040518060400160405280600881526020017f4e6f2055736167650000000000000000000000000000000000000000000000008152509050610214565b60c8821015610194576040518060400160405280600981526020017f4c6f7720557361676500000000000000000000000000000000000000000000008152509050610214565b6102588210156101db576040518060400160405280600c81526020017f4d656469756d20557361676500000000000000000000000000000000000000008152509050610214565b6040518060400160405280600a81526020017f486967682055736167650000000000000000000000000000000000000000000081525090505b919050565b5f5ffd5b5f819050919050565b61022f8161021d565b8114610239575f5ffd5b50565b5f8135905061024a81610226565b92915050565b5f6020828403121561026557610264610219565b5b5f6102728482850161023c565b91505092915050565b6102848161021d565b82525050565b5f81519050919050565b5f82825260208201905092915050565b8281835e5f83830152505050565b5f601f19601f8301169050919050565b5f6102cc8261028a565b6102d68185610294565b93506102e68185602086016102a4565b6102ef816102b2565b840191505092915050565b5f60408201905061030d5f83018561027b565b818103602083015261031f81846102c2565b90509392505050565b7f4e487b71000000000000000000000000000000000000000000000000000000005f52601160045260245ffd5b5f61035f8261021d565b915061036a8361021d565b92508282026103788161021d565b9150828204841483151761038f5761038e610328565b5b5092915050565b5f6103a08261021d565b91506103ab8361021d565b92508282039050818111156103c3576103c2610328565b5b92915050565b5f6103d38261021d565b91506103de8361021d565b92508282019050808211156103f6576103f5610328565b5b9291505056fea26469706673582212209878e0cb9b866c37370ac01b7dde7126917375e2d7a18bae0592620551f5703664736f6c634300081e0033",
					"opcodes": "PUSH1 0x80 PUSH1 0x40 MSTORE CALLVALUE DUP1 ISZERO PUSH1 0xE JUMPI PUSH0 PUSH0 REVERT JUMPDEST POP PUSH2 0x432 DUP1 PUSH2 0x1C PUSH0 CODECOPY PUSH0 RETURN INVALID PUSH1 0x80 PUSH1 0x40 MSTORE CALLVALUE DUP1 ISZERO PUSH2 0xF JUMPI PUSH0 PUSH0 REVERT JUMPDEST POP PUSH1 0x4 CALLDATASIZE LT PUSH2 0x29 JUMPI PUSH0 CALLDATALOAD PUSH1 0xE0 SHR DUP1 PUSH4 0x20D8C7BE EQ PUSH2 0x2D JUMPI JUMPDEST PUSH0 PUSH0 REVERT JUMPDEST PUSH2 0x47 PUSH1 0x4 DUP1 CALLDATASIZE SUB DUP2 ADD SWAP1 PUSH2 0x42 SWAP2 SWAP1 PUSH2 0x250 JUMP JUMPDEST PUSH2 0x5E JUMP JUMPDEST PUSH1 0x40 MLOAD PUSH2 0x55 SWAP3 SWAP2 SWAP1 PUSH2 0x2FA JUMP JUMPDEST PUSH1 0x40 MLOAD DUP1 SWAP2 SUB SWAP1 RETURN JUMPDEST PUSH0 PUSH1 0x60 PUSH0 PUSH1 0x60 PUSH0 DUP6 SUB PUSH2 0x73 JUMPI PUSH0 SWAP2 POP PUSH2 0xF0 JUMP JUMPDEST PUSH1 0x64 DUP6 GT PUSH2 0x8F JUMPI PUSH1 0x1 DUP6 PUSH2 0x88 SWAP2 SWAP1 PUSH2 0x355 JUMP JUMPDEST SWAP2 POP PUSH2 0xEF JUMP JUMPDEST PUSH2 0x12C DUP6 GT PUSH2 0xC4 JUMPI PUSH1 0x2 PUSH1 0x64 DUP7 PUSH2 0xA7 SWAP2 SWAP1 PUSH2 0x396 JUMP JUMPDEST PUSH2 0xB1 SWAP2 SWAP1 PUSH2 0x355 JUMP JUMPDEST PUSH1 0x64 PUSH2 0xBD SWAP2 SWAP1 PUSH2 0x3C9 JUMP JUMPDEST SWAP2 POP PUSH2 0xEE JUMP JUMPDEST PUSH1 0x3 PUSH2 0x12C DUP7 PUSH2 0xD4 SWAP2 SWAP1 PUSH2 0x396 JUMP JUMPDEST PUSH2 0xDE SWAP2 SWAP1 PUSH2 0x355 JUMP JUMPDEST PUSH2 0x1F4 PUSH2 0xEB SWAP2 SWAP1 PUSH2 0x3C9 JUMP JUMPDEST SWAP2 POP JUMPDEST JUMPDEST JUMPDEST PUSH2 0xF9 DUP3 PUSH2 0x108 JUMP JUMPDEST SWAP1 POP DUP2 DUP2 SWAP4 POP SWAP4 POP POP POP SWAP2 POP SWAP2 JUMP JUMPDEST PUSH1 0x60 PUSH0 DUP3 SUB PUSH2 0x14E JUMPI PUSH1 0x40 MLOAD DUP1 PUSH1 0x40 ADD PUSH1 0x40 MSTORE DUP1 PUSH1 0x8 DUP2 MSTORE PUSH1 0x20 ADD PUSH32 0x4E6F205573616765000000000000000000000000000000000000000000000000 DUP2 MSTORE POP SWAP1 POP PUSH2 0x214 JUMP JUMPDEST PUSH1 0xC8 DUP3 LT ISZERO PUSH2 0x194 JUMPI PUSH1 0x40 MLOAD DUP1 PUSH1 0x40 ADD PUSH1 0x40 MSTORE DUP1 PUSH1 0x9 DUP2 MSTORE PUSH1 0x20 ADD PUSH32 0x4C6F772055736167650000000000000000000000000000000000000000000000 DUP2 MSTORE POP SWAP1 POP PUSH2 0x214 JUMP JUMPDEST PUSH2 0x258 DUP3 LT ISZERO PUSH2 0x1DB JUMPI PUSH1 0x40 MLOAD DUP1 PUSH1 0x40 ADD PUSH1 0x40 MSTORE DUP1 PUSH1 0xC DUP2 MSTORE PUSH1 0x20 ADD PUSH32 0x4D656469756D2055736167650000000000000000000000000000000000000000 DUP2 MSTORE POP SWAP1 POP PUSH2 0x214 JUMP JUMPDEST PUSH1 0x40 MLOAD DUP1 PUSH1 0x40 ADD PUSH1 0x40 MSTORE DUP1 PUSH1 0xA DUP2 MSTORE PUSH1 0x20 ADD PUSH32 0x4869676820557361676500000000000000000000000000000000000000000000 DUP2 MSTORE POP SWAP1 POP JUMPDEST SWAP2 SWAP1 POP JUMP JUMPDEST PUSH0 PUSH0 REVERT JUMPDEST PUSH0 DUP2 SWAP1 POP SWAP2 SWAP1 POP JUMP JUMPDEST PUSH2 0x22F DUP2 PUSH2 0x21D JUMP JUMPDEST DUP2 EQ PUSH2 0x239 JUMPI PUSH0 PUSH0 REVERT JUMPDEST POP JUMP JUMPDEST PUSH0 DUP2 CALLDATALOAD SWAP1 POP PUSH2 0x24A DUP2 PUSH2 0x226 JUMP JUMPDEST SWAP3 SWAP2 POP POP JUMP JUMPDEST PUSH0 PUSH1 0x20 DUP3 DUP5 SUB SLT ISZERO PUSH2 0x265 JUMPI PUSH2 0x264 PUSH2 0x219 JUMP JUMPDEST JUMPDEST PUSH0 PUSH2 0x272 DUP5 DUP3 DUP6 ADD PUSH2 0x23C JUMP JUMPDEST SWAP2 POP POP SWAP3 SWAP2 POP POP JUMP JUMPDEST PUSH2 0x284 DUP2 PUSH2 0x21D JUMP JUMPDEST DUP3 MSTORE POP POP JUMP JUMPDEST PUSH0 DUP2 MLOAD SWAP1 POP SWAP2 SWAP1 POP JUMP JUMPDEST PUSH0 DUP3 DUP3 MSTORE PUSH1 0x20 DUP3 ADD SWAP1 POP SWAP3 SWAP2 POP POP JUMP JUMPDEST DUP3 DUP2 DUP4 MCOPY PUSH0 DUP4 DUP4 ADD MSTORE POP POP POP JUMP JUMPDEST PUSH0 PUSH1 0x1F NOT PUSH1 0x1F DUP4 ADD AND SWAP1 POP SWAP2 SWAP1 POP JUMP JUMPDEST PUSH0 PUSH2 0x2CC DUP3 PUSH2 0x28A JUMP JUMPDEST PUSH2 0x2D6 DUP2 DUP6 PUSH2 0x294 JUMP JUMPDEST SWAP4 POP PUSH2 0x2E6 DUP2 DUP6 PUSH1 0x20 DUP7 ADD PUSH2 0x2A4 JUMP JUMPDEST PUSH2 0x2EF DUP2 PUSH2 0x2B2 JUMP JUMPDEST DUP5 ADD SWAP2 POP POP SWAP3 SWAP2 POP POP JUMP JUMPDEST PUSH0 PUSH1 0x40 DUP3 ADD SWAP1 POP PUSH2 0x30D PUSH0 DUP4 ADD DUP6 PUSH2 0x27B JUMP JUMPDEST DUP2 DUP2 SUB PUSH1 0x20 DUP4 ADD MSTORE PUSH2 0x31F DUP2 DUP5 PUSH2 0x2C2 JUMP JUMPDEST SWAP1 POP SWAP4 SWAP3 POP POP POP JUMP JUMPDEST PUSH32 0x4E487B7100000000000000000000000000000000000000000000000000000000 PUSH0 MSTORE PUSH1 0x11 PUSH1 0x4 MSTORE PUSH1 0x24 PUSH0 REVERT JUMPDEST PUSH0 PUSH2 0x35F DUP3 PUSH2 0x21D JUMP JUMPDEST SWAP2 POP PUSH2 0x36A DUP4 PUSH2 0x21D JUMP JUMPDEST SWAP3 POP DUP3 DUP3 MUL PUSH2 0x378 DUP2 PUSH2 0x21D JUMP JUMPDEST SWAP2 POP DUP3 DUP3 DIV DUP5 EQ DUP4 ISZERO OR PUSH2 0x38F JUMPI PUSH2 0x38E PUSH2 0x328 JUMP JUMPDEST JUMPDEST POP SWAP3 SWAP2 POP POP JUMP JUMPDEST PUSH0 PUSH2 0x3A0 DUP3 PUSH2 0x21D JUMP JUMPDEST SWAP2 POP PUSH2 0x3AB DUP4 PUSH2 0x21D JUMP JUMPDEST SWAP3 POP DUP3 DUP3 SUB SWAP1 POP DUP2 DUP2 GT ISZERO PUSH2 0x3C3 JUMPI PUSH2 0x3C2 PUSH2 0x328 JUMP JUMPDEST JUMPDEST SWAP3 SWAP2 POP POP JUMP JUMPDEST PUSH0 PUSH2 0x3D3 DUP3 PUSH2 0x21D JUMP JUMPDEST SWAP2 POP PUSH2 0x3DE DUP4 PUSH2 0x21D JUMP JUMPDEST SWAP3 POP DUP3 DUP3 ADD SWAP1 POP DUP1 DUP3 GT ISZERO PUSH2 0x3F6 JUMPI PUSH2 0x3F5 PUSH2 0x328 JUMP JUMPDEST JUMPDEST SWAP3 SWAP2 POP POP JUMP INVALID LOG2 PUSH5 0x6970667358 0x22 SLT KECCAK256 SWAP9 PUSH25 0xE0CB9B866C37370AC01B7DDE7126917375E2D7A18BAE059262 SDIV MLOAD CREATE2 PUSH17 0x3664736F6C634300081E00330000000000 "
				},
				"gasEstimates": {
					"creation": {
						"codeDepositCost": "214800",
						"executionCost": "255",
						"totalCost": "215055"
					},
					"external": {
						"calculateBill(uint256)": "infinite"
					},
					"internal": {
						"billCategory(uint256)": "infinite"
					}
				},
				"methodIdentifiers": {
					"calculateBill(uint256)": "20d8c7be"
				}
			},
			"storageLayout": {
				"storage": [],
				"types": null
			},
			"userdoc": {
				"kind": "user",
				"methods": {},
				"version": 1
			}
		}
	}
}