{
	"Bones-of-Bitcoin/contracts/booleanToggle.sol": {
		"toggle": {
			"abi": [
				{
					"inputs": [],
					"name": "locked",
					"outputs": [
						{
							"internalType": "bool",
							"name": "",
							"type": "bool"
						}
					],
					"stateMutability": "view",
					"type": "function"
				},
				{
					"inputs": [],
					"name": "toggleLock",
					"outputs": [],
					"stateMutability": "nonpayable",
					"type": "function"
				}
			],
			"devdoc": {
				"kind": "dev",
				"methods": {},
				"version": 1
			},
			"evm": {
				"assembly": "    /* \"Bones-of-Bitcoin/contracts/booleanToggle.sol\":61:190  contract toggle{... */\n  mstore(0x40, 0x80)\n    /* \"Bones-of-Bitcoin/contracts/booleanToggle.sol\":104:108  true */\n  0x01\n    /* \"Bones-of-Bitcoin/contracts/booleanToggle.sol\":83:108  bool public locked = true */\n  0x00\n  exp(0x0100, 0x00)\n  dup2\n  sload\n  dup2\n  0xff\n  mul\n  not\n  and\n  swap1\n  dup4\n  iszero\n  iszero\n  mul\n  or\n  swap1\n  sstore\n  pop\n    /* \"Bones-of-Bitcoin/contracts/booleanToggle.sol\":61:190  contract toggle{... */\n  callvalue\n  dup1\n  iszero\n  tag_1\n  jumpi\n  revert(0x00, 0x00)\ntag_1:\n  pop\n  dataSize(sub_0)\n  dup1\n  dataOffset(sub_0)\n  0x00\n  codecopy\n  0x00\n  return\nstop\n\nsub_0: assembly {\n        /* \"Bones-of-Bitcoin/contracts/booleanToggle.sol\":61:190  contract toggle{... */\n      mstore(0x40, 0x80)\n      callvalue\n      dup1\n      iszero\n      tag_1\n      jumpi\n      revert(0x00, 0x00)\n    tag_1:\n      pop\n      jumpi(tag_2, lt(calldatasize, 0x04))\n      shr(0xe0, calldataload(0x00))\n      dup1\n      0xcf309012\n      eq\n      tag_3\n      jumpi\n      dup1\n      0xff9413d8\n      eq\n      tag_4\n      jumpi\n    tag_2:\n      revert(0x00, 0x00)\n        /* \"Bones-of-Bitcoin/contracts/booleanToggle.sol\":83:108  bool public locked = true */\n    tag_3:\n      tag_5\n      tag_6\n      jump\t// in\n    tag_5:\n      mload(0x40)\n      tag_7\n      swap2\n      swap1\n      tag_8\n      jump\t// in\n    tag_7:\n      mload(0x40)\n      dup1\n      swap2\n      sub\n      swap1\n      return\n        /* \"Bones-of-Bitcoin/contracts/booleanToggle.sol\":122:187  function toggleLock() public {... */\n    tag_4:\n      tag_9\n      tag_10\n      jump\t// in\n    tag_9:\n      stop\n        /* \"Bones-of-Bitcoin/contracts/booleanToggle.sol\":83:108  bool public locked = true */\n    tag_6:\n      0x00\n      0x00\n      swap1\n      sload\n      swap1\n      0x0100\n      exp\n      swap1\n      div\n      0xff\n      and\n      dup2\n      jump\t// out\n        /* \"Bones-of-Bitcoin/contracts/booleanToggle.sol\":122:187  function toggleLock() public {... */\n    tag_10:\n        /* \"Bones-of-Bitcoin/contracts/booleanToggle.sol\":172:178  locked */\n      0x00\n      0x00\n      swap1\n      sload\n      swap1\n      0x0100\n      exp\n      swap1\n      div\n      0xff\n      and\n        /* \"Bones-of-Bitcoin/contracts/booleanToggle.sol\":171:178  !locked */\n      iszero\n        /* \"Bones-of-Bitcoin/contracts/booleanToggle.sol\":162:168  locked */\n      0x00\n      0x00\n        /* \"Bones-of-Bitcoin/contracts/booleanToggle.sol\":162:178  locked = !locked */\n      0x0100\n      exp\n      dup2\n      sload\n      dup2\n      0xff\n      mul\n      not\n      and\n      swap1\n      dup4\n      iszero\n      iszero\n      mul\n      or\n      swap1\n      sstore\n      pop\n        /* \"Bones-of-Bitcoin/contracts/booleanToggle.sol\":122:187  function toggleLock() public {... */\n      jump\t// out\n        /* \"#utility.yul\":7:97   */\n    tag_12:\n        /* \"#utility.yul\":41:48   */\n      0x00\n        /* \"#utility.yul\":84:89   */\n      dup2\n        /* \"#utility.yul\":77:90   */\n      iszero\n        /* \"#utility.yul\":70:91   */\n      iszero\n        /* \"#utility.yul\":59:91   */\n      swap1\n      pop\n        /* \"#utility.yul\":7:97   */\n      swap2\n      swap1\n      pop\n      jump\t// out\n        /* \"#utility.yul\":103:212   */\n    tag_13:\n        /* \"#utility.yul\":184:205   */\n      tag_17\n        /* \"#utility.yul\":199:204   */\n      dup2\n        /* \"#utility.yul\":184:205   */\n      tag_12\n      jump\t// in\n    tag_17:\n        /* \"#utility.yul\":179:182   */\n      dup3\n        /* \"#utility.yul\":172:206   */\n      mstore\n        /* \"#utility.yul\":103:212   */\n      pop\n      pop\n      jump\t// out\n        /* \"#utility.yul\":218:428   */\n    tag_8:\n        /* \"#utility.yul\":305:309   */\n      0x00\n        /* \"#utility.yul\":343:345   */\n      0x20\n        /* \"#utility.yul\":332:341   */\n      dup3\n        /* \"#utility.yul\":328:346   */\n      add\n        /* \"#utility.yul\":320:346   */\n      swap1\n      pop\n        /* \"#utility.yul\":356:421   */\n      tag_19\n        /* \"#utility.yul\":418:419   */\n      0x00\n        /* \"#utility.yul\":407:416   */\n      dup4\n        /* \"#utility.yul\":403:420   */\n      add\n        /* \"#utility.yul\":394:400   */\n      dup5\n        /* \"#utility.yul\":356:421   */\n      tag_13\n      jump\t// in\n    tag_19:\n        /* \"#utility.yul\":218:428   */\n      swap3\n      swap2\n      pop\n      pop\n      jump\t// out\n\n    auxdata: 0xa2646970667358221220a50983c3b2d9fb817f913d952ae01d213aefb3e544b03d08106ade0bc15be58c64736f6c634300081e0033\n}\n",
				"bytecode": {
					"linkReferences": {},
					"object": "608060405260015f5f6101000a81548160ff0219169083151502179055503480156027575f5ffd5b5060f4806100345f395ff3fe6080604052348015600e575f5ffd5b50600436106030575f3560e01c8063cf309012146034578063ff9413d814604e575b5f5ffd5b603a6056565b6040516045919060a7565b60405180910390f35b60546067565b005b5f5f9054906101000a900460ff1681565b5f5f9054906101000a900460ff16155f5f6101000a81548160ff021916908315150217905550565b5f8115159050919050565b60a181608f565b82525050565b5f60208201905060b85f830184609a565b9291505056fea2646970667358221220a50983c3b2d9fb817f913d952ae01d213aefb3e544b03d08106ade0bc15be58c64736f6c634300081e0033",
					"opcodes": "PUSH1 0x80 PUSH1 0x40 MSTORE PUSH1 0x1 PUSH0 PUSH0 PUSH2 0x100 EXP DUP2 SLOAD DUP2 PUSH1 0xFF MUL NOT AND SWAP1 DUP4 ISZERO ISZERO MUL OR SWAP1 SSTORE POP CALLVALUE DUP1 ISZERO PUSH1 0x27 JUMPI PUSH0 PUSH0 REVERT JUMPDEST POP PUSH1 0xF4 DUP1 PUSH2 0x34 PUSH0 CODECOPY PUSH0 RETURN INVALID PUSH1 0x80 PUSH1 0x40 MSTORE CALLVALUE DUP1 ISZERO PUSH1 0xE JUMPI PUSH0 PUSH0 REVERT JUMPDEST POP PUSH1 0x4 CALLDATASIZE LT PUSH1 0x30 JUMPI PUSH0 CALLDATALOAD PUSH1 0xE0 SHR DUP1 PUSH4 0xCF309012 EQ PUSH1 0x34 JUMPI DUP1 PUSH4 0xFF9413D8 EQ PUSH1 0x4E JUMPI JUMPDEST PUSH0 PUSH0 REVERT JUMPDEST PUSH1 0x3A PUSH1 0x56 JUMP JUMPDEST PUSH1 0x40 MLOAD PUSH1 0x45 SWAP2 SWAP1 PUSH1 0xA7 JUMP JUMPDEST PUSH1 0x40 MLOAD DUP1 SWAP2 SUB SWAP1 RETURN JUMPDEST PUSH1 0x54 PUSH1 0x67 JUMP JUMPDEST STOP JUMPDEST PUSH0 PUSH0 SWAP1 SLOAD SWAP1 PUSH2 0x100 EXP SWAP1 DIV PUSH1 0xFF AND DUP2 JUMP JUMPDEST PUSH0 PUSH0 SWAP1 SLOAD SWAP1 PUSH2 0x100 EXP SWAP1 DIV PUSH1 0xFF AND ISZERO PUSH0 PUSH0 PUSH2 0x100 EXP DUP2 SLOAD DUP2 PUSH1 0xFF MUL NOT AND SWAP1 DUP4 ISZERO ISZERO MUL OR SWAP1 SSTORE POP JUMP JUMPDEST PUSH0 DUP2 ISZERO ISZERO SWAP1 POP SWAP2 SWAP1 POP JUMP JUMPDEST PUSH1 0xA1 DUP2 PUSH1 0x8F JUMP JUMPDEST DUP3 MSTORE POP POP JUMP JUMPDEST PUSH0 PUSH1 0x20 DUP3 ADD SWAP1 POP PUSH1 0xB8 PUSH0 DUP4 ADD DUP5 PUSH1 0x9A JUMP JUMPDEST SWAP3 SWAP2 POP POP JUMP INVALID LOG2 PUSH5 0x6970667358 0x22 SLT KECCAK256 0xA5 MULMOD DUP4 0xC3 0xB2 0xD9 EXTSTATICCALL DUP2 PUSH32 0x913D952AE01D213AEFB3E544B03D08106ADE0BC15BE58C64736F6C634300081E STOP CALLER "
				},
				"gasEstimates": {
					"creation": {
						"codeDepositCost": "48800",
						"executionCost": "24362",
						"totalCost": "73162"
					},
					"external": {
						"locked()": "2443",
						"toggleLock()": "26545"
					}
				},
				"methodIdentifiers": {
					"locked()": "cf309012",
					"toggleLock()": "ff9413d8"
				}
			},
			"storageLayout": {
				"storage": [
					{
						"astId": 4,
						"contract": "Bones-of-Bitcoin/contracts/booleanToggle.sol:toggle",
						"label": "locked",
						"offset": 0,
						"slot": "0",
						"type": "t_bool"
					}
				],
				"types": {
					"t_bool": {
						"encoding": "inplace",
						"label": "bool",
						"numberOfBytes": "1"
					}
				}
			},
			"userdoc": {
				"kind": "user",
				"methods": {},
				"version": 1
			}
		}
	}
}