{
	"Bones-of-Bitcoin/contracts/dataStructures/medium.sol": {
		"Escrow": {
			"abi": [
				{
					"inputs": [
						{
							"internalType": "address",
							"name": "_seller",
							"type": "address"
						},
						{
							"internalType": "address",
							"name": "_buyer",
							"type": "address"
						}
					],
					"stateMutability": "payable",
					"type": "constructor"
				},
				{
					"anonymous": false,
					"inputs": [
						{
							"indexed": false,
							"internalType": "address",
							"name": "from",
							"type": "address"
						},
						{
							"indexed": false,
							"internalType": "uint256",
							"name": "amount",
							"type": "uint256"
						}
					],
					"name": "Funded",
					"type": "event"
				},
				{
					"anonymous": false,
					"inputs": [
						{
							"indexed": false,
							"internalType": "address",
							"name": "from",
							"type": "address"
						},
						{
							"indexed": false,
							"internalType": "address",
							"name": "to",
							"type": "address"
						}
					],
					"name": "Refunded",
					"type": "event"
				},
				{
					"anonymous": false,
					"inputs": [
						{
							"indexed": false,
							"internalType": "address",
							"name": "from",
							"type": "address"
						},
						{
							"indexed": false,
							"internalType": "address",
							"name": "to",
							"type": "address"
						}
					],
					"name": "Released",
					"type": "event"
				},
				{
					"anonymous": false,
					"inputs": [
						{
							"indexed": false,
							"internalType": "address",
							"name": "from",
							"type": "address"
						},
						{
							"indexed": false,
							"internalType": "address",
							"name": "to",
							"type": "address"
						}
					],
					"name": "Shipped",
					"type": "event"
				},
				{
					"inputs": [],
					"name": "currentState",
					"outputs": [
						{
							"internalType": "enum Escrow.state",
							"name": "",
							"type": "uint8"
						}
					],
					"stateMutability": "view",
					"type": "function"
				},
				{
					"inputs": [],
					"name": "getState",
					"outputs": [
						{
							"internalType": "string",
							"name": "",
							"type": "string"
						}
					],
					"stateMutability": "view",
					"type": "function"
				},
				{
					"inputs": [],
					"name": "received",
					"outputs": [],
					"stateMutability": "nonpayable",
					"type": "function"
				},
				{
					"inputs": [],
					"name": "refund",
					"outputs": [],
					"stateMutability": "nonpayable",
					"type": "function"
				},
				{
					"inputs": [],
					"name": "ship",
					"outputs": [],
					"stateMutability": "nonpayable",
					"type": "function"
				}
			],
			"devdoc": {
				"kind": "dev",
				"methods": {},
				"version": 1
			},
			"evm": {
				"assembly": "    /* \"Bones-of-Bitcoin/contracts/dataStructures/medium.sol\":78:2073  contract Escrow{... */\n  mstore(0x40, 0xe0)\n    /* \"Bones-of-Bitcoin/contracts/dataStructures/medium.sol\":653:928  constructor(address _seller,address _buyer) payable {... */\n  mload(0x40)\n  sub(codesize, bytecodeSize)\n  dup1\n  bytecodeSize\n  dup4\n  codecopy\n  dup2\n  dup2\n  add\n  0x40\n  mstore\n  dup2\n  add\n  swap1\n  tag_1\n  swap2\n  swap1\n  tag_2\n  jump\t// in\ntag_1:\n    /* \"Bones-of-Bitcoin/contracts/dataStructures/medium.sol\":736:737  0 */\n  0x00\n    /* \"Bones-of-Bitcoin/contracts/dataStructures/medium.sol\":724:733  msg.value */\n  callvalue\n    /* \"Bones-of-Bitcoin/contracts/dataStructures/medium.sol\":724:737  msg.value > 0 */\n  gt\n    /* \"Bones-of-Bitcoin/contracts/dataStructures/medium.sol\":716:765  require(msg.value > 0, \"Must send Ether to fund\") */\n  tag_5\n  jumpi\n  mload(0x40)\n  0x08c379a000000000000000000000000000000000000000000000000000000000\n  dup2\n  mstore\n  0x04\n  add\n  tag_6\n  swap1\n  tag_7\n  jump\t// in\ntag_6:\n  mload(0x40)\n  dup1\n  swap2\n  sub\n  swap1\n  revert\ntag_5:\n    /* \"Bones-of-Bitcoin/contracts/dataStructures/medium.sol\":783:790  _seller */\n  dup2\n    /* \"Bones-of-Bitcoin/contracts/dataStructures/medium.sol\":776:790  seller=_seller */\n  0xffffffffffffffffffffffffffffffffffffffff\n  and\n  0x80\n  dup2\n  0xffffffffffffffffffffffffffffffffffffffff\n  and\n  dup2\n  mstore\n  pop\n  pop\n    /* \"Bones-of-Bitcoin/contracts/dataStructures/medium.sol\":807:813  _buyer */\n  dup1\n    /* \"Bones-of-Bitcoin/contracts/dataStructures/medium.sol\":801:813  buyer=_buyer */\n  0xffffffffffffffffffffffffffffffffffffffff\n  and\n  0xa0\n  dup2\n  0xffffffffffffffffffffffffffffffffffffffff\n  and\n  dup2\n  mstore\n  pop\n  pop\n    /* \"Bones-of-Bitcoin/contracts/dataStructures/medium.sol\":831:840  msg.value */\n  callvalue\n    /* \"Bones-of-Bitcoin/contracts/dataStructures/medium.sol\":824:840  amount=msg.value */\n  0xc0\n  dup2\n  dup2\n  mstore\n  pop\n  pop\n    /* \"Bones-of-Bitcoin/contracts/dataStructures/medium.sol\":864:876  state.Funded */\n  0x00\n    /* \"Bones-of-Bitcoin/contracts/dataStructures/medium.sol\":851:863  currentState */\n  0x00\n  0x00\n    /* \"Bones-of-Bitcoin/contracts/dataStructures/medium.sol\":851:876  currentState=state.Funded */\n  0x0100\n  exp\n  dup2\n  sload\n  dup2\n  0xff\n  mul\n  not\n  and\n  swap1\n  dup4\n  0x03\n  dup2\n  gt\n  iszero\n  tag_8\n  jumpi\n  tag_9\n  tag_10\n  jump\t// in\ntag_9:\ntag_8:\n  mul\n  or\n  swap1\n  sstore\n  pop\n    /* \"Bones-of-Bitcoin/contracts/dataStructures/medium.sol\":892:920  Funded(msg.sender,msg.value) */\n  0x5af8184bef8e4b45eb9f6ed7734d04da38ced226495548f46e0c8ff8d7d9a524\n    /* \"Bones-of-Bitcoin/contracts/dataStructures/medium.sol\":899:909  msg.sender */\n  caller\n    /* \"Bones-of-Bitcoin/contracts/dataStructures/medium.sol\":910:919  msg.value */\n  callvalue\n    /* \"Bones-of-Bitcoin/contracts/dataStructures/medium.sol\":892:920  Funded(msg.sender,msg.value) */\n  mload(0x40)\n  tag_11\n  swap3\n  swap2\n  swap1\n  tag_12\n  jump\t// in\ntag_11:\n  mload(0x40)\n  dup1\n  swap2\n  sub\n  swap1\n  log1\n    /* \"Bones-of-Bitcoin/contracts/dataStructures/medium.sol\":653:928  constructor(address _seller,address _buyer) payable {... */\n  pop\n  pop\n    /* \"Bones-of-Bitcoin/contracts/dataStructures/medium.sol\":78:2073  contract Escrow{... */\n  jump(tag_13)\n    /* \"#utility.yul\":88:205   */\ntag_15:\n    /* \"#utility.yul\":197:198   */\n  0x00\n    /* \"#utility.yul\":194:195   */\n  0x00\n    /* \"#utility.yul\":187:199   */\n  revert\n    /* \"#utility.yul\":334:460   */\ntag_17:\n    /* \"#utility.yul\":371:378   */\n  0x00\n    /* \"#utility.yul\":411:453   */\n  0xffffffffffffffffffffffffffffffffffffffff\n    /* \"#utility.yul\":404:409   */\n  dup3\n    /* \"#utility.yul\":400:454   */\n  and\n    /* \"#utility.yul\":389:454   */\n  swap1\n  pop\n    /* \"#utility.yul\":334:460   */\n  swap2\n  swap1\n  pop\n  jump\t// out\n    /* \"#utility.yul\":466:562   */\ntag_18:\n    /* \"#utility.yul\":503:510   */\n  0x00\n    /* \"#utility.yul\":532:556   */\n  tag_33\n    /* \"#utility.yul\":550:555   */\n  dup3\n    /* \"#utility.yul\":532:556   */\n  tag_17\n  jump\t// in\ntag_33:\n    /* \"#utility.yul\":521:556   */\n  swap1\n  pop\n    /* \"#utility.yul\":466:562   */\n  swap2\n  swap1\n  pop\n  jump\t// out\n    /* \"#utility.yul\":568:690   */\ntag_19:\n    /* \"#utility.yul\":641:665   */\n  tag_35\n    /* \"#utility.yul\":659:664   */\n  dup2\n    /* \"#utility.yul\":641:665   */\n  tag_18\n  jump\t// in\ntag_35:\n    /* \"#utility.yul\":634:639   */\n  dup2\n    /* \"#utility.yul\":631:666   */\n  eq\n    /* \"#utility.yul\":621:684   */\n  tag_36\n  jumpi\n    /* \"#utility.yul\":680:681   */\n  0x00\n    /* \"#utility.yul\":677:678   */\n  0x00\n    /* \"#utility.yul\":670:682   */\n  revert\n    /* \"#utility.yul\":621:684   */\ntag_36:\n    /* \"#utility.yul\":568:690   */\n  pop\n  jump\t// out\n    /* \"#utility.yul\":696:839   */\ntag_20:\n    /* \"#utility.yul\":753:758   */\n  0x00\n    /* \"#utility.yul\":784:790   */\n  dup2\n    /* \"#utility.yul\":778:791   */\n  mload\n    /* \"#utility.yul\":769:791   */\n  swap1\n  pop\n    /* \"#utility.yul\":800:833   */\n  tag_38\n    /* \"#utility.yul\":827:832   */\n  dup2\n    /* \"#utility.yul\":800:833   */\n  tag_19\n  jump\t// in\ntag_38:\n    /* \"#utility.yul\":696:839   */\n  swap3\n  swap2\n  pop\n  pop\n  jump\t// out\n    /* \"#utility.yul\":845:1352   */\ntag_2:\n    /* \"#utility.yul\":924:930   */\n  0x00\n    /* \"#utility.yul\":932:938   */\n  0x00\n    /* \"#utility.yul\":981:983   */\n  0x40\n    /* \"#utility.yul\":969:978   */\n  dup4\n    /* \"#utility.yul\":960:967   */\n  dup6\n    /* \"#utility.yul\":956:979   */\n  sub\n    /* \"#utility.yul\":952:984   */\n  slt\n    /* \"#utility.yul\":949:1068   */\n  iszero\n  tag_40\n  jumpi\n    /* \"#utility.yul\":987:1066   */\n  tag_41\n  tag_15\n  jump\t// in\ntag_41:\n    /* \"#utility.yul\":949:1068   */\ntag_40:\n    /* \"#utility.yul\":1107:1108   */\n  0x00\n    /* \"#utility.yul\":1132:1196   */\n  tag_42\n    /* \"#utility.yul\":1188:1195   */\n  dup6\n    /* \"#utility.yul\":1179:1185   */\n  dup3\n    /* \"#utility.yul\":1168:1177   */\n  dup7\n    /* \"#utility.yul\":1164:1186   */\n  add\n    /* \"#utility.yul\":1132:1196   */\n  tag_20\n  jump\t// in\ntag_42:\n    /* \"#utility.yul\":1122:1196   */\n  swap3\n  pop\n    /* \"#utility.yul\":1078:1206   */\n  pop\n    /* \"#utility.yul\":1245:1247   */\n  0x20\n    /* \"#utility.yul\":1271:1335   */\n  tag_43\n    /* \"#utility.yul\":1327:1334   */\n  dup6\n    /* \"#utility.yul\":1318:1324   */\n  dup3\n    /* \"#utility.yul\":1307:1316   */\n  dup7\n    /* \"#utility.yul\":1303:1325   */\n  add\n    /* \"#utility.yul\":1271:1335   */\n  tag_20\n  jump\t// in\ntag_43:\n    /* \"#utility.yul\":1261:1335   */\n  swap2\n  pop\n    /* \"#utility.yul\":1216:1345   */\n  pop\n    /* \"#utility.yul\":845:1352   */\n  swap3\n  pop\n  swap3\n  swap1\n  pop\n  jump\t// out\n    /* \"#utility.yul\":1358:1527   */\ntag_21:\n    /* \"#utility.yul\":1442:1453   */\n  0x00\n    /* \"#utility.yul\":1476:1482   */\n  dup3\n    /* \"#utility.yul\":1471:1474   */\n  dup3\n    /* \"#utility.yul\":1464:1483   */\n  mstore\n    /* \"#utility.yul\":1516:1520   */\n  0x20\n    /* \"#utility.yul\":1511:1514   */\n  dup3\n    /* \"#utility.yul\":1507:1521   */\n  add\n    /* \"#utility.yul\":1492:1521   */\n  swap1\n  pop\n    /* \"#utility.yul\":1358:1527   */\n  swap3\n  swap2\n  pop\n  pop\n  jump\t// out\n    /* \"#utility.yul\":1533:1706   */\ntag_22:\n    /* \"#utility.yul\":1673:1698   */\n  0x4d7573742073656e6420457468657220746f2066756e64000000000000000000\n    /* \"#utility.yul\":1669:1670   */\n  0x00\n    /* \"#utility.yul\":1661:1667   */\n  dup3\n    /* \"#utility.yul\":1657:1671   */\n  add\n    /* \"#utility.yul\":1650:1699   */\n  mstore\n    /* \"#utility.yul\":1533:1706   */\n  pop\n  jump\t// out\n    /* \"#utility.yul\":1712:2078   */\ntag_23:\n    /* \"#utility.yul\":1854:1857   */\n  0x00\n    /* \"#utility.yul\":1875:1942   */\n  tag_47\n    /* \"#utility.yul\":1939:1941   */\n  0x17\n    /* \"#utility.yul\":1934:1937   */\n  dup4\n    /* \"#utility.yul\":1875:1942   */\n  tag_21\n  jump\t// in\ntag_47:\n    /* \"#utility.yul\":1868:1942   */\n  swap2\n  pop\n    /* \"#utility.yul\":1951:2044   */\n  tag_48\n    /* \"#utility.yul\":2040:2043   */\n  dup3\n    /* \"#utility.yul\":1951:2044   */\n  tag_22\n  jump\t// in\ntag_48:\n    /* \"#utility.yul\":2069:2071   */\n  0x20\n    /* \"#utility.yul\":2064:2067   */\n  dup3\n    /* \"#utility.yul\":2060:2072   */\n  add\n    /* \"#utility.yul\":2053:2072   */\n  swap1\n  pop\n    /* \"#utility.yul\":1712:2078   */\n  swap2\n  swap1\n  pop\n  jump\t// out\n    /* \"#utility.yul\":2084:2503   */\ntag_7:\n    /* \"#utility.yul\":2250:2254   */\n  0x00\n    /* \"#utility.yul\":2288:2290   */\n  0x20\n    /* \"#utility.yul\":2277:2286   */\n  dup3\n    /* \"#utility.yul\":2273:2291   */\n  add\n    /* \"#utility.yul\":2265:2291   */\n  swap1\n  pop\n    /* \"#utility.yul\":2337:2346   */\n  dup2\n    /* \"#utility.yul\":2331:2335   */\n  dup2\n    /* \"#utility.yul\":2327:2347   */\n  sub\n    /* \"#utility.yul\":2323:2324   */\n  0x00\n    /* \"#utility.yul\":2312:2321   */\n  dup4\n    /* \"#utility.yul\":2308:2325   */\n  add\n    /* \"#utility.yul\":2301:2348   */\n  mstore\n    /* \"#utility.yul\":2365:2496   */\n  tag_50\n    /* \"#utility.yul\":2491:2495   */\n  dup2\n    /* \"#utility.yul\":2365:2496   */\n  tag_23\n  jump\t// in\ntag_50:\n    /* \"#utility.yul\":2357:2496   */\n  swap1\n  pop\n    /* \"#utility.yul\":2084:2503   */\n  swap2\n  swap1\n  pop\n  jump\t// out\n    /* \"#utility.yul\":2509:2689   */\ntag_10:\n    /* \"#utility.yul\":2557:2634   */\n  0x4e487b7100000000000000000000000000000000000000000000000000000000\n    /* \"#utility.yul\":2554:2555   */\n  0x00\n    /* \"#utility.yul\":2547:2635   */\n  mstore\n    /* \"#utility.yul\":2654:2658   */\n  0x21\n    /* \"#utility.yul\":2651:2652   */\n  0x04\n    /* \"#utility.yul\":2644:2659   */\n  mstore\n    /* \"#utility.yul\":2678:2682   */\n  0x24\n    /* \"#utility.yul\":2675:2676   */\n  0x00\n    /* \"#utility.yul\":2668:2683   */\n  revert\n    /* \"#utility.yul\":2695:2813   */\ntag_24:\n    /* \"#utility.yul\":2782:2806   */\n  tag_53\n    /* \"#utility.yul\":2800:2805   */\n  dup2\n    /* \"#utility.yul\":2782:2806   */\n  tag_18\n  jump\t// in\ntag_53:\n    /* \"#utility.yul\":2777:2780   */\n  dup3\n    /* \"#utility.yul\":2770:2807   */\n  mstore\n    /* \"#utility.yul\":2695:2813   */\n  pop\n  pop\n  jump\t// out\n    /* \"#utility.yul\":2819:2896   */\ntag_25:\n    /* \"#utility.yul\":2856:2863   */\n  0x00\n    /* \"#utility.yul\":2885:2890   */\n  dup2\n    /* \"#utility.yul\":2874:2890   */\n  swap1\n  pop\n    /* \"#utility.yul\":2819:2896   */\n  swap2\n  swap1\n  pop\n  jump\t// out\n    /* \"#utility.yul\":2902:3020   */\ntag_26:\n    /* \"#utility.yul\":2989:3013   */\n  tag_56\n    /* \"#utility.yul\":3007:3012   */\n  dup2\n    /* \"#utility.yul\":2989:3013   */\n  tag_25\n  jump\t// in\ntag_56:\n    /* \"#utility.yul\":2984:2987   */\n  dup3\n    /* \"#utility.yul\":2977:3014   */\n  mstore\n    /* \"#utility.yul\":2902:3020   */\n  pop\n  pop\n  jump\t// out\n    /* \"#utility.yul\":3026:3358   */\ntag_12:\n    /* \"#utility.yul\":3147:3151   */\n  0x00\n    /* \"#utility.yul\":3185:3187   */\n  0x40\n    /* \"#utility.yul\":3174:3183   */\n  dup3\n    /* \"#utility.yul\":3170:3188   */\n  add\n    /* \"#utility.yul\":3162:3188   */\n  swap1\n  pop\n    /* \"#utility.yul\":3198:3269   */\n  tag_58\n    /* \"#utility.yul\":3266:3267   */\n  0x00\n    /* \"#utility.yul\":3255:3264   */\n  dup4\n    /* \"#utility.yul\":3251:3268   */\n  add\n    /* \"#utility.yul\":3242:3248   */\n  dup6\n    /* \"#utility.yul\":3198:3269   */\n  tag_24\n  jump\t// in\ntag_58:\n    /* \"#utility.yul\":3279:3351   */\n  tag_59\n    /* \"#utility.yul\":3347:3349   */\n  0x20\n    /* \"#utility.yul\":3336:3345   */\n  dup4\n    /* \"#utility.yul\":3332:3350   */\n  add\n    /* \"#utility.yul\":3323:3329   */\n  dup5\n    /* \"#utility.yul\":3279:3351   */\n  tag_26\n  jump\t// in\ntag_59:\n    /* \"#utility.yul\":3026:3358   */\n  swap4\n  swap3\n  pop\n  pop\n  pop\n  jump\t// out\n    /* \"Bones-of-Bitcoin/contracts/dataStructures/medium.sol\":78:2073  contract Escrow{... */\ntag_13:\n  mload(0x80)\n  mload(0xa0)\n  mload(0xc0)\n  codecopy(0x00, dataOffset(sub_0), dataSize(sub_0))\n  0x00\n  assignImmutable(\"0x1a192fabce13988b84994d4296e6cdc418d55e2f1d7f942188d4040b94fc57ac\")\n  0x00\n  assignImmutable(\"0xceebf77a833b30520287ddd9478ff51abbdffa30aa90a8d655dba0e8a79ce0c1\")\n  0x00\n  assignImmutable(\"0x2a80e1ef1d7842f27f2e6be0972bb708b9a135c38860dbe73c27c3486c34f4de\")\n  return(0x00, dataSize(sub_0))\nstop\n\nsub_0: assembly {\n        /* \"Bones-of-Bitcoin/contracts/dataStructures/medium.sol\":78:2073  contract Escrow{... */\n      mstore(0x40, 0x80)\n      callvalue\n      dup1\n      iszero\n      tag_1\n      jumpi\n      revert(0x00, 0x00)\n    tag_1:\n      pop\n      jumpi(tag_2, lt(calldatasize, 0x04))\n      shr(0xe0, calldataload(0x00))\n      dup1\n      0x0c3f6acf\n      eq\n      tag_3\n      jumpi\n      dup1\n      0x1865c57d\n      eq\n      tag_4\n      jumpi\n      dup1\n      0x590e1ae3\n      eq\n      tag_5\n      jumpi\n      dup1\n      0x83a6deb5\n      eq\n      tag_6\n      jumpi\n      dup1\n      0xb6bef7b3\n      eq\n      tag_7\n      jumpi\n    tag_2:\n      revert(0x00, 0x00)\n        /* \"Bones-of-Bitcoin/contracts/dataStructures/medium.sol\":314:339  state public currentState */\n    tag_3:\n      tag_8\n      tag_9\n      jump\t// in\n    tag_8:\n      mload(0x40)\n      tag_10\n      swap2\n      swap1\n      tag_11\n      jump\t// in\n    tag_10:\n      mload(0x40)\n      dup1\n      swap2\n      sub\n      swap1\n      return\n        /* \"Bones-of-Bitcoin/contracts/dataStructures/medium.sol\":1741:2058  function getState() public view returns (string memory) {... */\n    tag_4:\n      tag_12\n      tag_13\n      jump\t// in\n    tag_12:\n      mload(0x40)\n      tag_14\n      swap2\n      swap1\n      tag_15\n      jump\t// in\n    tag_14:\n      mload(0x40)\n      dup1\n      swap2\n      sub\n      swap1\n      return\n        /* \"Bones-of-Bitcoin/contracts/dataStructures/medium.sol\":1496:1735  function refund() external onlyArbiter {... */\n    tag_5:\n      tag_16\n      tag_17\n      jump\t// in\n    tag_16:\n      stop\n        /* \"Bones-of-Bitcoin/contracts/dataStructures/medium.sol\":1189:1490  function received() external {... */\n    tag_6:\n      tag_18\n      tag_19\n      jump\t// in\n    tag_18:\n      stop\n        /* \"Bones-of-Bitcoin/contracts/dataStructures/medium.sol\":934:1183  function ship() external{... */\n    tag_7:\n      tag_20\n      tag_21\n      jump\t// in\n    tag_20:\n      stop\n        /* \"Bones-of-Bitcoin/contracts/dataStructures/medium.sol\":314:339  state public currentState */\n    tag_9:\n      0x00\n      0x00\n      swap1\n      sload\n      swap1\n      0x0100\n      exp\n      swap1\n      div\n      0xff\n      and\n      dup2\n      jump\t// out\n        /* \"Bones-of-Bitcoin/contracts/dataStructures/medium.sol\":1741:2058  function getState() public view returns (string memory) {... */\n    tag_13:\n        /* \"Bones-of-Bitcoin/contracts/dataStructures/medium.sol\":1782:1795  string memory */\n      0x60\n        /* \"Bones-of-Bitcoin/contracts/dataStructures/medium.sol\":1824:1836  state.Funded */\n      0x00\n        /* \"Bones-of-Bitcoin/contracts/dataStructures/medium.sol\":1808:1836  currentState == state.Funded */\n      0x03\n      dup2\n      gt\n      iszero\n      tag_23\n      jumpi\n      tag_24\n      tag_25\n      jump\t// in\n    tag_24:\n    tag_23:\n        /* \"Bones-of-Bitcoin/contracts/dataStructures/medium.sol\":1808:1820  currentState */\n      0x00\n      0x00\n      swap1\n      sload\n      swap1\n      0x0100\n      exp\n      swap1\n      div\n      0xff\n      and\n        /* \"Bones-of-Bitcoin/contracts/dataStructures/medium.sol\":1808:1836  currentState == state.Funded */\n      0x03\n      dup2\n      gt\n      iszero\n      tag_26\n      jumpi\n      tag_27\n      tag_25\n      jump\t// in\n    tag_27:\n    tag_26:\n      sub\n        /* \"Bones-of-Bitcoin/contracts/dataStructures/medium.sol\":1804:1853  if (currentState == state.Funded) return \"Funded\" */\n      tag_28\n      jumpi\n        /* \"Bones-of-Bitcoin/contracts/dataStructures/medium.sol\":1838:1853  return \"Funded\" */\n      mload(0x40)\n      dup1\n      0x40\n      add\n      0x40\n      mstore\n      dup1\n      0x06\n      dup2\n      mstore\n      0x20\n      add\n      0x46756e6465640000000000000000000000000000000000000000000000000000\n      dup2\n      mstore\n      pop\n      swap1\n      pop\n      jump(tag_22)\n        /* \"Bones-of-Bitcoin/contracts/dataStructures/medium.sol\":1804:1853  if (currentState == state.Funded) return \"Funded\" */\n    tag_28:\n        /* \"Bones-of-Bitcoin/contracts/dataStructures/medium.sol\":1880:1893  state.Shipped */\n      0x01\n        /* \"Bones-of-Bitcoin/contracts/dataStructures/medium.sol\":1864:1893  currentState == state.Shipped */\n      0x03\n      dup2\n      gt\n      iszero\n      tag_29\n      jumpi\n      tag_30\n      tag_25\n      jump\t// in\n    tag_30:\n    tag_29:\n        /* \"Bones-of-Bitcoin/contracts/dataStructures/medium.sol\":1864:1876  currentState */\n      0x00\n      0x00\n      swap1\n      sload\n      swap1\n      0x0100\n      exp\n      swap1\n      div\n      0xff\n      and\n        /* \"Bones-of-Bitcoin/contracts/dataStructures/medium.sol\":1864:1893  currentState == state.Shipped */\n      0x03\n      dup2\n      gt\n      iszero\n      tag_31\n      jumpi\n      tag_32\n      tag_25\n      jump\t// in\n    tag_32:\n    tag_31:\n      sub\n        /* \"Bones-of-Bitcoin/contracts/dataStructures/medium.sol\":1860:1911  if (currentState == state.Shipped) return \"Shipped\" */\n      tag_33\n      jumpi\n        /* \"Bones-of-Bitcoin/contracts/dataStructures/medium.sol\":1895:1911  return \"Shipped\" */\n      mload(0x40)\n      dup1\n      0x40\n      add\n      0x40\n      mstore\n      dup1\n      0x07\n      dup2\n      mstore\n      0x20\n      add\n      0x5368697070656400000000000000000000000000000000000000000000000000\n      dup2\n      mstore\n      pop\n      swap1\n      pop\n      jump(tag_22)\n        /* \"Bones-of-Bitcoin/contracts/dataStructures/medium.sol\":1860:1911  if (currentState == state.Shipped) return \"Shipped\" */\n    tag_33:\n        /* \"Bones-of-Bitcoin/contracts/dataStructures/medium.sol\":1938:1952  state.Released */\n      0x02\n        /* \"Bones-of-Bitcoin/contracts/dataStructures/medium.sol\":1922:1952  currentState == state.Released */\n      0x03\n      dup2\n      gt\n      iszero\n      tag_34\n      jumpi\n      tag_35\n      tag_25\n      jump\t// in\n    tag_35:\n    tag_34:\n        /* \"Bones-of-Bitcoin/contracts/dataStructures/medium.sol\":1922:1934  currentState */\n      0x00\n      0x00\n      swap1\n      sload\n      swap1\n      0x0100\n      exp\n      swap1\n      div\n      0xff\n      and\n        /* \"Bones-of-Bitcoin/contracts/dataStructures/medium.sol\":1922:1952  currentState == state.Released */\n      0x03\n      dup2\n      gt\n      iszero\n      tag_36\n      jumpi\n      tag_37\n      tag_25\n      jump\t// in\n    tag_37:\n    tag_36:\n      sub\n        /* \"Bones-of-Bitcoin/contracts/dataStructures/medium.sol\":1918:1971  if (currentState == state.Released) return \"Released\" */\n      tag_38\n      jumpi\n        /* \"Bones-of-Bitcoin/contracts/dataStructures/medium.sol\":1954:1971  return \"Released\" */\n      mload(0x40)\n      dup1\n      0x40\n      add\n      0x40\n      mstore\n      dup1\n      0x08\n      dup2\n      mstore\n      0x20\n      add\n      0x52656c6561736564000000000000000000000000000000000000000000000000\n      dup2\n      mstore\n      pop\n      swap1\n      pop\n      jump(tag_22)\n        /* \"Bones-of-Bitcoin/contracts/dataStructures/medium.sol\":1918:1971  if (currentState == state.Released) return \"Released\" */\n    tag_38:\n        /* \"Bones-of-Bitcoin/contracts/dataStructures/medium.sol\":1998:2012  state.Refunded */\n      0x03\n        /* \"Bones-of-Bitcoin/contracts/dataStructures/medium.sol\":1982:2012  currentState == state.Refunded */\n      dup1\n      dup2\n      gt\n      iszero\n      tag_39\n      jumpi\n      tag_40\n      tag_25\n      jump\t// in\n    tag_40:\n    tag_39:\n        /* \"Bones-of-Bitcoin/contracts/dataStructures/medium.sol\":1982:1994  currentState */\n      0x00\n      0x00\n      swap1\n      sload\n      swap1\n      0x0100\n      exp\n      swap1\n      div\n      0xff\n      and\n        /* \"Bones-of-Bitcoin/contracts/dataStructures/medium.sol\":1982:2012  currentState == state.Refunded */\n      0x03\n      dup2\n      gt\n      iszero\n      tag_41\n      jumpi\n      tag_42\n      tag_25\n      jump\t// in\n    tag_42:\n    tag_41:\n      sub\n        /* \"Bones-of-Bitcoin/contracts/dataStructures/medium.sol\":1978:2031  if (currentState == state.Refunded) return \"Refunded\" */\n      tag_43\n      jumpi\n        /* \"Bones-of-Bitcoin/contracts/dataStructures/medium.sol\":2014:2031  return \"Refunded\" */\n      mload(0x40)\n      dup1\n      0x40\n      add\n      0x40\n      mstore\n      dup1\n      0x08\n      dup2\n      mstore\n      0x20\n      add\n      0x526566756e646564000000000000000000000000000000000000000000000000\n      dup2\n      mstore\n      pop\n      swap1\n      pop\n      jump(tag_22)\n        /* \"Bones-of-Bitcoin/contracts/dataStructures/medium.sol\":1978:2031  if (currentState == state.Refunded) return \"Refunded\" */\n    tag_43:\n        /* \"Bones-of-Bitcoin/contracts/dataStructures/medium.sol\":2038:2054  return \"Unknown\" */\n      mload(0x40)\n      dup1\n      0x40\n      add\n      0x40\n      mstore\n      dup1\n      0x07\n      dup2\n      mstore\n      0x20\n      add\n      0x556e6b6e6f776e00000000000000000000000000000000000000000000000000\n      dup2\n      mstore\n      pop\n      swap1\n      pop\n        /* \"Bones-of-Bitcoin/contracts/dataStructures/medium.sol\":1741:2058  function getState() public view returns (string memory) {... */\n    tag_22:\n      swap1\n      jump\t// out\n        /* \"Bones-of-Bitcoin/contracts/dataStructures/medium.sol\":1496:1735  function refund() external onlyArbiter {... */\n    tag_17:\n        /* \"Bones-of-Bitcoin/contracts/dataStructures/medium.sol\":186:228  0x5B38Da6a701c568545dCfcB03FcB875f56beddC4 */\n      0x5b38da6a701c568545dcfcb03fcb875f56beddc4\n        /* \"Bones-of-Bitcoin/contracts/dataStructures/medium.sol\":569:588  msg.sender==arbiter */\n      0xffffffffffffffffffffffffffffffffffffffff\n      and\n        /* \"Bones-of-Bitcoin/contracts/dataStructures/medium.sol\":569:579  msg.sender */\n      caller\n        /* \"Bones-of-Bitcoin/contracts/dataStructures/medium.sol\":569:588  msg.sender==arbiter */\n      0xffffffffffffffffffffffffffffffffffffffff\n      and\n      eq\n        /* \"Bones-of-Bitcoin/contracts/dataStructures/medium.sol\":561:627  require(msg.sender==arbiter,\"Only arbiter can call this function\") */\n      tag_45\n      jumpi\n      mload(0x40)\n      0x08c379a000000000000000000000000000000000000000000000000000000000\n      dup2\n      mstore\n      0x04\n      add\n      tag_46\n      swap1\n      tag_47\n      jump\t// in\n    tag_46:\n      mload(0x40)\n      dup1\n      swap2\n      sub\n      swap1\n      revert\n    tag_45:\n        /* \"Bones-of-Bitcoin/contracts/dataStructures/medium.sol\":1570:1584  state.Released */\n      0x02\n        /* \"Bones-of-Bitcoin/contracts/dataStructures/medium.sol\":1554:1584  currentState != state.Released */\n      0x03\n      dup2\n      gt\n      iszero\n      tag_49\n      jumpi\n      tag_50\n      tag_25\n      jump\t// in\n    tag_50:\n    tag_49:\n        /* \"Bones-of-Bitcoin/contracts/dataStructures/medium.sol\":1554:1566  currentState */\n      0x00\n      0x00\n      swap1\n      sload\n      swap1\n      0x0100\n      exp\n      swap1\n      div\n      0xff\n      and\n        /* \"Bones-of-Bitcoin/contracts/dataStructures/medium.sol\":1554:1584  currentState != state.Released */\n      0x03\n      dup2\n      gt\n      iszero\n      tag_51\n      jumpi\n      tag_52\n      tag_25\n      jump\t// in\n    tag_52:\n    tag_51:\n      sub\n        /* \"Bones-of-Bitcoin/contracts/dataStructures/medium.sol\":1546:1605  require(currentState != state.Released, \"Already released\") */\n      tag_53\n      jumpi\n      mload(0x40)\n      0x08c379a000000000000000000000000000000000000000000000000000000000\n      dup2\n      mstore\n      0x04\n      add\n      tag_54\n      swap1\n      tag_55\n      jump\t// in\n    tag_54:\n      mload(0x40)\n      dup1\n      swap2\n      sub\n      swap1\n      revert\n    tag_53:\n        /* \"Bones-of-Bitcoin/contracts/dataStructures/medium.sol\":1624:1629  buyer */\n      immutable(\"0xceebf77a833b30520287ddd9478ff51abbdffa30aa90a8d655dba0e8a79ce0c1\")\n        /* \"Bones-of-Bitcoin/contracts/dataStructures/medium.sol\":1616:1639  payable(buyer).transfer */\n      0xffffffffffffffffffffffffffffffffffffffff\n      and\n        /* \"Bones-of-Bitcoin/contracts/dataStructures/medium.sol\":1616:1647  payable(buyer).transfer(amount) */\n      0x08fc\n        /* \"Bones-of-Bitcoin/contracts/dataStructures/medium.sol\":1640:1646  amount */\n      immutable(\"0x1a192fabce13988b84994d4296e6cdc418d55e2f1d7f942188d4040b94fc57ac\")\n        /* \"Bones-of-Bitcoin/contracts/dataStructures/medium.sol\":1616:1647  payable(buyer).transfer(amount) */\n      swap1\n      dup2\n      iszero\n      mul\n      swap1\n      mload(0x40)\n      0x00\n      mload(0x40)\n      dup1\n      dup4\n      sub\n      dup2\n      dup6\n      dup9\n      dup9\n      call\n      swap4\n      pop\n      pop\n      pop\n      pop\n      iszero\n      dup1\n      iszero\n      tag_57\n      jumpi\n      returndatacopy(0x00, 0x00, returndatasize)\n      revert(0x00, returndatasize)\n    tag_57:\n      pop\n        /* \"Bones-of-Bitcoin/contracts/dataStructures/medium.sol\":1671:1685  state.Refunded */\n      0x03\n        /* \"Bones-of-Bitcoin/contracts/dataStructures/medium.sol\":1658:1670  currentState */\n      0x00\n      0x00\n        /* \"Bones-of-Bitcoin/contracts/dataStructures/medium.sol\":1658:1685  currentState=state.Refunded */\n      0x0100\n      exp\n      dup2\n      sload\n      dup2\n      0xff\n      mul\n      not\n      and\n      swap1\n      dup4\n      0x03\n      dup2\n      gt\n      iszero\n      tag_58\n      jumpi\n      tag_59\n      tag_25\n      jump\t// in\n    tag_59:\n    tag_58:\n      mul\n      or\n      swap1\n      sstore\n      pop\n        /* \"Bones-of-Bitcoin/contracts/dataStructures/medium.sol\":1701:1725  Refunded(arbiter, buyer) */\n      0x51ebc7481979ebbd2e5cf0be7bb298c0a8dfe2c94e2b37ec845b412b2b93df52\n        /* \"Bones-of-Bitcoin/contracts/dataStructures/medium.sol\":186:228  0x5B38Da6a701c568545dCfcB03FcB875f56beddC4 */\n      0x5b38da6a701c568545dcfcb03fcb875f56beddc4\n        /* \"Bones-of-Bitcoin/contracts/dataStructures/medium.sol\":1719:1724  buyer */\n      immutable(\"0xceebf77a833b30520287ddd9478ff51abbdffa30aa90a8d655dba0e8a79ce0c1\")\n        /* \"Bones-of-Bitcoin/contracts/dataStructures/medium.sol\":1701:1725  Refunded(arbiter, buyer) */\n      mload(0x40)\n      tag_60\n      swap3\n      swap2\n      swap1\n      tag_61\n      jump\t// in\n    tag_60:\n      mload(0x40)\n      dup1\n      swap2\n      sub\n      swap1\n      log1\n        /* \"Bones-of-Bitcoin/contracts/dataStructures/medium.sol\":1496:1735  function refund() external onlyArbiter {... */\n      jump\t// out\n        /* \"Bones-of-Bitcoin/contracts/dataStructures/medium.sol\":1189:1490  function received() external {... */\n    tag_19:\n        /* \"Bones-of-Bitcoin/contracts/dataStructures/medium.sol\":1253:1266  state.Shipped */\n      0x01\n        /* \"Bones-of-Bitcoin/contracts/dataStructures/medium.sol\":1237:1266  currentState == state.Shipped */\n      0x03\n      dup2\n      gt\n      iszero\n      tag_63\n      jumpi\n      tag_64\n      tag_25\n      jump\t// in\n    tag_64:\n    tag_63:\n        /* \"Bones-of-Bitcoin/contracts/dataStructures/medium.sol\":1237:1249  currentState */\n      0x00\n      0x00\n      swap1\n      sload\n      swap1\n      0x0100\n      exp\n      swap1\n      div\n      0xff\n      and\n        /* \"Bones-of-Bitcoin/contracts/dataStructures/medium.sol\":1237:1266  currentState == state.Shipped */\n      0x03\n      dup2\n      gt\n      iszero\n      tag_65\n      jumpi\n      tag_66\n      tag_25\n      jump\t// in\n    tag_66:\n    tag_65:\n      eq\n        /* \"Bones-of-Bitcoin/contracts/dataStructures/medium.sol\":1229:1291  require(currentState == state.Shipped, \"Item not shipped yet\") */\n      tag_67\n      jumpi\n      mload(0x40)\n      0x08c379a000000000000000000000000000000000000000000000000000000000\n      dup2\n      mstore\n      0x04\n      add\n      tag_68\n      swap1\n      tag_69\n      jump\t// in\n    tag_68:\n      mload(0x40)\n      dup1\n      swap2\n      sub\n      swap1\n      revert\n    tag_67:\n        /* \"Bones-of-Bitcoin/contracts/dataStructures/medium.sol\":1322:1327  buyer */\n      immutable(\"0xceebf77a833b30520287ddd9478ff51abbdffa30aa90a8d655dba0e8a79ce0c1\")\n        /* \"Bones-of-Bitcoin/contracts/dataStructures/medium.sol\":1310:1327  msg.sender==buyer */\n      0xffffffffffffffffffffffffffffffffffffffff\n      and\n        /* \"Bones-of-Bitcoin/contracts/dataStructures/medium.sol\":1310:1320  msg.sender */\n      caller\n        /* \"Bones-of-Bitcoin/contracts/dataStructures/medium.sol\":1310:1327  msg.sender==buyer */\n      0xffffffffffffffffffffffffffffffffffffffff\n      and\n      eq\n        /* \"Bones-of-Bitcoin/contracts/dataStructures/medium.sol\":1302:1363  require(msg.sender==buyer,\"Only buyer can confirm recieving\") */\n      tag_70\n      jumpi\n      mload(0x40)\n      0x08c379a000000000000000000000000000000000000000000000000000000000\n      dup2\n      mstore\n      0x04\n      add\n      tag_71\n      swap1\n      tag_72\n      jump\t// in\n    tag_71:\n      mload(0x40)\n      dup1\n      swap2\n      sub\n      swap1\n      revert\n    tag_70:\n        /* \"Bones-of-Bitcoin/contracts/dataStructures/medium.sol\":1387:1401  state.Released */\n      0x02\n        /* \"Bones-of-Bitcoin/contracts/dataStructures/medium.sol\":1374:1386  currentState */\n      0x00\n      0x00\n        /* \"Bones-of-Bitcoin/contracts/dataStructures/medium.sol\":1374:1401  currentState=state.Released */\n      0x0100\n      exp\n      dup2\n      sload\n      dup2\n      0xff\n      mul\n      not\n      and\n      swap1\n      dup4\n      0x03\n      dup2\n      gt\n      iszero\n      tag_73\n      jumpi\n      tag_74\n      tag_25\n      jump\t// in\n    tag_74:\n    tag_73:\n      mul\n      or\n      swap1\n      sstore\n      pop\n        /* \"Bones-of-Bitcoin/contracts/dataStructures/medium.sol\":1420:1426  seller */\n      immutable(\"0x2a80e1ef1d7842f27f2e6be0972bb708b9a135c38860dbe73c27c3486c34f4de\")\n        /* \"Bones-of-Bitcoin/contracts/dataStructures/medium.sol\":1412:1436  payable(seller).transfer */\n      0xffffffffffffffffffffffffffffffffffffffff\n      and\n        /* \"Bones-of-Bitcoin/contracts/dataStructures/medium.sol\":1412:1444  payable(seller).transfer(amount) */\n      0x08fc\n        /* \"Bones-of-Bitcoin/contracts/dataStructures/medium.sol\":1437:1443  amount */\n      immutable(\"0x1a192fabce13988b84994d4296e6cdc418d55e2f1d7f942188d4040b94fc57ac\")\n        /* \"Bones-of-Bitcoin/contracts/dataStructures/medium.sol\":1412:1444  payable(seller).transfer(amount) */\n      swap1\n      dup2\n      iszero\n      mul\n      swap1\n      mload(0x40)\n      0x00\n      mload(0x40)\n      dup1\n      dup4\n      sub\n      dup2\n      dup6\n      dup9\n      dup9\n      call\n      swap4\n      pop\n      pop\n      pop\n      pop\n      iszero\n      dup1\n      iszero\n      tag_76\n      jumpi\n      returndatacopy(0x00, 0x00, returndatasize)\n      revert(0x00, returndatasize)\n    tag_76:\n      pop\n        /* \"Bones-of-Bitcoin/contracts/dataStructures/medium.sol\":1460:1482  Released(buyer,seller) */\n      0xd42a2a2115b903fc93230a2a52f62600dceec513a8dafd08401c374929ad9f5d\n        /* \"Bones-of-Bitcoin/contracts/dataStructures/medium.sol\":1469:1474  buyer */\n      immutable(\"0xceebf77a833b30520287ddd9478ff51abbdffa30aa90a8d655dba0e8a79ce0c1\")\n        /* \"Bones-of-Bitcoin/contracts/dataStructures/medium.sol\":1475:1481  seller */\n      immutable(\"0x2a80e1ef1d7842f27f2e6be0972bb708b9a135c38860dbe73c27c3486c34f4de\")\n        /* \"Bones-of-Bitcoin/contracts/dataStructures/medium.sol\":1460:1482  Released(buyer,seller) */\n      mload(0x40)\n      tag_77\n      swap3\n      swap2\n      swap1\n      tag_61\n      jump\t// in\n    tag_77:\n      mload(0x40)\n      dup1\n      swap2\n      sub\n      swap1\n      log1\n        /* \"Bones-of-Bitcoin/contracts/dataStructures/medium.sol\":1189:1490  function received() external {... */\n      jump\t// out\n        /* \"Bones-of-Bitcoin/contracts/dataStructures/medium.sol\":934:1183  function ship() external{... */\n    tag_21:\n        /* \"Bones-of-Bitcoin/contracts/dataStructures/medium.sol\":993:1005  state.Funded */\n      0x00\n        /* \"Bones-of-Bitcoin/contracts/dataStructures/medium.sol\":977:1005  currentState == state.Funded */\n      0x03\n      dup2\n      gt\n      iszero\n      tag_79\n      jumpi\n      tag_80\n      tag_25\n      jump\t// in\n    tag_80:\n    tag_79:\n        /* \"Bones-of-Bitcoin/contracts/dataStructures/medium.sol\":977:989  currentState */\n      0x00\n      0x00\n      swap1\n      sload\n      swap1\n      0x0100\n      exp\n      swap1\n      div\n      0xff\n      and\n        /* \"Bones-of-Bitcoin/contracts/dataStructures/medium.sol\":977:1005  currentState == state.Funded */\n      0x03\n      dup2\n      gt\n      iszero\n      tag_81\n      jumpi\n      tag_82\n      tag_25\n      jump\t// in\n    tag_82:\n    tag_81:\n      eq\n        /* \"Bones-of-Bitcoin/contracts/dataStructures/medium.sol\":969:1040  require(currentState == state.Funded, \"Must be funded before shipping\") */\n      tag_83\n      jumpi\n      mload(0x40)\n      0x08c379a000000000000000000000000000000000000000000000000000000000\n      dup2\n      mstore\n      0x04\n      add\n      tag_84\n      swap1\n      tag_85\n      jump\t// in\n    tag_84:\n      mload(0x40)\n      dup1\n      swap2\n      sub\n      swap1\n      revert\n    tag_83:\n        /* \"Bones-of-Bitcoin/contracts/dataStructures/medium.sol\":1071:1077  seller */\n      immutable(\"0x2a80e1ef1d7842f27f2e6be0972bb708b9a135c38860dbe73c27c3486c34f4de\")\n        /* \"Bones-of-Bitcoin/contracts/dataStructures/medium.sol\":1059:1077  msg.sender==seller */\n      0xffffffffffffffffffffffffffffffffffffffff\n      and\n        /* \"Bones-of-Bitcoin/contracts/dataStructures/medium.sol\":1059:1069  msg.sender */\n      caller\n        /* \"Bones-of-Bitcoin/contracts/dataStructures/medium.sol\":1059:1077  msg.sender==seller */\n      0xffffffffffffffffffffffffffffffffffffffff\n      and\n      eq\n        /* \"Bones-of-Bitcoin/contracts/dataStructures/medium.sol\":1051:1101  require(msg.sender==seller,\"Only sender can ship\") */\n      tag_86\n      jumpi\n      mload(0x40)\n      0x08c379a000000000000000000000000000000000000000000000000000000000\n      dup2\n      mstore\n      0x04\n      add\n      tag_87\n      swap1\n      tag_88\n      jump\t// in\n    tag_87:\n      mload(0x40)\n      dup1\n      swap2\n      sub\n      swap1\n      revert\n    tag_86:\n        /* \"Bones-of-Bitcoin/contracts/dataStructures/medium.sol\":1125:1138  state.Shipped */\n      0x01\n        /* \"Bones-of-Bitcoin/contracts/dataStructures/medium.sol\":1112:1124  currentState */\n      0x00\n      0x00\n        /* \"Bones-of-Bitcoin/contracts/dataStructures/medium.sol\":1112:1138  currentState=state.Shipped */\n      0x0100\n      exp\n      dup2\n      sload\n      dup2\n      0xff\n      mul\n      not\n      and\n      swap1\n      dup4\n      0x03\n      dup2\n      gt\n      iszero\n      tag_89\n      jumpi\n      tag_90\n      tag_25\n      jump\t// in\n    tag_90:\n    tag_89:\n      mul\n      or\n      swap1\n      sstore\n      pop\n        /* \"Bones-of-Bitcoin/contracts/dataStructures/medium.sol\":1154:1175  Shipped(seller,buyer) */\n      0x4cda03c40a91251de090a894ea66b12aab81e02ae100aa362c7f1800b3fb3af0\n        /* \"Bones-of-Bitcoin/contracts/dataStructures/medium.sol\":1162:1168  seller */\n      immutable(\"0x2a80e1ef1d7842f27f2e6be0972bb708b9a135c38860dbe73c27c3486c34f4de\")\n        /* \"Bones-of-Bitcoin/contracts/dataStructures/medium.sol\":1169:1174  buyer */\n      immutable(\"0xceebf77a833b30520287ddd9478ff51abbdffa30aa90a8d655dba0e8a79ce0c1\")\n        /* \"Bones-of-Bitcoin/contracts/dataStructures/medium.sol\":1154:1175  Shipped(seller,buyer) */\n      mload(0x40)\n      tag_91\n      swap3\n      swap2\n      swap1\n      tag_61\n      jump\t// in\n    tag_91:\n      mload(0x40)\n      dup1\n      swap2\n      sub\n      swap1\n      log1\n        /* \"Bones-of-Bitcoin/contracts/dataStructures/medium.sol\":934:1183  function ship() external{... */\n      jump\t// out\n        /* \"#utility.yul\":7:187   */\n    tag_25:\n        /* \"#utility.yul\":55:132   */\n      0x4e487b7100000000000000000000000000000000000000000000000000000000\n        /* \"#utility.yul\":52:53   */\n      0x00\n        /* \"#utility.yul\":45:133   */\n      mstore\n        /* \"#utility.yul\":152:156   */\n      0x21\n        /* \"#utility.yul\":149:150   */\n      0x04\n        /* \"#utility.yul\":142:157   */\n      mstore\n        /* \"#utility.yul\":176:180   */\n      0x24\n        /* \"#utility.yul\":173:174   */\n      0x00\n        /* \"#utility.yul\":166:181   */\n      revert\n        /* \"#utility.yul\":193:306   */\n    tag_92:\n        /* \"#utility.yul\":274:275   */\n      0x04\n        /* \"#utility.yul\":267:272   */\n      dup2\n        /* \"#utility.yul\":264:276   */\n      lt\n        /* \"#utility.yul\":254:300   */\n      tag_119\n      jumpi\n        /* \"#utility.yul\":280:298   */\n      tag_120\n      tag_25\n      jump\t// in\n    tag_120:\n        /* \"#utility.yul\":254:300   */\n    tag_119:\n        /* \"#utility.yul\":193:306   */\n      pop\n      jump\t// out\n        /* \"#utility.yul\":312:439   */\n    tag_93:\n        /* \"#utility.yul\":357:364   */\n      0x00\n        /* \"#utility.yul\":386:391   */\n      dup2\n        /* \"#utility.yul\":375:391   */\n      swap1\n      pop\n        /* \"#utility.yul\":392:433   */\n      tag_122\n        /* \"#utility.yul\":427:432   */\n      dup3\n        /* \"#utility.yul\":392:433   */\n      tag_92\n      jump\t// in\n    tag_122:\n        /* \"#utility.yul\":312:439   */\n      swap2\n      swap1\n      pop\n      jump\t// out\n        /* \"#utility.yul\":445:572   */\n    tag_94:\n        /* \"#utility.yul\":501:510   */\n      0x00\n        /* \"#utility.yul\":534:566   */\n      tag_124\n        /* \"#utility.yul\":560:565   */\n      dup3\n        /* \"#utility.yul\":534:566   */\n      tag_93\n      jump\t// in\n    tag_124:\n        /* \"#utility.yul\":521:566   */\n      swap1\n      pop\n        /* \"#utility.yul\":445:572   */\n      swap2\n      swap1\n      pop\n      jump\t// out\n        /* \"#utility.yul\":578:721   */\n    tag_95:\n        /* \"#utility.yul\":671:714   */\n      tag_126\n        /* \"#utility.yul\":708:713   */\n      dup2\n        /* \"#utility.yul\":671:714   */\n      tag_94\n      jump\t// in\n    tag_126:\n        /* \"#utility.yul\":666:669   */\n      dup3\n        /* \"#utility.yul\":659:715   */\n      mstore\n        /* \"#utility.yul\":578:721   */\n      pop\n      pop\n      jump\t// out\n        /* \"#utility.yul\":727:961   */\n    tag_11:\n        /* \"#utility.yul\":826:830   */\n      0x00\n        /* \"#utility.yul\":864:866   */\n      0x20\n        /* \"#utility.yul\":853:862   */\n      dup3\n        /* \"#utility.yul\":849:867   */\n      add\n        /* \"#utility.yul\":841:867   */\n      swap1\n      pop\n        /* \"#utility.yul\":877:954   */\n      tag_128\n        /* \"#utility.yul\":951:952   */\n      0x00\n        /* \"#utility.yul\":940:949   */\n      dup4\n        /* \"#utility.yul\":936:953   */\n      add\n        /* \"#utility.yul\":927:933   */\n      dup5\n        /* \"#utility.yul\":877:954   */\n      tag_95\n      jump\t// in\n    tag_128:\n        /* \"#utility.yul\":727:961   */\n      swap3\n      swap2\n      pop\n      pop\n      jump\t// out\n        /* \"#utility.yul\":967:1066   */\n    tag_96:\n        /* \"#utility.yul\":1019:1025   */\n      0x00\n        /* \"#utility.yul\":1053:1058   */\n      dup2\n        /* \"#utility.yul\":1047:1059   */\n      mload\n        /* \"#utility.yul\":1037:1059   */\n      swap1\n      pop\n        /* \"#utility.yul\":967:1066   */\n      swap2\n      swap1\n      pop\n      jump\t// out\n        /* \"#utility.yul\":1072:1241   */\n    tag_97:\n        /* \"#utility.yul\":1156:1167   */\n      0x00\n        /* \"#utility.yul\":1190:1196   */\n      dup3\n        /* \"#utility.yul\":1185:1188   */\n      dup3\n        /* \"#utility.yul\":1178:1197   */\n      mstore\n        /* \"#utility.yul\":1230:1234   */\n      0x20\n        /* \"#utility.yul\":1225:1228   */\n      dup3\n        /* \"#utility.yul\":1221:1235   */\n      add\n        /* \"#utility.yul\":1206:1235   */\n      swap1\n      pop\n        /* \"#utility.yul\":1072:1241   */\n      swap3\n      swap2\n      pop\n      pop\n      jump\t// out\n        /* \"#utility.yul\":1247:1386   */\n    tag_98:\n        /* \"#utility.yul\":1336:1342   */\n      dup3\n        /* \"#utility.yul\":1331:1334   */\n      dup2\n        /* \"#utility.yul\":1326:1329   */\n      dup4\n        /* \"#utility.yul\":1320:1343   */\n      mcopy\n        /* \"#utility.yul\":1377:1378   */\n      0x00\n        /* \"#utility.yul\":1368:1374   */\n      dup4\n        /* \"#utility.yul\":1363:1366   */\n      dup4\n        /* \"#utility.yul\":1359:1375   */\n      add\n        /* \"#utility.yul\":1352:1379   */\n      mstore\n        /* \"#utility.yul\":1247:1386   */\n      pop\n      pop\n      pop\n      jump\t// out\n        /* \"#utility.yul\":1392:1494   */\n    tag_99:\n        /* \"#utility.yul\":1433:1439   */\n      0x00\n        /* \"#utility.yul\":1484:1486   */\n      0x1f\n        /* \"#utility.yul\":1480:1487   */\n      not\n        /* \"#utility.yul\":1475:1477   */\n      0x1f\n        /* \"#utility.yul\":1468:1473   */\n      dup4\n        /* \"#utility.yul\":1464:1478   */\n      add\n        /* \"#utility.yul\":1460:1488   */\n      and\n        /* \"#utility.yul\":1450:1488   */\n      swap1\n      pop\n        /* \"#utility.yul\":1392:1494   */\n      swap2\n      swap1\n      pop\n      jump\t// out\n        /* \"#utility.yul\":1500:1877   */\n    tag_100:\n        /* \"#utility.yul\":1588:1591   */\n      0x00\n        /* \"#utility.yul\":1616:1655   */\n      tag_134\n        /* \"#utility.yul\":1649:1654   */\n      dup3\n        /* \"#utility.yul\":1616:1655   */\n      tag_96\n      jump\t// in\n    tag_134:\n        /* \"#utility.yul\":1671:1742   */\n      tag_135\n        /* \"#utility.yul\":1735:1741   */\n      dup2\n        /* \"#utility.yul\":1730:1733   */\n      dup6\n        /* \"#utility.yul\":1671:1742   */\n      tag_97\n      jump\t// in\n    tag_135:\n        /* \"#utility.yul\":1664:1742   */\n      swap4\n      pop\n        /* \"#utility.yul\":1751:1816   */\n      tag_136\n        /* \"#utility.yul\":1809:1815   */\n      dup2\n        /* \"#utility.yul\":1804:1807   */\n      dup6\n        /* \"#utility.yul\":1797:1801   */\n      0x20\n        /* \"#utility.yul\":1790:1795   */\n      dup7\n        /* \"#utility.yul\":1786:1802   */\n      add\n        /* \"#utility.yul\":1751:1816   */\n      tag_98\n      jump\t// in\n    tag_136:\n        /* \"#utility.yul\":1841:1870   */\n      tag_137\n        /* \"#utility.yul\":1863:1869   */\n      dup2\n        /* \"#utility.yul\":1841:1870   */\n      tag_99\n      jump\t// in\n    tag_137:\n        /* \"#utility.yul\":1836:1839   */\n      dup5\n        /* \"#utility.yul\":1832:1871   */\n      add\n        /* \"#utility.yul\":1825:1871   */\n      swap2\n      pop\n        /* \"#utility.yul\":1592:1877   */\n      pop\n        /* \"#utility.yul\":1500:1877   */\n      swap3\n      swap2\n      pop\n      pop\n      jump\t// out\n        /* \"#utility.yul\":1883:2196   */\n    tag_15:\n        /* \"#utility.yul\":1996:2000   */\n      0x00\n        /* \"#utility.yul\":2034:2036   */\n      0x20\n        /* \"#utility.yul\":2023:2032   */\n      dup3\n        /* \"#utility.yul\":2019:2037   */\n      add\n        /* \"#utility.yul\":2011:2037   */\n      swap1\n      pop\n        /* \"#utility.yul\":2083:2092   */\n      dup2\n        /* \"#utility.yul\":2077:2081   */\n      dup2\n        /* \"#utility.yul\":2073:2093   */\n      sub\n        /* \"#utility.yul\":2069:2070   */\n      0x00\n        /* \"#utility.yul\":2058:2067   */\n      dup4\n        /* \"#utility.yul\":2054:2071   */\n      add\n        /* \"#utility.yul\":2047:2094   */\n      mstore\n        /* \"#utility.yul\":2111:2189   */\n      tag_139\n        /* \"#utility.yul\":2184:2188   */\n      dup2\n        /* \"#utility.yul\":2175:2181   */\n      dup5\n        /* \"#utility.yul\":2111:2189   */\n      tag_100\n      jump\t// in\n    tag_139:\n        /* \"#utility.yul\":2103:2189   */\n      swap1\n      pop\n        /* \"#utility.yul\":1883:2196   */\n      swap3\n      swap2\n      pop\n      pop\n      jump\t// out\n        /* \"#utility.yul\":2202:2424   */\n    tag_101:\n        /* \"#utility.yul\":2342:2376   */\n      0x4f6e6c7920617262697465722063616e2063616c6c20746869732066756e6374\n        /* \"#utility.yul\":2338:2339   */\n      0x00\n        /* \"#utility.yul\":2330:2336   */\n      dup3\n        /* \"#utility.yul\":2326:2340   */\n      add\n        /* \"#utility.yul\":2319:2377   */\n      mstore\n        /* \"#utility.yul\":2411:2416   */\n      0x696f6e0000000000000000000000000000000000000000000000000000000000\n        /* \"#utility.yul\":2406:2408   */\n      0x20\n        /* \"#utility.yul\":2398:2404   */\n      dup3\n        /* \"#utility.yul\":2394:2409   */\n      add\n        /* \"#utility.yul\":2387:2417   */\n      mstore\n        /* \"#utility.yul\":2202:2424   */\n      pop\n      jump\t// out\n        /* \"#utility.yul\":2430:2796   */\n    tag_102:\n        /* \"#utility.yul\":2572:2575   */\n      0x00\n        /* \"#utility.yul\":2593:2660   */\n      tag_142\n        /* \"#utility.yul\":2657:2659   */\n      0x23\n        /* \"#utility.yul\":2652:2655   */\n      dup4\n        /* \"#utility.yul\":2593:2660   */\n      tag_97\n      jump\t// in\n    tag_142:\n        /* \"#utility.yul\":2586:2660   */\n      swap2\n      pop\n        /* \"#utility.yul\":2669:2762   */\n      tag_143\n        /* \"#utility.yul\":2758:2761   */\n      dup3\n        /* \"#utility.yul\":2669:2762   */\n      tag_101\n      jump\t// in\n    tag_143:\n        /* \"#utility.yul\":2787:2789   */\n      0x40\n        /* \"#utility.yul\":2782:2785   */\n      dup3\n        /* \"#utility.yul\":2778:2790   */\n      add\n        /* \"#utility.yul\":2771:2790   */\n      swap1\n      pop\n        /* \"#utility.yul\":2430:2796   */\n      swap2\n      swap1\n      pop\n      jump\t// out\n        /* \"#utility.yul\":2802:3221   */\n    tag_47:\n        /* \"#utility.yul\":2968:2972   */\n      0x00\n        /* \"#utility.yul\":3006:3008   */\n      0x20\n        /* \"#utility.yul\":2995:3004   */\n      dup3\n        /* \"#utility.yul\":2991:3009   */\n      add\n        /* \"#utility.yul\":2983:3009   */\n      swap1\n      pop\n        /* \"#utility.yul\":3055:3064   */\n      dup2\n        /* \"#utility.yul\":3049:3053   */\n      dup2\n        /* \"#utility.yul\":3045:3065   */\n      sub\n        /* \"#utility.yul\":3041:3042   */\n      0x00\n        /* \"#utility.yul\":3030:3039   */\n      dup4\n        /* \"#utility.yul\":3026:3043   */\n      add\n        /* \"#utility.yul\":3019:3066   */\n      mstore\n        /* \"#utility.yul\":3083:3214   */\n      tag_145\n        /* \"#utility.yul\":3209:3213   */\n      dup2\n        /* \"#utility.yul\":3083:3214   */\n      tag_102\n      jump\t// in\n    tag_145:\n        /* \"#utility.yul\":3075:3214   */\n      swap1\n      pop\n        /* \"#utility.yul\":2802:3221   */\n      swap2\n      swap1\n      pop\n      jump\t// out\n        /* \"#utility.yul\":3227:3393   */\n    tag_103:\n        /* \"#utility.yul\":3367:3385   */\n      0x416c72656164792072656c656173656400000000000000000000000000000000\n        /* \"#utility.yul\":3363:3364   */\n      0x00\n        /* \"#utility.yul\":3355:3361   */\n      dup3\n        /* \"#utility.yul\":3351:3365   */\n      add\n        /* \"#utility.yul\":3344:3386   */\n      mstore\n        /* \"#utility.yul\":3227:3393   */\n      pop\n      jump\t// out\n        /* \"#utility.yul\":3399:3765   */\n    tag_104:\n        /* \"#utility.yul\":3541:3544   */\n      0x00\n        /* \"#utility.yul\":3562:3629   */\n      tag_148\n        /* \"#utility.yul\":3626:3628   */\n      0x10\n        /* \"#utility.yul\":3621:3624   */\n      dup4\n        /* \"#utility.yul\":3562:3629   */\n      tag_97\n      jump\t// in\n    tag_148:\n        /* \"#utility.yul\":3555:3629   */\n      swap2\n      pop\n        /* \"#utility.yul\":3638:3731   */\n      tag_149\n        /* \"#utility.yul\":3727:3730   */\n      dup3\n        /* \"#utility.yul\":3638:3731   */\n      tag_103\n      jump\t// in\n    tag_149:\n        /* \"#utility.yul\":3756:3758   */\n      0x20\n        /* \"#utility.yul\":3751:3754   */\n      dup3\n        /* \"#utility.yul\":3747:3759   */\n      add\n        /* \"#utility.yul\":3740:3759   */\n      swap1\n      pop\n        /* \"#utility.yul\":3399:3765   */\n      swap2\n      swap1\n      pop\n      jump\t// out\n        /* \"#utility.yul\":3771:4190   */\n    tag_55:\n        /* \"#utility.yul\":3937:3941   */\n      0x00\n        /* \"#utility.yul\":3975:3977   */\n      0x20\n        /* \"#utility.yul\":3964:3973   */\n      dup3\n        /* \"#utility.yul\":3960:3978   */\n      add\n        /* \"#utility.yul\":3952:3978   */\n      swap1\n      pop\n        /* \"#utility.yul\":4024:4033   */\n      dup2\n        /* \"#utility.yul\":4018:4022   */\n      dup2\n        /* \"#utility.yul\":4014:4034   */\n      sub\n        /* \"#utility.yul\":4010:4011   */\n      0x00\n        /* \"#utility.yul\":3999:4008   */\n      dup4\n        /* \"#utility.yul\":3995:4012   */\n      add\n        /* \"#utility.yul\":3988:4035   */\n      mstore\n        /* \"#utility.yul\":4052:4183   */\n      tag_151\n        /* \"#utility.yul\":4178:4182   */\n      dup2\n        /* \"#utility.yul\":4052:4183   */\n      tag_104\n      jump\t// in\n    tag_151:\n        /* \"#utility.yul\":4044:4183   */\n      swap1\n      pop\n        /* \"#utility.yul\":3771:4190   */\n      swap2\n      swap1\n      pop\n      jump\t// out\n        /* \"#utility.yul\":4196:4322   */\n    tag_105:\n        /* \"#utility.yul\":4233:4240   */\n      0x00\n        /* \"#utility.yul\":4273:4315   */\n      0xffffffffffffffffffffffffffffffffffffffff\n        /* \"#utility.yul\":4266:4271   */\n      dup3\n        /* \"#utility.yul\":4262:4316   */\n      and\n        /* \"#utility.yul\":4251:4316   */\n      swap1\n      pop\n        /* \"#utility.yul\":4196:4322   */\n      swap2\n      swap1\n      pop\n      jump\t// out\n        /* \"#utility.yul\":4328:4424   */\n    tag_106:\n        /* \"#utility.yul\":4365:4372   */\n      0x00\n        /* \"#utility.yul\":4394:4418   */\n      tag_154\n        /* \"#utility.yul\":4412:4417   */\n      dup3\n        /* \"#utility.yul\":4394:4418   */\n      tag_105\n      jump\t// in\n    tag_154:\n        /* \"#utility.yul\":4383:4418   */\n      swap1\n      pop\n        /* \"#utility.yul\":4328:4424   */\n      swap2\n      swap1\n      pop\n      jump\t// out\n        /* \"#utility.yul\":4430:4548   */\n    tag_107:\n        /* \"#utility.yul\":4517:4541   */\n      tag_156\n        /* \"#utility.yul\":4535:4540   */\n      dup2\n        /* \"#utility.yul\":4517:4541   */\n      tag_106\n      jump\t// in\n    tag_156:\n        /* \"#utility.yul\":4512:4515   */\n      dup3\n        /* \"#utility.yul\":4505:4542   */\n      mstore\n        /* \"#utility.yul\":4430:4548   */\n      pop\n      pop\n      jump\t// out\n        /* \"#utility.yul\":4554:4886   */\n    tag_61:\n        /* \"#utility.yul\":4675:4679   */\n      0x00\n        /* \"#utility.yul\":4713:4715   */\n      0x40\n        /* \"#utility.yul\":4702:4711   */\n      dup3\n        /* \"#utility.yul\":4698:4716   */\n      add\n        /* \"#utility.yul\":4690:4716   */\n      swap1\n      pop\n        /* \"#utility.yul\":4726:4797   */\n      tag_158\n        /* \"#utility.yul\":4794:4795   */\n      0x00\n        /* \"#utility.yul\":4783:4792   */\n      dup4\n        /* \"#utility.yul\":4779:4796   */\n      add\n        /* \"#utility.yul\":4770:4776   */\n      dup6\n        /* \"#utility.yul\":4726:4797   */\n      tag_107\n      jump\t// in\n    tag_158:\n        /* \"#utility.yul\":4807:4879   */\n      tag_159\n        /* \"#utility.yul\":4875:4877   */\n      0x20\n        /* \"#utility.yul\":4864:4873   */\n      dup4\n        /* \"#utility.yul\":4860:4878   */\n      add\n        /* \"#utility.yul\":4851:4857   */\n      dup5\n        /* \"#utility.yul\":4807:4879   */\n      tag_107\n      jump\t// in\n    tag_159:\n        /* \"#utility.yul\":4554:4886   */\n      swap4\n      swap3\n      pop\n      pop\n      pop\n      jump\t// out\n        /* \"#utility.yul\":4892:5062   */\n    tag_108:\n        /* \"#utility.yul\":5032:5054   */\n      0x4974656d206e6f74207368697070656420796574000000000000000000000000\n        /* \"#utility.yul\":5028:5029   */\n      0x00\n        /* \"#utility.yul\":5020:5026   */\n      dup3\n        /* \"#utility.yul\":5016:5030   */\n      add\n        /* \"#utility.yul\":5009:5055   */\n      mstore\n        /* \"#utility.yul\":4892:5062   */\n      pop\n      jump\t// out\n        /* \"#utility.yul\":5068:5434   */\n    tag_109:\n        /* \"#utility.yul\":5210:5213   */\n      0x00\n        /* \"#utility.yul\":5231:5298   */\n      tag_162\n        /* \"#utility.yul\":5295:5297   */\n      0x14\n        /* \"#utility.yul\":5290:5293   */\n      dup4\n        /* \"#utility.yul\":5231:5298   */\n      tag_97\n      jump\t// in\n    tag_162:\n        /* \"#utility.yul\":5224:5298   */\n      swap2\n      pop\n        /* \"#utility.yul\":5307:5400   */\n      tag_163\n        /* \"#utility.yul\":5396:5399   */\n      dup3\n        /* \"#utility.yul\":5307:5400   */\n      tag_108\n      jump\t// in\n    tag_163:\n        /* \"#utility.yul\":5425:5427   */\n      0x20\n        /* \"#utility.yul\":5420:5423   */\n      dup3\n        /* \"#utility.yul\":5416:5428   */\n      add\n        /* \"#utility.yul\":5409:5428   */\n      swap1\n      pop\n        /* \"#utility.yul\":5068:5434   */\n      swap2\n      swap1\n      pop\n      jump\t// out\n        /* \"#utility.yul\":5440:5859   */\n    tag_69:\n        /* \"#utility.yul\":5606:5610   */\n      0x00\n        /* \"#utility.yul\":5644:5646   */\n      0x20\n        /* \"#utility.yul\":5633:5642   */\n      dup3\n        /* \"#utility.yul\":5629:5647   */\n      add\n        /* \"#utility.yul\":5621:5647   */\n      swap1\n      pop\n        /* \"#utility.yul\":5693:5702   */\n      dup2\n        /* \"#utility.yul\":5687:5691   */\n      dup2\n        /* \"#utility.yul\":5683:5703   */\n      sub\n        /* \"#utility.yul\":5679:5680   */\n      0x00\n        /* \"#utility.yul\":5668:5677   */\n      dup4\n        /* \"#utility.yul\":5664:5681   */\n      add\n        /* \"#utility.yul\":5657:5704   */\n      mstore\n        /* \"#utility.yul\":5721:5852   */\n      tag_165\n        /* \"#utility.yul\":5847:5851   */\n      dup2\n        /* \"#utility.yul\":5721:5852   */\n      tag_109\n      jump\t// in\n    tag_165:\n        /* \"#utility.yul\":5713:5852   */\n      swap1\n      pop\n        /* \"#utility.yul\":5440:5859   */\n      swap2\n      swap1\n      pop\n      jump\t// out\n        /* \"#utility.yul\":5865:6047   */\n    tag_110:\n        /* \"#utility.yul\":6005:6039   */\n      0x4f6e6c792062757965722063616e20636f6e6669726d20726563696576696e67\n        /* \"#utility.yul\":6001:6002   */\n      0x00\n        /* \"#utility.yul\":5993:5999   */\n      dup3\n        /* \"#utility.yul\":5989:6003   */\n      add\n        /* \"#utility.yul\":5982:6040   */\n      mstore\n        /* \"#utility.yul\":5865:6047   */\n      pop\n      jump\t// out\n        /* \"#utility.yul\":6053:6419   */\n    tag_111:\n        /* \"#utility.yul\":6195:6198   */\n      0x00\n        /* \"#utility.yul\":6216:6283   */\n      tag_168\n        /* \"#utility.yul\":6280:6282   */\n      0x20\n        /* \"#utility.yul\":6275:6278   */\n      dup4\n        /* \"#utility.yul\":6216:6283   */\n      tag_97\n      jump\t// in\n    tag_168:\n        /* \"#utility.yul\":6209:6283   */\n      swap2\n      pop\n        /* \"#utility.yul\":6292:6385   */\n      tag_169\n        /* \"#utility.yul\":6381:6384   */\n      dup3\n        /* \"#utility.yul\":6292:6385   */\n      tag_110\n      jump\t// in\n    tag_169:\n        /* \"#utility.yul\":6410:6412   */\n      0x20\n        /* \"#utility.yul\":6405:6408   */\n      dup3\n        /* \"#utility.yul\":6401:6413   */\n      add\n        /* \"#utility.yul\":6394:6413   */\n      swap1\n      pop\n        /* \"#utility.yul\":6053:6419   */\n      swap2\n      swap1\n      pop\n      jump\t// out\n        /* \"#utility.yul\":6425:6844   */\n    tag_72:\n        /* \"#utility.yul\":6591:6595   */\n      0x00\n        /* \"#utility.yul\":6629:6631   */\n      0x20\n        /* \"#utility.yul\":6618:6627   */\n      dup3\n        /* \"#utility.yul\":6614:6632   */\n      add\n        /* \"#utility.yul\":6606:6632   */\n      swap1\n      pop\n        /* \"#utility.yul\":6678:6687   */\n      dup2\n        /* \"#utility.yul\":6672:6676   */\n      dup2\n        /* \"#utility.yul\":6668:6688   */\n      sub\n        /* \"#utility.yul\":6664:6665   */\n      0x00\n        /* \"#utility.yul\":6653:6662   */\n      dup4\n        /* \"#utility.yul\":6649:6666   */\n      add\n        /* \"#utility.yul\":6642:6689   */\n      mstore\n        /* \"#utility.yul\":6706:6837   */\n      tag_171\n        /* \"#utility.yul\":6832:6836   */\n      dup2\n        /* \"#utility.yul\":6706:6837   */\n      tag_111\n      jump\t// in\n    tag_171:\n        /* \"#utility.yul\":6698:6837   */\n      swap1\n      pop\n        /* \"#utility.yul\":6425:6844   */\n      swap2\n      swap1\n      pop\n      jump\t// out\n        /* \"#utility.yul\":6850:7030   */\n    tag_112:\n        /* \"#utility.yul\":6990:7022   */\n      0x4d7573742062652066756e646564206265666f7265207368697070696e670000\n        /* \"#utility.yul\":6986:6987   */\n      0x00\n        /* \"#utility.yul\":6978:6984   */\n      dup3\n        /* \"#utility.yul\":6974:6988   */\n      add\n        /* \"#utility.yul\":6967:7023   */\n      mstore\n        /* \"#utility.yul\":6850:7030   */\n      pop\n      jump\t// out\n        /* \"#utility.yul\":7036:7402   */\n    tag_113:\n        /* \"#utility.yul\":7178:7181   */\n      0x00\n        /* \"#utility.yul\":7199:7266   */\n      tag_174\n        /* \"#utility.yul\":7263:7265   */\n      0x1e\n        /* \"#utility.yul\":7258:7261   */\n      dup4\n        /* \"#utility.yul\":7199:7266   */\n      tag_97\n      jump\t// in\n    tag_174:\n        /* \"#utility.yul\":7192:7266   */\n      swap2\n      pop\n        /* \"#utility.yul\":7275:7368   */\n      tag_175\n        /* \"#utility.yul\":7364:7367   */\n      dup3\n        /* \"#utility.yul\":7275:7368   */\n      tag_112\n      jump\t// in\n    tag_175:\n        /* \"#utility.yul\":7393:7395   */\n      0x20\n        /* \"#utility.yul\":7388:7391   */\n      dup3\n        /* \"#utility.yul\":7384:7396   */\n      add\n        /* \"#utility.yul\":7377:7396   */\n      swap1\n      pop\n        /* \"#utility.yul\":7036:7402   */\n      swap2\n      swap1\n      pop\n      jump\t// out\n        /* \"#utility.yul\":7408:7827   */\n    tag_85:\n        /* \"#utility.yul\":7574:7578   */\n      0x00\n        /* \"#utility.yul\":7612:7614   */\n      0x20\n        /* \"#utility.yul\":7601:7610   */\n      dup3\n        /* \"#utility.yul\":7597:7615   */\n      add\n        /* \"#utility.yul\":7589:7615   */\n      swap1\n      pop\n        /* \"#utility.yul\":7661:7670   */\n      dup2\n        /* \"#utility.yul\":7655:7659   */\n      dup2\n        /* \"#utility.yul\":7651:7671   */\n      sub\n        /* \"#utility.yul\":7647:7648   */\n      0x00\n        /* \"#utility.yul\":7636:7645   */\n      dup4\n        /* \"#utility.yul\":7632:7649   */\n      add\n        /* \"#utility.yul\":7625:7672   */\n      mstore\n        /* \"#utility.yul\":7689:7820   */\n      tag_177\n        /* \"#utility.yul\":7815:7819   */\n      dup2\n        /* \"#utility.yul\":7689:7820   */\n      tag_113\n      jump\t// in\n    tag_177:\n        /* \"#utility.yul\":7681:7820   */\n      swap1\n      pop\n        /* \"#utility.yul\":7408:7827   */\n      swap2\n      swap1\n      pop\n      jump\t// out\n        /* \"#utility.yul\":7833:8003   */\n    tag_114:\n        /* \"#utility.yul\":7973:7995   */\n      0x4f6e6c792073656e6465722063616e2073686970000000000000000000000000\n        /* \"#utility.yul\":7969:7970   */\n      0x00\n        /* \"#utility.yul\":7961:7967   */\n      dup3\n        /* \"#utility.yul\":7957:7971   */\n      add\n        /* \"#utility.yul\":7950:7996   */\n      mstore\n        /* \"#utility.yul\":7833:8003   */\n      pop\n      jump\t// out\n        /* \"#utility.yul\":8009:8375   */\n    tag_115:\n        /* \"#utility.yul\":8151:8154   */\n      0x00\n        /* \"#utility.yul\":8172:8239   */\n      tag_180\n        /* \"#utility.yul\":8236:8238   */\n      0x14\n        /* \"#utility.yul\":8231:8234   */\n      dup4\n        /* \"#utility.yul\":8172:8239   */\n      tag_97\n      jump\t// in\n    tag_180:\n        /* \"#utility.yul\":8165:8239   */\n      swap2\n      pop\n        /* \"#utility.yul\":8248:8341   */\n      tag_181\n        /* \"#utility.yul\":8337:8340   */\n      dup3\n        /* \"#utility.yul\":8248:8341   */\n      tag_114\n      jump\t// in\n    tag_181:\n        /* \"#utility.yul\":8366:8368   */\n      0x20\n        /* \"#utility.yul\":8361:8364   */\n      dup3\n        /* \"#utility.yul\":8357:8369   */\n      add\n        /* \"#utility.yul\":8350:8369   */\n      swap1\n      pop\n        /* \"#utility.yul\":8009:8375   */\n      swap2\n      swap1\n      pop\n      jump\t// out\n        /* \"#utility.yul\":8381:8800   */\n    tag_88:\n        /* \"#utility.yul\":8547:8551   */\n      0x00\n        /* \"#utility.yul\":8585:8587   */\n      0x20\n        /* \"#utility.yul\":8574:8583   */\n      dup3\n        /* \"#utility.yul\":8570:8588   */\n      add\n        /* \"#utility.yul\":8562:8588   */\n      swap1\n      pop\n        /* \"#utility.yul\":8634:8643   */\n      dup2\n        /* \"#utility.yul\":8628:8632   */\n      dup2\n        /* \"#utility.yul\":8624:8644   */\n      sub\n        /* \"#utility.yul\":8620:8621   */\n      0x00\n        /* \"#utility.yul\":8609:8618   */\n      dup4\n        /* \"#utility.yul\":8605:8622   */\n      add\n        /* \"#utility.yul\":8598:8645   */\n      mstore\n        /* \"#utility.yul\":8662:8793   */\n      tag_183\n        /* \"#utility.yul\":8788:8792   */\n      dup2\n        /* \"#utility.yul\":8662:8793   */\n      tag_115\n      jump\t// in\n    tag_183:\n        /* \"#utility.yul\":8654:8793   */\n      swap1\n      pop\n        /* \"#utility.yul\":8381:8800   */\n      swap2\n      swap1\n      pop\n      jump\t// out\n\n    auxdata: 0xa2646970667358221220a0949e49b262bf4cad7c39b8231155e428d05c9ed5ef9070cd80c390c37738f264736f6c634300081e0033\n}\n",
				"bytecode": {
					"linkReferences": {},
					"object": "60e06040526040516110373803806110378339818101604052810190610025919061019d565b5f3411610067576040517f08c379a000000000000000000000000000000000000000000000000000000000815260040161005e90610235565b60405180910390fd5b8173ffffffffffffffffffffffffffffffffffffffff1660808173ffffffffffffffffffffffffffffffffffffffff16815250508073ffffffffffffffffffffffffffffffffffffffff1660a08173ffffffffffffffffffffffffffffffffffffffff16815250503460c081815250505f5f5f6101000a81548160ff021916908360038111156100fa576100f9610253565b5b02179055507f5af8184bef8e4b45eb9f6ed7734d04da38ced226495548f46e0c8ff8d7d9a52433346040516101309291906102a7565b60405180910390a150506102ce565b5f5ffd5b5f73ffffffffffffffffffffffffffffffffffffffff82169050919050565b5f61016c82610143565b9050919050565b61017c81610162565b8114610186575f5ffd5b50565b5f8151905061019781610173565b92915050565b5f5f604083850312156101b3576101b261013f565b5b5f6101c085828601610189565b92505060206101d185828601610189565b9150509250929050565b5f82825260208201905092915050565b7f4d7573742073656e6420457468657220746f2066756e640000000000000000005f82015250565b5f61021f6017836101db565b915061022a826101eb565b602082019050919050565b5f6020820190508181035f83015261024c81610213565b9050919050565b7f4e487b71000000000000000000000000000000000000000000000000000000005f52602160045260245ffd5b61028981610162565b82525050565b5f819050919050565b6102a18161028f565b82525050565b5f6040820190506102ba5f830185610280565b6102c76020830184610298565b9392505050565b60805160a05160c051610d076103305f395f818161040a015261065101525f81816103d0015281816104b301528181610560015281816106bc015261088201525f8181610617015281816106dd0152818161078901526108610152610d075ff3fe608060405234801561000f575f5ffd5b5060043610610055575f3560e01c80630c3f6acf146100595780631865c57d14610077578063590e1ae31461009557806383a6deb51461009f578063b6bef7b3146100a9575b5f5ffd5b6100616100b3565b60405161006e919061092c565b60405180910390f35b61007f6100c4565b60405161008c91906109b5565b60405180910390f35b61009d6102d8565b005b6100a76104ea565b005b6100b1610714565b005b5f5f9054906101000a900460ff1681565b60605f60038111156100d9576100d86108b9565b5b5f5f9054906101000a900460ff1660038111156100f9576100f86108b9565b5b0361013b576040518060400160405280600681526020017f46756e646564000000000000000000000000000000000000000000000000000081525090506102d5565b6001600381111561014f5761014e6108b9565b5b5f5f9054906101000a900460ff16600381111561016f5761016e6108b9565b5b036101b1576040518060400160405280600781526020017f536869707065640000000000000000000000000000000000000000000000000081525090506102d5565b600260038111156101c5576101c46108b9565b5b5f5f9054906101000a900460ff1660038111156101e5576101e46108b9565b5b03610227576040518060400160405280600881526020017f52656c656173656400000000000000000000000000000000000000000000000081525090506102d5565b60038081111561023a576102396108b9565b5b5f5f9054906101000a900460ff16600381111561025a576102596108b9565b5b0361029c576040518060400160405280600881526020017f526566756e64656400000000000000000000000000000000000000000000000081525090506102d5565b6040518060400160405280600781526020017f556e6b6e6f776e0000000000000000000000000000000000000000000000000081525090505b90565b735b38da6a701c568545dcfcb03fcb875f56beddc473ffffffffffffffffffffffffffffffffffffffff163373ffffffffffffffffffffffffffffffffffffffff161461035a576040517f08c379a000000000000000000000000000000000000000000000000000000000815260040161035190610a45565b60405180910390fd5b6002600381111561036e5761036d6108b9565b5b5f5f9054906101000a900460ff16600381111561038e5761038d6108b9565b5b036103ce576040517f08c379a00000000000000000000000000000000000000000000000000000000081526004016103c590610aad565b60405180910390fd5b7f000000000000000000000000000000000000000000000000000000000000000073ffffffffffffffffffffffffffffffffffffffff166108fc7f000000000000000000000000000000000000000000000000000000000000000090811502906040515f60405180830381858888f19350505050158015610451573d5f5f3e3d5ffd5b5060035f5f6101000a81548160ff02191690836003811115610476576104756108b9565b5b02179055507f51ebc7481979ebbd2e5cf0be7bb298c0a8dfe2c94e2b37ec845b412b2b93df52735b38da6a701c568545dcfcb03fcb875f56beddc47f00000000000000000000000000000000000000000000000000000000000000006040516104e0929190610b0a565b60405180910390a1565b600160038111156104fe576104fd6108b9565b5b5f5f9054906101000a900460ff16600381111561051e5761051d6108b9565b5b1461055e576040517f08c379a000000000000000000000000000000000000000000000000000000000815260040161055590610b7b565b60405180910390fd5b7f000000000000000000000000000000000000000000000000000000000000000073ffffffffffffffffffffffffffffffffffffffff163373ffffffffffffffffffffffffffffffffffffffff16146105ec576040517f08c379a00000000000000000000000000000000000000000000000000000000081526004016105e390610be3565b60405180910390fd5b60025f5f6101000a81548160ff021916908360038111156106105761060f6108b9565b5b02179055507f000000000000000000000000000000000000000000000000000000000000000073ffffffffffffffffffffffffffffffffffffffff166108fc7f000000000000000000000000000000000000000000000000000000000000000090811502906040515f60405180830381858888f19350505050158015610698573d5f5f3e3d5ffd5b507fd42a2a2115b903fc93230a2a52f62600dceec513a8dafd08401c374929ad9f5d7f00000000000000000000000000000000000000000000000000000000000000007f000000000000000000000000000000000000000000000000000000000000000060405161070a929190610b0a565b60405180910390a1565b5f6003811115610727576107266108b9565b5b5f5f9054906101000a900460ff166003811115610747576107466108b9565b5b14610787576040517f08c379a000000000000000000000000000000000000000000000000000000000815260040161077e90610c4b565b60405180910390fd5b7f000000000000000000000000000000000000000000000000000000000000000073ffffffffffffffffffffffffffffffffffffffff163373ffffffffffffffffffffffffffffffffffffffff1614610815576040517f08c379a000000000000000000000000000000000000000000000000000000000815260040161080c90610cb3565b60405180910390fd5b60015f5f6101000a81548160ff02191690836003811115610839576108386108b9565b5b02179055507f4cda03c40a91251de090a894ea66b12aab81e02ae100aa362c7f1800b3fb3af07f00000000000000000000000000000000000000000000000000000000000000007f00000000000000000000000000000000000000000000000000000000000000006040516108af929190610b0a565b60405180910390a1565b7f4e487b71000000000000000000000000000000000000000000000000000000005f52602160045260245ffd5b600481106108f7576108f66108b9565b5b50565b5f819050610907826108e6565b919050565b5f610916826108fa565b9050919050565b6109268161090c565b82525050565b5f60208201905061093f5f83018461091d565b92915050565b5f81519050919050565b5f82825260208201905092915050565b8281835e5f83830152505050565b5f601f19601f8301169050919050565b5f61098782610945565b610991818561094f565b93506109a181856020860161095f565b6109aa8161096d565b840191505092915050565b5f6020820190508181035f8301526109cd818461097d565b905092915050565b7f4f6e6c7920617262697465722063616e2063616c6c20746869732066756e63745f8201527f696f6e0000000000000000000000000000000000000000000000000000000000602082015250565b5f610a2f60238361094f565b9150610a3a826109d5565b604082019050919050565b5f6020820190508181035f830152610a5c81610a23565b9050919050565b7f416c72656164792072656c6561736564000000000000000000000000000000005f82015250565b5f610a9760108361094f565b9150610aa282610a63565b602082019050919050565b5f6020820190508181035f830152610ac481610a8b565b9050919050565b5f73ffffffffffffffffffffffffffffffffffffffff82169050919050565b5f610af482610acb565b9050919050565b610b0481610aea565b82525050565b5f604082019050610b1d5f830185610afb565b610b2a6020830184610afb565b9392505050565b7f4974656d206e6f742073686970706564207965740000000000000000000000005f82015250565b5f610b6560148361094f565b9150610b7082610b31565b602082019050919050565b5f6020820190508181035f830152610b9281610b59565b9050919050565b7f4f6e6c792062757965722063616e20636f6e6669726d20726563696576696e675f82015250565b5f610bcd60208361094f565b9150610bd882610b99565b602082019050919050565b5f6020820190508181035f830152610bfa81610bc1565b9050919050565b7f4d7573742062652066756e646564206265666f7265207368697070696e6700005f82015250565b5f610c35601e8361094f565b9150610c4082610c01565b602082019050919050565b5f6020820190508181035f830152610c6281610c29565b9050919050565b7f4f6e6c792073656e6465722063616e20736869700000000000000000000000005f82015250565b5f610c9d60148361094f565b9150610ca882610c69565b602082019050919050565b5f6020820190508181035f830152610cca81610c91565b905091905056fea2646970667358221220a0949e49b262bf4cad7c39b8231155e428d05c9ed5ef9070cd80c390c37738f264736f6c634300081e0033",
					"opcodes": "PUSH1 0xE0 PUSH1 0x40 MSTORE PUSH1 0x40 MLOAD PUSH2 0x1037 CODESIZE SUB DUP1 PUSH2 0x1037 DUP4 CODECOPY DUP2 DUP2 ADD PUSH1 0x40 MSTORE DUP2 ADD SWAP1 PUSH2 0x25 SWAP2 SWAP1 PUSH2 0x19D JUMP JUMPDEST PUSH0 CALLVALUE GT PUSH2 0x67 JUMPI PUSH1 0x40 MLOAD PUSH32 0x8C379A000000000000000000000000000000000000000000000000000000000 DUP2 MSTORE PUSH1 0x4 ADD PUSH2 0x5E SWAP1 PUSH2 0x235 JUMP JUMPDEST PUSH1 0x40 MLOAD DUP1 SWAP2 SUB SWAP1 REVERT JUMPDEST DUP2 PUSH20 0xFFFFFFFFFFFFFFFFFFFFFFFFFFFFFFFFFFFFFFFF AND PUSH1 0x80 DUP2 PUSH20 0xFFFFFFFFFFFFFFFFFFFFFFFFFFFFFFFFFFFFFFFF AND DUP2 MSTORE POP POP DUP1 PUSH20 0xFFFFFFFFFFFFFFFFFFFFFFFFFFFFFFFFFFFFFFFF AND PUSH1 0xA0 DUP2 PUSH20 0xFFFFFFFFFFFFFFFFFFFFFFFFFFFFFFFFFFFFFFFF AND DUP2 MSTORE POP POP CALLVALUE PUSH1 0xC0 DUP2 DUP2 MSTORE POP POP PUSH0 PUSH0 PUSH0 PUSH2 0x100 EXP DUP2 SLOAD DUP2 PUSH1 0xFF MUL NOT AND SWAP1 DUP4 PUSH1 0x3 DUP2 GT ISZERO PUSH2 0xFA JUMPI PUSH2 0xF9 PUSH2 0x253 JUMP JUMPDEST JUMPDEST MUL OR SWAP1 SSTORE POP PUSH32 0x5AF8184BEF8E4B45EB9F6ED7734D04DA38CED226495548F46E0C8FF8D7D9A524 CALLER CALLVALUE PUSH1 0x40 MLOAD PUSH2 0x130 SWAP3 SWAP2 SWAP1 PUSH2 0x2A7 JUMP JUMPDEST PUSH1 0x40 MLOAD DUP1 SWAP2 SUB SWAP1 LOG1 POP POP PUSH2 0x2CE JUMP JUMPDEST PUSH0 PUSH0 REVERT JUMPDEST PUSH0 PUSH20 0xFFFFFFFFFFFFFFFFFFFFFFFFFFFFFFFFFFFFFFFF DUP3 AND SWAP1 POP SWAP2 SWAP1 POP JUMP JUMPDEST PUSH0 PUSH2 0x16C DUP3 PUSH2 0x143 JUMP JUMPDEST SWAP1 POP SWAP2 SWAP1 POP JUMP JUMPDEST PUSH2 0x17C DUP2 PUSH2 0x162 JUMP JUMPDEST DUP2 EQ PUSH2 0x186 JUMPI PUSH0 PUSH0 REVERT JUMPDEST POP JUMP JUMPDEST PUSH0 DUP2 MLOAD SWAP1 POP PUSH2 0x197 DUP2 PUSH2 0x173 JUMP JUMPDEST SWAP3 SWAP2 POP POP JUMP JUMPDEST PUSH0 PUSH0 PUSH1 0x40 DUP4 DUP6 SUB SLT ISZERO PUSH2 0x1B3 JUMPI PUSH2 0x1B2 PUSH2 0x13F JUMP JUMPDEST JUMPDEST PUSH0 PUSH2 0x1C0 DUP6 DUP3 DUP7 ADD PUSH2 0x189 JUMP JUMPDEST SWAP3 POP POP PUSH1 0x20 PUSH2 0x1D1 DUP6 DUP3 DUP7 ADD PUSH2 0x189 JUMP JUMPDEST SWAP2 POP POP SWAP3 POP SWAP3 SWAP1 POP JUMP JUMPDEST PUSH0 DUP3 DUP3 MSTORE PUSH1 0x20 DUP3 ADD SWAP1 POP SWAP3 SWAP2 POP POP JUMP JUMPDEST PUSH32 0x4D7573742073656E6420457468657220746F2066756E64000000000000000000 PUSH0 DUP3 ADD MSTORE POP JUMP JUMPDEST PUSH0 PUSH2 0x21F PUSH1 0x17 DUP4 PUSH2 0x1DB JUMP JUMPDEST SWAP2 POP PUSH2 0x22A DUP3 PUSH2 0x1EB JUMP JUMPDEST PUSH1 0x20 DUP3 ADD SWAP1 POP SWAP2 SWAP1 POP JUMP JUMPDEST PUSH0 PUSH1 0x20 DUP3 ADD SWAP1 POP DUP2 DUP2 SUB PUSH0 DUP4 ADD MSTORE PUSH2 0x24C DUP2 PUSH2 0x213 JUMP JUMPDEST SWAP1 POP SWAP2 SWAP1 POP JUMP JUMPDEST PUSH32 0x4E487B7100000000000000000000000000000000000000000000000000000000 PUSH0 MSTORE PUSH1 0x21 PUSH1 0x4 MSTORE PUSH1 0x24 PUSH0 REVERT JUMPDEST PUSH2 0x289 DUP2 PUSH2 0x162 JUMP JUMPDEST DUP3 MSTORE POP POP JUMP JUMPDEST PUSH0 DUP2 SWAP1 POP SWAP2 SWAP1 POP JUMP JUMPDEST PUSH2 0x2A1 DUP2 PUSH2 0x28F JUMP JUMPDEST DUP3 MSTORE POP POP JUMP JUMPDEST PUSH0 PUSH1 0x40 DUP3 ADD SWAP1 POP PUSH2 0x2BA PUSH0 DUP4 ADD DUP6 PUSH2 0x280 JUMP JUMPDEST PUSH2 0x2C7 PUSH1 0x20 DUP4 ADD DUP5 PUSH2 0x298 JUMP JUMPDEST SWAP4 SWAP3 POP POP POP JUMP JUMPDEST PUSH1 0x80 MLOAD PUSH1 0xA0 MLOAD PUSH1 0xC0 MLOAD PUSH2 0xD07 PUSH2 0x330 PUSH0 CODECOPY PUSH0 DUP2 DUP2 PUSH2 0x40A ADD MSTORE PUSH2 0x651 ADD MSTORE PUSH0 DUP2 DUP2 PUSH2 0x3D0 ADD MSTORE DUP2 DUP2 PUSH2 0x4B3 ADD MSTORE DUP2 DUP2 PUSH2 0x560 ADD MSTORE DUP2 DUP2 PUSH2 0x6BC ADD MSTORE PUSH2 0x882 ADD MSTORE PUSH0 DUP2 DUP2 PUSH2 0x617 ADD MSTORE DUP2 DUP2 PUSH2 0x6DD ADD MSTORE DUP2 DUP2 PUSH2 0x789 ADD MSTORE PUSH2 0x861 ADD MSTORE PUSH2 0xD07 PUSH0 RETURN INVALID PUSH1 0x80 PUSH1 0x40 MSTORE CALLVALUE DUP1 ISZERO PUSH2 0xF JUMPI PUSH0 PUSH0 REVERT JUMPDEST POP PUSH1 0x4 CALLDATASIZE LT PUSH2 0x55 JUMPI PUSH0 CALLDATALOAD PUSH1 0xE0 SHR DUP1 PUSH4 0xC3F6ACF EQ PUSH2 0x59 JUMPI DUP1 PUSH4 0x1865C57D EQ PUSH2 0x77 JUMPI DUP1 PUSH4 0x590E1AE3 EQ PUSH2 0x95 JUMPI DUP1 PUSH4 0x83A6DEB5 EQ PUSH2 0x9F JUMPI DUP1 PUSH4 0xB6BEF7B3 EQ PUSH2 0xA9 JUMPI JUMPDEST PUSH0 PUSH0 REVERT JUMPDEST PUSH2 0x61 PUSH2 0xB3 JUMP JUMPDEST PUSH1 0x40 MLOAD PUSH2 0x6E SWAP2 SWAP1 PUSH2 0x92C JUMP JUMPDEST PUSH1 0x40 MLOAD DUP1 SWAP2 SUB SWAP1 RETURN JUMPDEST PUSH2 0x7F PUSH2 0xC4 JUMP JUMPDEST PUSH1 0x40 MLOAD PUSH2 0x8C SWAP2 SWAP1 PUSH2 0x9B5 JUMP JUMPDEST PUSH1 0x40 MLOAD DUP1 SWAP2 SUB SWAP1 RETURN JUMPDEST PUSH2 0x9D PUSH2 0x2D8 JUMP JUMPDEST STOP JUMPDEST PUSH2 0xA7 PUSH2 0x4EA JUMP JUMPDEST STOP JUMPDEST PUSH2 0xB1 PUSH2 0x714 JUMP JUMPDEST STOP JUMPDEST PUSH0 PUSH0 SWAP1 SLOAD SWAP1 PUSH2 0x100 EXP SWAP1 DIV PUSH1 0xFF AND DUP2 JUMP JUMPDEST PUSH1 0x60 PUSH0 PUSH1 0x3 DUP2 GT ISZERO PUSH2 0xD9 JUMPI PUSH2 0xD8 PUSH2 0x8B9 JUMP JUMPDEST JUMPDEST PUSH0 PUSH0 SWAP1 SLOAD SWAP1 PUSH2 0x100 EXP SWAP1 DIV PUSH1 0xFF AND PUSH1 0x3 DUP2 GT ISZERO PUSH2 0xF9 JUMPI PUSH2 0xF8 PUSH2 0x8B9 JUMP JUMPDEST JUMPDEST SUB PUSH2 0x13B JUMPI PUSH1 0x40 MLOAD DUP1 PUSH1 0x40 ADD PUSH1 0x40 MSTORE DUP1 PUSH1 0x6 DUP2 MSTORE PUSH1 0x20 ADD PUSH32 0x46756E6465640000000000000000000000000000000000000000000000000000 DUP2 MSTORE POP SWAP1 POP PUSH2 0x2D5 JUMP JUMPDEST PUSH1 0x1 PUSH1 0x3 DUP2 GT ISZERO PUSH2 0x14F JUMPI PUSH2 0x14E PUSH2 0x8B9 JUMP JUMPDEST JUMPDEST PUSH0 PUSH0 SWAP1 SLOAD SWAP1 PUSH2 0x100 EXP SWAP1 DIV PUSH1 0xFF AND PUSH1 0x3 DUP2 GT ISZERO PUSH2 0x16F JUMPI PUSH2 0x16E PUSH2 0x8B9 JUMP JUMPDEST JUMPDEST SUB PUSH2 0x1B1 JUMPI PUSH1 0x40 MLOAD DUP1 PUSH1 0x40 ADD PUSH1 0x40 MSTORE DUP1 PUSH1 0x7 DUP2 MSTORE PUSH1 0x20 ADD PUSH32 0x5368697070656400000000000000000000000000000000000000000000000000 DUP2 MSTORE POP SWAP1 POP PUSH2 0x2D5 JUMP JUMPDEST PUSH1 0x2 PUSH1 0x3 DUP2 GT ISZERO PUSH2 0x1C5 JUMPI PUSH2 0x1C4 PUSH2 0x8B9 JUMP JUMPDEST JUMPDEST PUSH0 PUSH0 SWAP1 SLOAD SWAP1 PUSH2 0x100 EXP SWAP1 DIV PUSH1 0xFF AND PUSH1 0x3 DUP2 GT ISZERO PUSH2 0x1E5 JUMPI PUSH2 0x1E4 PUSH2 0x8B9 JUMP JUMPDEST JUMPDEST SUB PUSH2 0x227 JUMPI PUSH1 0x40 MLOAD DUP1 PUSH1 0x40 ADD PUSH1 0x40 MSTORE DUP1 PUSH1 0x8 DUP2 MSTORE PUSH1 0x20 ADD PUSH32 0x52656C6561736564000000000000000000000000000000000000000000000000 DUP2 MSTORE POP SWAP1 POP PUSH2 0x2D5 JUMP JUMPDEST PUSH1 0x3 DUP1 DUP2 GT ISZERO PUSH2 0x23A JUMPI PUSH2 0x239 PUSH2 0x8B9 JUMP JUMPDEST JUMPDEST PUSH0 PUSH0 SWAP1 SLOAD SWAP1 PUSH2 0x100 EXP SWAP1 DIV PUSH1 0xFF AND PUSH1 0x3 DUP2 GT ISZERO PUSH2 0x25A JUMPI PUSH2 0x259 PUSH2 0x8B9 JUMP JUMPDEST JUMPDEST SUB PUSH2 0x29C JUMPI PUSH1 0x40 MLOAD DUP1 PUSH1 0x40 ADD PUSH1 0x40 MSTORE DUP1 PUSH1 0x8 DUP2 MSTORE PUSH1 0x20 ADD PUSH32 0x526566756E646564000000000000000000000000000000000000000000000000 DUP2 MSTORE POP SWAP1 POP PUSH2 0x2D5 JUMP JUMPDEST PUSH1 0x40 MLOAD DUP1 PUSH1 0x40 ADD PUSH1 0x40 MSTORE DUP1 PUSH1 0x7 DUP2 MSTORE PUSH1 0x20 ADD PUSH32 0x556E6B6E6F776E00000000000000000000000000000000000000000000000000 DUP2 MSTORE POP SWAP1 POP JUMPDEST SWAP1 JUMP JUMPDEST PUSH20 0x5B38DA6A701C568545DCFCB03FCB875F56BEDDC4 PUSH20 0xFFFFFFFFFFFFFFFFFFFFFFFFFFFFFFFFFFFFFFFF AND CALLER PUSH20 0xFFFFFFFFFFFFFFFFFFFFFFFFFFFFFFFFFFFFFFFF AND EQ PUSH2 0x35A JUMPI PUSH1 0x40 MLOAD PUSH32 0x8C379A000000000000000000000000000000000000000000000000000000000 DUP2 MSTORE PUSH1 0x4 ADD PUSH2 0x351 SWAP1 PUSH2 0xA45 JUMP JUMPDEST PUSH1 0x40 MLOAD DUP1 SWAP2 SUB SWAP1 REVERT JUMPDEST PUSH1 0x2 PUSH1 0x3 DUP2 GT ISZERO PUSH2 0x36E JUMPI PUSH2 0x36D PUSH2 0x8B9 JUMP JUMPDEST JUMPDEST PUSH0 PUSH0 SWAP1 SLOAD SWAP1 PUSH2 0x100 EXP SWAP1 DIV PUSH1 0xFF AND PUSH1 0x3 DUP2 GT ISZERO PUSH2 0x38E JUMPI PUSH2 0x38D PUSH2 0x8B9 JUMP JUMPDEST JUMPDEST SUB PUSH2 0x3CE JUMPI PUSH1 0x40 MLOAD PUSH32 0x8C379A000000000000000000000000000000000000000000000000000000000 DUP2 MSTORE PUSH1 0x4 ADD PUSH2 0x3C5 SWAP1 PUSH2 0xAAD JUMP JUMPDEST PUSH1 0x40 MLOAD DUP1 SWAP2 SUB SWAP1 REVERT JUMPDEST PUSH32 0x0 PUSH20 0xFFFFFFFFFFFFFFFFFFFFFFFFFFFFFFFFFFFFFFFF AND PUSH2 0x8FC PUSH32 0x0 SWAP1 DUP2 ISZERO MUL SWAP1 PUSH1 0x40 MLOAD PUSH0 PUSH1 0x40 MLOAD DUP1 DUP4 SUB DUP2 DUP6 DUP9 DUP9 CALL SWAP4 POP POP POP POP ISZERO DUP1 ISZERO PUSH2 0x451 JUMPI RETURNDATASIZE PUSH0 PUSH0 RETURNDATACOPY RETURNDATASIZE PUSH0 REVERT JUMPDEST POP PUSH1 0x3 PUSH0 PUSH0 PUSH2 0x100 EXP DUP2 SLOAD DUP2 PUSH1 0xFF MUL NOT AND SWAP1 DUP4 PUSH1 0x3 DUP2 GT ISZERO PUSH2 0x476 JUMPI PUSH2 0x475 PUSH2 0x8B9 JUMP JUMPDEST JUMPDEST MUL OR SWAP1 SSTORE POP PUSH32 0x51EBC7481979EBBD2E5CF0BE7BB298C0A8DFE2C94E2B37EC845B412B2B93DF52 PUSH20 0x5B38DA6A701C568545DCFCB03FCB875F56BEDDC4 PUSH32 0x0 PUSH1 0x40 MLOAD PUSH2 0x4E0 SWAP3 SWAP2 SWAP1 PUSH2 0xB0A JUMP JUMPDEST PUSH1 0x40 MLOAD DUP1 SWAP2 SUB SWAP1 LOG1 JUMP JUMPDEST PUSH1 0x1 PUSH1 0x3 DUP2 GT ISZERO PUSH2 0x4FE JUMPI PUSH2 0x4FD PUSH2 0x8B9 JUMP JUMPDEST JUMPDEST PUSH0 PUSH0 SWAP1 SLOAD SWAP1 PUSH2 0x100 EXP SWAP1 DIV PUSH1 0xFF AND PUSH1 0x3 DUP2 GT ISZERO PUSH2 0x51E JUMPI PUSH2 0x51D PUSH2 0x8B9 JUMP JUMPDEST JUMPDEST EQ PUSH2 0x55E JUMPI PUSH1 0x40 MLOAD PUSH32 0x8C379A000000000000000000000000000000000000000000000000000000000 DUP2 MSTORE PUSH1 0x4 ADD PUSH2 0x555 SWAP1 PUSH2 0xB7B JUMP JUMPDEST PUSH1 0x40 MLOAD DUP1 SWAP2 SUB SWAP1 REVERT JUMPDEST PUSH32 0x0 PUSH20 0xFFFFFFFFFFFFFFFFFFFFFFFFFFFFFFFFFFFFFFFF AND CALLER PUSH20 0xFFFFFFFFFFFFFFFFFFFFFFFFFFFFFFFFFFFFFFFF AND EQ PUSH2 0x5EC JUMPI PUSH1 0x40 MLOAD PUSH32 0x8C379A000000000000000000000000000000000000000000000000000000000 DUP2 MSTORE PUSH1 0x4 ADD PUSH2 0x5E3 SWAP1 PUSH2 0xBE3 JUMP JUMPDEST PUSH1 0x40 MLOAD DUP1 SWAP2 SUB SWAP1 REVERT JUMPDEST PUSH1 0x2 PUSH0 PUSH0 PUSH2 0x100 EXP DUP2 SLOAD DUP2 PUSH1 0xFF MUL NOT AND SWAP1 DUP4 PUSH1 0x3 DUP2 GT ISZERO PUSH2 0x610 JUMPI PUSH2 0x60F PUSH2 0x8B9 JUMP JUMPDEST JUMPDEST MUL OR SWAP1 SSTORE POP PUSH32 0x0 PUSH20 0xFFFFFFFFFFFFFFFFFFFFFFFFFFFFFFFFFFFFFFFF AND PUSH2 0x8FC PUSH32 0x0 SWAP1 DUP2 ISZERO MUL SWAP1 PUSH1 0x40 MLOAD PUSH0 PUSH1 0x40 MLOAD DUP1 DUP4 SUB DUP2 DUP6 DUP9 DUP9 CALL SWAP4 POP POP POP POP ISZERO DUP1 ISZERO PUSH2 0x698 JUMPI RETURNDATASIZE PUSH0 PUSH0 RETURNDATACOPY RETURNDATASIZE PUSH0 REVERT JUMPDEST POP PUSH32 0xD42A2A2115B903FC93230A2A52F62600DCEEC513A8DAFD08401C374929AD9F5D PUSH32 0x0 PUSH32 0x0 PUSH1 0x40 MLOAD PUSH2 0x70A SWAP3 SWAP2 SWAP1 PUSH2 0xB0A JUMP JUMPDEST PUSH1 0x40 MLOAD DUP1 SWAP2 SUB SWAP1 LOG1 JUMP JUMPDEST PUSH0 PUSH1 0x3 DUP2 GT ISZERO PUSH2 0x727 JUMPI PUSH2 0x726 PUSH2 0x8B9 JUMP JUMPDEST JUMPDEST PUSH0 PUSH0 SWAP1 SLOAD SWAP1 PUSH2 0x100 EXP SWAP1 DIV PUSH1 0xFF AND PUSH1 0x3 DUP2 GT ISZERO PUSH2 0x747 JUMPI PUSH2 0x746 PUSH2 0x8B9 JUMP JUMPDEST JUMPDEST EQ PUSH2 0x787 JUMPI PUSH1 0x40 MLOAD PUSH32 0x8C379A000000000000000000000000000000000000000000000000000000000 DUP2 MSTORE PUSH1 0x4 ADD PUSH2 0x77E SWAP1 PUSH2 0xC4B JUMP JUMPDEST PUSH1 0x40 MLOAD DUP1 SWAP2 SUB SWAP1 REVERT JUMPDEST PUSH32 0x0 PUSH20 0xFFFFFFFFFFFFFFFFFFFFFFFFFFFFFFFFFFFFFFFF AND CALLER PUSH20 0xFFFFFFFFFFFFFFFFFFFFFFFFFFFFFFFFFFFFFFFF AND EQ PUSH2 0x815 JUMPI PUSH1 0x40 MLOAD PUSH32 0x8C379A000000000000000000000000000000000000000000000000000000000 DUP2 MSTORE PUSH1 0x4 ADD PUSH2 0x80C SWAP1 PUSH2 0xCB3 JUMP JUMPDEST PUSH1 0x40 MLOAD DUP1 SWAP2 SUB SWAP1 REVERT JUMPDEST PUSH1 0x1 PUSH0 PUSH0 PUSH2 0x100 EXP DUP2 SLOAD DUP2 PUSH1 0xFF MUL NOT AND SWAP1 DUP4 PUSH1 0x3 DUP2 GT ISZERO PUSH2 0x839 JUMPI PUSH2 0x838 PUSH2 0x8B9 JUMP JUMPDEST JUMPDEST MUL OR SWAP1 SSTORE POP PUSH32 0x4CDA03C40A91251DE090A894EA66B12AAB81E02AE100AA362C7F1800B3FB3AF0 PUSH32 0x0 PUSH32 0x0 PUSH1 0x40 MLOAD PUSH2 0x8AF SWAP3 SWAP2 SWAP1 PUSH2 0xB0A JUMP JUMPDEST PUSH1 0x40 MLOAD DUP1 SWAP2 SUB SWAP1 LOG1 JUMP JUMPDEST PUSH32 0x4E487B7100000000000000000000000000000000000000000000000000000000 PUSH0 MSTORE PUSH1 0x21 PUSH1 0x4 MSTORE PUSH1 0x24 PUSH0 REVERT JUMPDEST PUSH1 0x4 DUP2 LT PUSH2 0x8F7 JUMPI PUSH2 0x8F6 PUSH2 0x8B9 JUMP JUMPDEST JUMPDEST POP JUMP JUMPDEST PUSH0 DUP2 SWAP1 POP PUSH2 0x907 DUP3 PUSH2 0x8E6 JUMP JUMPDEST SWAP2 SWAP1 POP JUMP JUMPDEST PUSH0 PUSH2 0x916 DUP3 PUSH2 0x8FA JUMP JUMPDEST SWAP1 POP SWAP2 SWAP1 POP JUMP JUMPDEST PUSH2 0x926 DUP2 PUSH2 0x90C JUMP JUMPDEST DUP3 MSTORE POP POP JUMP JUMPDEST PUSH0 PUSH1 0x20 DUP3 ADD SWAP1 POP PUSH2 0x93F PUSH0 DUP4 ADD DUP5 PUSH2 0x91D JUMP JUMPDEST SWAP3 SWAP2 POP POP JUMP JUMPDEST PUSH0 DUP2 MLOAD SWAP1 POP SWAP2 SWAP1 POP JUMP JUMPDEST PUSH0 DUP3 DUP3 MSTORE PUSH1 0x20 DUP3 ADD SWAP1 POP SWAP3 SWAP2 POP POP JUMP JUMPDEST DUP3 DUP2 DUP4 MCOPY PUSH0 DUP4 DUP4 ADD MSTORE POP POP POP JUMP JUMPDEST PUSH0 PUSH1 0x1F NOT PUSH1 0x1F DUP4 ADD AND SWAP1 POP SWAP2 SWAP1 POP JUMP JUMPDEST PUSH0 PUSH2 0x987 DUP3 PUSH2 0x945 JUMP JUMPDEST PUSH2 0x991 DUP2 DUP6 PUSH2 0x94F JUMP JUMPDEST SWAP4 POP PUSH2 0x9A1 DUP2 DUP6 PUSH1 0x20 DUP7 ADD PUSH2 0x95F JUMP JUMPDEST PUSH2 0x9AA DUP2 PUSH2 0x96D JUMP JUMPDEST DUP5 ADD SWAP2 POP POP SWAP3 SWAP2 POP POP JUMP JUMPDEST PUSH0 PUSH1 0x20 DUP3 ADD SWAP1 POP DUP2 DUP2 SUB PUSH0 DUP4 ADD MSTORE PUSH2 0x9CD DUP2 DUP5 PUSH2 0x97D JUMP JUMPDEST SWAP1 POP SWAP3 SWAP2 POP POP JUMP JUMPDEST PUSH32 0x4F6E6C7920617262697465722063616E2063616C6C20746869732066756E6374 PUSH0 DUP3 ADD MSTORE PUSH32 0x696F6E0000000000000000000000000000000000000000000000000000000000 PUSH1 0x20 DUP3 ADD MSTORE POP JUMP JUMPDEST PUSH0 PUSH2 0xA2F PUSH1 0x23 DUP4 PUSH2 0x94F JUMP JUMPDEST SWAP2 POP PUSH2 0xA3A DUP3 PUSH2 0x9D5 JUMP JUMPDEST PUSH1 0x40 DUP3 ADD SWAP1 POP SWAP2 SWAP1 POP JUMP JUMPDEST PUSH0 PUSH1 0x20 DUP3 ADD SWAP1 POP DUP2 DUP2 SUB PUSH0 DUP4 ADD MSTORE PUSH2 0xA5C DUP2 PUSH2 0xA23 JUMP JUMPDEST SWAP1 POP SWAP2 SWAP1 POP JUMP JUMPDEST PUSH32 0x416C72656164792072656C656173656400000000000000000000000000000000 PUSH0 DUP3 ADD MSTORE POP JUMP JUMPDEST PUSH0 PUSH2 0xA97 PUSH1 0x10 DUP4 PUSH2 0x94F JUMP JUMPDEST SWAP2 POP PUSH2 0xAA2 DUP3 PUSH2 0xA63 JUMP JUMPDEST PUSH1 0x20 DUP3 ADD SWAP1 POP SWAP2 SWAP1 POP JUMP JUMPDEST PUSH0 PUSH1 0x20 DUP3 ADD SWAP1 POP DUP2 DUP2 SUB PUSH0 DUP4 ADD MSTORE PUSH2 0xAC4 DUP2 PUSH2 0xA8B JUMP JUMPDEST SWAP1 POP SWAP2 SWAP1 POP JUMP JUMPDEST PUSH0 PUSH20 0xFFFFFFFFFFFFFFFFFFFFFFFFFFFFFFFFFFFFFFFF DUP3 AND SWAP1 POP SWAP2 SWAP1 POP JUMP JUMPDEST PUSH0 PUSH2 0xAF4 DUP3 PUSH2 0xACB JUMP JUMPDEST SWAP1 POP SWAP2 SWAP1 POP JUMP JUMPDEST PUSH2 0xB04 DUP2 PUSH2 0xAEA JUMP JUMPDEST DUP3 MSTORE POP POP JUMP JUMPDEST PUSH0 PUSH1 0x40 DUP3 ADD SWAP1 POP PUSH2 0xB1D PUSH0 DUP4 ADD DUP6 PUSH2 0xAFB JUMP JUMPDEST PUSH2 0xB2A PUSH1 0x20 DUP4 ADD DUP5 PUSH2 0xAFB JUMP JUMPDEST SWAP4 SWAP3 POP POP POP JUMP JUMPDEST PUSH32 0x4974656D206E6F74207368697070656420796574000000000000000000000000 PUSH0 DUP3 ADD MSTORE POP JUMP JUMPDEST PUSH0 PUSH2 0xB65 PUSH1 0x14 DUP4 PUSH2 0x94F JUMP JUMPDEST SWAP2 POP PUSH2 0xB70 DUP3 PUSH2 0xB31 JUMP JUMPDEST PUSH1 0x20 DUP3 ADD SWAP1 POP SWAP2 SWAP1 POP JUMP JUMPDEST PUSH0 PUSH1 0x20 DUP3 ADD SWAP1 POP DUP2 DUP2 SUB PUSH0 DUP4 ADD MSTORE PUSH2 0xB92 DUP2 PUSH2 0xB59 JUMP JUMPDEST SWAP1 POP SWAP2 SWAP1 POP JUMP JUMPDEST PUSH32 0x4F6E6C792062757965722063616E20636F6E6669726D20726563696576696E67 PUSH0 DUP3 ADD MSTORE POP JUMP JUMPDEST PUSH0 PUSH2 0xBCD PUSH1 0x20 DUP4 PUSH2 0x94F JUMP JUMPDEST SWAP2 POP PUSH2 0xBD8 DUP3 PUSH2 0xB99 JUMP JUMPDEST PUSH1 0x20 DUP3 ADD SWAP1 POP SWAP2 SWAP1 POP JUMP JUMPDEST PUSH0 PUSH1 0x20 DUP3 ADD SWAP1 POP DUP2 DUP2 SUB PUSH0 DUP4 ADD MSTORE PUSH2 0xBFA DUP2 PUSH2 0xBC1 JUMP JUMPDEST SWAP1 POP SWAP2 SWAP1 POP JUMP JUMPDEST PUSH32 0x4D7573742062652066756E646564206265666F7265207368697070696E670000 PUSH0 DUP3 ADD MSTORE POP JUMP JUMPDEST PUSH0 PUSH2 0xC35 PUSH1 0x1E DUP4 PUSH2 0x94F JUMP JUMPDEST SWAP2 POP PUSH2 0xC40 DUP3 PUSH2 0xC01 JUMP JUMPDEST PUSH1 0x20 DUP3 ADD SWAP1 POP SWAP2 SWAP1 POP JUMP JUMPDEST PUSH0 PUSH1 0x20 DUP3 ADD SWAP1 POP DUP2 DUP2 SUB PUSH0 DUP4 ADD MSTORE PUSH2 0xC62 DUP2 PUSH2 0xC29 JUMP JUMPDEST SWAP1 POP SWAP2 SWAP1 POP JUMP JUMPDEST PUSH32 0x4F6E6C792073656E6465722063616E2073686970000000000000000000000000 PUSH0 DUP3 ADD MSTORE POP JUMP JUMPDEST PUSH0 PUSH2 0xC9D PUSH1 0x14 DUP4 PUSH2 0x94F JUMP JUMPDEST SWAP2 POP PUSH2 0xCA8 DUP3 PUSH2 0xC69 JUMP JUMPDEST PUSH1 0x20 DUP3 ADD SWAP1 POP SWAP2 SWAP1 POP JUMP JUMPDEST PUSH0 PUSH1 0x20 DUP3 ADD SWAP1 POP DUP2 DUP2 SUB PUSH0 DUP4 ADD MSTORE PUSH2 0xCCA DUP2 PUSH2 0xC91 JUMP JUMPDEST SWAP1 POP SWAP2 SWAP1 POP JUMP INVALID LOG2 PUSH5 0x6970667358 0x22 SLT KECCAK256 LOG0 SWAP5 SWAP15 BLOBHASH 0xB2 PUSH3 0xBF4CAD PUSH29 0x39B8231155E428D05C9ED5EF9070CD80C390C37738F264736F6C634300 ADDMOD 0x1E STOP CALLER "
				},
				"gasEstimates": {
					"creation": {
						"codeDepositCost": "667000",
						"executionCost": "infinite",
						"totalCost": "infinite"
					},
					"external": {
						"currentState()": "2531",
						"getState()": "infinite",
						"received()": "infinite",
						"refund()": "infinite",
						"ship()": "infinite"
					}
				},
				"methodIdentifiers": {
					"currentState()": "0c3f6acf",
					"getState()": "1865c57d",
					"received()": "83a6deb5",
					"refund()": "590e1ae3",
					"ship()": "b6bef7b3"
				}
			},
			"storageLayout": {
				"storage": [
					{
						"astId": 18,
						"contract": "Bones-of-Bitcoin/contracts/dataStructures/medium.sol:Escrow",
						"label": "currentState",
						"offset": 0,
						"slot": "0",
						"type": "t_enum(state)15"
					}
				],
				"types": {
					"t_enum(state)15": {
						"encoding": "inplace",
						"label": "enum Escrow.state",
						"numberOfBytes": "1"
					}
				}
			},
			"userdoc": {
				"kind": "user",
				"methods": {},
				"version": 1
			}
		}
	}
}