{
	"Bones-of-Bitcoin/contracts/dataStructures/easy.sol": {
		"SavingsTracker": {
			"abi": [
				{
					"inputs": [
						{
							"internalType": "address",
							"name": "",
							"type": "address"
						}
					],
					"name": "balances",
					"outputs": [
						{
							"internalType": "uint256",
							"name": "",
							"type": "uint256"
						}
					],
					"stateMutability": "view",
					"type": "function"
				},
				{
					"inputs": [],
					"name": "check",
					"outputs": [
						{
							"internalType": "uint256",
							"name": "",
							"type": "uint256"
						}
					],
					"stateMutability": "view",
					"type": "function"
				},
				{
					"inputs": [],
					"name": "deposit",
					"outputs": [],
					"stateMutability": "payable",
					"type": "function"
				},
				{
					"inputs": [
						{
							"internalType": "uint256",
							"name": "amount",
							"type": "uint256"
						}
					],
					"name": "withdraw",
					"outputs": [],
					"stateMutability": "nonpayable",
					"type": "function"
				}
			],
			"devdoc": {
				"kind": "dev",
				"methods": {},
				"version": 1
			},
			"evm": {
				"assembly": "    /* \"Bones-of-Bitcoin/contracts/dataStructures/easy.sol\":59:601  contract SavingsTracker{... */\n  mstore(0x40, 0x80)\n  callvalue\n  dup1\n  iszero\n  tag_1\n  jumpi\n  revert(0x00, 0x00)\ntag_1:\n  pop\n  dataSize(sub_0)\n  dup1\n  dataOffset(sub_0)\n  0x00\n  codecopy\n  0x00\n  return\nstop\n\nsub_0: assembly {\n        /* \"Bones-of-Bitcoin/contracts/dataStructures/easy.sol\":59:601  contract SavingsTracker{... */\n      mstore(0x40, 0x80)\n      jumpi(tag_1, lt(calldatasize, 0x04))\n      shr(0xe0, calldataload(0x00))\n      dup1\n      0x27e235e3\n      eq\n      tag_2\n      jumpi\n      dup1\n      0x2e1a7d4d\n      eq\n      tag_3\n      jumpi\n      dup1\n      0x919840ad\n      eq\n      tag_4\n      jumpi\n      dup1\n      0xd0e30db0\n      eq\n      tag_5\n      jumpi\n    tag_1:\n      revert(0x00, 0x00)\n        /* \"Bones-of-Bitcoin/contracts/dataStructures/easy.sol\":89:127  mapping(address=>uint) public balances */\n    tag_2:\n      callvalue\n      dup1\n      iszero\n      tag_6\n      jumpi\n      revert(0x00, 0x00)\n    tag_6:\n      pop\n      tag_7\n      0x04\n      dup1\n      calldatasize\n      sub\n      dup2\n      add\n      swap1\n      tag_8\n      swap2\n      swap1\n      tag_9\n      jump\t// in\n    tag_8:\n      tag_10\n      jump\t// in\n    tag_7:\n      mload(0x40)\n      tag_11\n      swap2\n      swap1\n      tag_12\n      jump\t// in\n    tag_11:\n      mload(0x40)\n      dup1\n      swap2\n      sub\n      swap1\n      return\n        /* \"Bones-of-Bitcoin/contracts/dataStructures/easy.sol\":291:497  function withdraw(uint256 amount) public {... */\n    tag_3:\n      callvalue\n      dup1\n      iszero\n      tag_13\n      jumpi\n      revert(0x00, 0x00)\n    tag_13:\n      pop\n      tag_14\n      0x04\n      dup1\n      calldatasize\n      sub\n      dup2\n      add\n      swap1\n      tag_15\n      swap2\n      swap1\n      tag_16\n      jump\t// in\n    tag_15:\n      tag_17\n      jump\t// in\n    tag_14:\n      stop\n        /* \"Bones-of-Bitcoin/contracts/dataStructures/easy.sol\":503:596  function check() view public returns(uint256){... */\n    tag_4:\n      callvalue\n      dup1\n      iszero\n      tag_18\n      jumpi\n      revert(0x00, 0x00)\n    tag_18:\n      pop\n      tag_19\n      tag_20\n      jump\t// in\n    tag_19:\n      mload(0x40)\n      tag_21\n      swap2\n      swap1\n      tag_12\n      jump\t// in\n    tag_21:\n      mload(0x40)\n      dup1\n      swap2\n      sub\n      swap1\n      return\n        /* \"Bones-of-Bitcoin/contracts/dataStructures/easy.sol\":134:285  function deposit() public payable{... */\n    tag_5:\n      tag_22\n      tag_23\n      jump\t// in\n    tag_22:\n      stop\n        /* \"Bones-of-Bitcoin/contracts/dataStructures/easy.sol\":89:127  mapping(address=>uint) public balances */\n    tag_10:\n      mstore(0x20, 0x00)\n      dup1\n      0x00\n      mstore\n      keccak256(0x00, 0x40)\n      0x00\n      swap2\n      pop\n      swap1\n      pop\n      sload\n      dup2\n      jump\t// out\n        /* \"Bones-of-Bitcoin/contracts/dataStructures/easy.sol\":291:497  function withdraw(uint256 amount) public {... */\n    tag_17:\n        /* \"Bones-of-Bitcoin/contracts/dataStructures/easy.sol\":359:367  balances */\n      0x00\n        /* \"Bones-of-Bitcoin/contracts/dataStructures/easy.sol\":359:379  balances[msg.sender] */\n      0x00\n        /* \"Bones-of-Bitcoin/contracts/dataStructures/easy.sol\":368:378  msg.sender */\n      caller\n        /* \"Bones-of-Bitcoin/contracts/dataStructures/easy.sol\":359:379  balances[msg.sender] */\n      0xffffffffffffffffffffffffffffffffffffffff\n      and\n      0xffffffffffffffffffffffffffffffffffffffff\n      and\n      dup2\n      mstore\n      0x20\n      add\n      swap1\n      dup2\n      mstore\n      0x20\n      add\n      0x00\n      keccak256\n      sload\n        /* \"Bones-of-Bitcoin/contracts/dataStructures/easy.sol\":351:357  amount */\n      dup2\n        /* \"Bones-of-Bitcoin/contracts/dataStructures/easy.sol\":351:379  amount<=balances[msg.sender] */\n      gt\n      iszero\n        /* \"Bones-of-Bitcoin/contracts/dataStructures/easy.sol\":343:403  require(amount<=balances[msg.sender],\"Insufficient balance\") */\n      tag_25\n      jumpi\n      mload(0x40)\n      0x08c379a000000000000000000000000000000000000000000000000000000000\n      dup2\n      mstore\n      0x04\n      add\n      tag_26\n      swap1\n      tag_27\n      jump\t// in\n    tag_26:\n      mload(0x40)\n      dup1\n      swap2\n      sub\n      swap1\n      revert\n    tag_25:\n        /* \"Bones-of-Bitcoin/contracts/dataStructures/easy.sol\":436:442  amount */\n      dup1\n        /* \"Bones-of-Bitcoin/contracts/dataStructures/easy.sol\":414:422  balances */\n      0x00\n        /* \"Bones-of-Bitcoin/contracts/dataStructures/easy.sol\":414:434  balances[msg.sender] */\n      0x00\n        /* \"Bones-of-Bitcoin/contracts/dataStructures/easy.sol\":423:433  msg.sender */\n      caller\n        /* \"Bones-of-Bitcoin/contracts/dataStructures/easy.sol\":414:434  balances[msg.sender] */\n      0xffffffffffffffffffffffffffffffffffffffff\n      and\n      0xffffffffffffffffffffffffffffffffffffffff\n      and\n      dup2\n      mstore\n      0x20\n      add\n      swap1\n      dup2\n      mstore\n      0x20\n      add\n      0x00\n      keccak256\n      0x00\n        /* \"Bones-of-Bitcoin/contracts/dataStructures/easy.sol\":414:442  balances[msg.sender]-=amount */\n      dup3\n      dup3\n      sload\n      tag_28\n      swap2\n      swap1\n      tag_29\n      jump\t// in\n    tag_28:\n      swap3\n      pop\n      pop\n      dup2\n      swap1\n      sstore\n      pop\n        /* \"Bones-of-Bitcoin/contracts/dataStructures/easy.sol\":461:471  msg.sender */\n      caller\n        /* \"Bones-of-Bitcoin/contracts/dataStructures/easy.sol\":453:481  payable(msg.sender).transfer */\n      0xffffffffffffffffffffffffffffffffffffffff\n      and\n        /* \"Bones-of-Bitcoin/contracts/dataStructures/easy.sol\":453:489  payable(msg.sender).transfer(amount) */\n      0x08fc\n        /* \"Bones-of-Bitcoin/contracts/dataStructures/easy.sol\":482:488  amount */\n      dup3\n        /* \"Bones-of-Bitcoin/contracts/dataStructures/easy.sol\":453:489  payable(msg.sender).transfer(amount) */\n      swap1\n      dup2\n      iszero\n      mul\n      swap1\n      mload(0x40)\n      0x00\n      mload(0x40)\n      dup1\n      dup4\n      sub\n      dup2\n      dup6\n      dup9\n      dup9\n      call\n      swap4\n      pop\n      pop\n      pop\n      pop\n      iszero\n      dup1\n      iszero\n      tag_31\n      jumpi\n      returndatacopy(0x00, 0x00, returndatasize)\n      revert(0x00, returndatasize)\n    tag_31:\n      pop\n        /* \"Bones-of-Bitcoin/contracts/dataStructures/easy.sol\":291:497  function withdraw(uint256 amount) public {... */\n      pop\n      jump\t// out\n        /* \"Bones-of-Bitcoin/contracts/dataStructures/easy.sol\":503:596  function check() view public returns(uint256){... */\n    tag_20:\n        /* \"Bones-of-Bitcoin/contracts/dataStructures/easy.sol\":540:547  uint256 */\n      0x00\n        /* \"Bones-of-Bitcoin/contracts/dataStructures/easy.sol\":566:574  balances */\n      0x00\n        /* \"Bones-of-Bitcoin/contracts/dataStructures/easy.sol\":566:586  balances[msg.sender] */\n      0x00\n        /* \"Bones-of-Bitcoin/contracts/dataStructures/easy.sol\":575:585  msg.sender */\n      caller\n        /* \"Bones-of-Bitcoin/contracts/dataStructures/easy.sol\":566:586  balances[msg.sender] */\n      0xffffffffffffffffffffffffffffffffffffffff\n      and\n      0xffffffffffffffffffffffffffffffffffffffff\n      and\n      dup2\n      mstore\n      0x20\n      add\n      swap1\n      dup2\n      mstore\n      0x20\n      add\n      0x00\n      keccak256\n      sload\n        /* \"Bones-of-Bitcoin/contracts/dataStructures/easy.sol\":559:586  return balances[msg.sender] */\n      swap1\n      pop\n        /* \"Bones-of-Bitcoin/contracts/dataStructures/easy.sol\":503:596  function check() view public returns(uint256){... */\n      swap1\n      jump\t// out\n        /* \"Bones-of-Bitcoin/contracts/dataStructures/easy.sol\":134:285  function deposit() public payable{... */\n    tag_23:\n        /* \"Bones-of-Bitcoin/contracts/dataStructures/easy.sol\":196:197  0 */\n      0x00\n        /* \"Bones-of-Bitcoin/contracts/dataStructures/easy.sol\":186:195  msg.value */\n      callvalue\n        /* \"Bones-of-Bitcoin/contracts/dataStructures/easy.sol\":186:197  msg.value>0 */\n      gt\n        /* \"Bones-of-Bitcoin/contracts/dataStructures/easy.sol\":178:235  require(msg.value>0,\"Amount should be greater than zero\") */\n      tag_34\n      jumpi\n      mload(0x40)\n      0x08c379a000000000000000000000000000000000000000000000000000000000\n      dup2\n      mstore\n      0x04\n      add\n      tag_35\n      swap1\n      tag_36\n      jump\t// in\n    tag_35:\n      mload(0x40)\n      dup1\n      swap2\n      sub\n      swap1\n      revert\n    tag_34:\n        /* \"Bones-of-Bitcoin/contracts/dataStructures/easy.sol\":268:277  msg.value */\n      callvalue\n        /* \"Bones-of-Bitcoin/contracts/dataStructures/easy.sol\":246:254  balances */\n      0x00\n        /* \"Bones-of-Bitcoin/contracts/dataStructures/easy.sol\":246:266  balances[msg.sender] */\n      0x00\n        /* \"Bones-of-Bitcoin/contracts/dataStructures/easy.sol\":255:265  msg.sender */\n      caller\n        /* \"Bones-of-Bitcoin/contracts/dataStructures/easy.sol\":246:266  balances[msg.sender] */\n      0xffffffffffffffffffffffffffffffffffffffff\n      and\n      0xffffffffffffffffffffffffffffffffffffffff\n      and\n      dup2\n      mstore\n      0x20\n      add\n      swap1\n      dup2\n      mstore\n      0x20\n      add\n      0x00\n      keccak256\n      0x00\n        /* \"Bones-of-Bitcoin/contracts/dataStructures/easy.sol\":246:277  balances[msg.sender]+=msg.value */\n      dup3\n      dup3\n      sload\n      tag_37\n      swap2\n      swap1\n      tag_38\n      jump\t// in\n    tag_37:\n      swap3\n      pop\n      pop\n      dup2\n      swap1\n      sstore\n      pop\n        /* \"Bones-of-Bitcoin/contracts/dataStructures/easy.sol\":134:285  function deposit() public payable{... */\n      jump\t// out\n        /* \"#utility.yul\":88:205   */\n    tag_40:\n        /* \"#utility.yul\":197:198   */\n      0x00\n        /* \"#utility.yul\":194:195   */\n      0x00\n        /* \"#utility.yul\":187:199   */\n      revert\n        /* \"#utility.yul\":334:460   */\n    tag_42:\n        /* \"#utility.yul\":371:378   */\n      0x00\n        /* \"#utility.yul\":411:453   */\n      0xffffffffffffffffffffffffffffffffffffffff\n        /* \"#utility.yul\":404:409   */\n      dup3\n        /* \"#utility.yul\":400:454   */\n      and\n        /* \"#utility.yul\":389:454   */\n      swap1\n      pop\n        /* \"#utility.yul\":334:460   */\n      swap2\n      swap1\n      pop\n      jump\t// out\n        /* \"#utility.yul\":466:562   */\n    tag_43:\n        /* \"#utility.yul\":503:510   */\n      0x00\n        /* \"#utility.yul\":532:556   */\n      tag_62\n        /* \"#utility.yul\":550:555   */\n      dup3\n        /* \"#utility.yul\":532:556   */\n      tag_42\n      jump\t// in\n    tag_62:\n        /* \"#utility.yul\":521:556   */\n      swap1\n      pop\n        /* \"#utility.yul\":466:562   */\n      swap2\n      swap1\n      pop\n      jump\t// out\n        /* \"#utility.yul\":568:690   */\n    tag_44:\n        /* \"#utility.yul\":641:665   */\n      tag_64\n        /* \"#utility.yul\":659:664   */\n      dup2\n        /* \"#utility.yul\":641:665   */\n      tag_43\n      jump\t// in\n    tag_64:\n        /* \"#utility.yul\":634:639   */\n      dup2\n        /* \"#utility.yul\":631:666   */\n      eq\n        /* \"#utility.yul\":621:684   */\n      tag_65\n      jumpi\n        /* \"#utility.yul\":680:681   */\n      0x00\n        /* \"#utility.yul\":677:678   */\n      0x00\n        /* \"#utility.yul\":670:682   */\n      revert\n        /* \"#utility.yul\":621:684   */\n    tag_65:\n        /* \"#utility.yul\":568:690   */\n      pop\n      jump\t// out\n        /* \"#utility.yul\":696:835   */\n    tag_45:\n        /* \"#utility.yul\":742:747   */\n      0x00\n        /* \"#utility.yul\":780:786   */\n      dup2\n        /* \"#utility.yul\":767:787   */\n      calldataload\n        /* \"#utility.yul\":758:787   */\n      swap1\n      pop\n        /* \"#utility.yul\":796:829   */\n      tag_67\n        /* \"#utility.yul\":823:828   */\n      dup2\n        /* \"#utility.yul\":796:829   */\n      tag_44\n      jump\t// in\n    tag_67:\n        /* \"#utility.yul\":696:835   */\n      swap3\n      swap2\n      pop\n      pop\n      jump\t// out\n        /* \"#utility.yul\":841:1170   */\n    tag_9:\n        /* \"#utility.yul\":900:906   */\n      0x00\n        /* \"#utility.yul\":949:951   */\n      0x20\n        /* \"#utility.yul\":937:946   */\n      dup3\n        /* \"#utility.yul\":928:935   */\n      dup5\n        /* \"#utility.yul\":924:947   */\n      sub\n        /* \"#utility.yul\":920:952   */\n      slt\n        /* \"#utility.yul\":917:1036   */\n      iszero\n      tag_69\n      jumpi\n        /* \"#utility.yul\":955:1034   */\n      tag_70\n      tag_40\n      jump\t// in\n    tag_70:\n        /* \"#utility.yul\":917:1036   */\n    tag_69:\n        /* \"#utility.yul\":1075:1076   */\n      0x00\n        /* \"#utility.yul\":1100:1153   */\n      tag_71\n        /* \"#utility.yul\":1145:1152   */\n      dup5\n        /* \"#utility.yul\":1136:1142   */\n      dup3\n        /* \"#utility.yul\":1125:1134   */\n      dup6\n        /* \"#utility.yul\":1121:1143   */\n      add\n        /* \"#utility.yul\":1100:1153   */\n      tag_45\n      jump\t// in\n    tag_71:\n        /* \"#utility.yul\":1090:1153   */\n      swap2\n      pop\n        /* \"#utility.yul\":1046:1163   */\n      pop\n        /* \"#utility.yul\":841:1170   */\n      swap3\n      swap2\n      pop\n      pop\n      jump\t// out\n        /* \"#utility.yul\":1176:1253   */\n    tag_46:\n        /* \"#utility.yul\":1213:1220   */\n      0x00\n        /* \"#utility.yul\":1242:1247   */\n      dup2\n        /* \"#utility.yul\":1231:1247   */\n      swap1\n      pop\n        /* \"#utility.yul\":1176:1253   */\n      swap2\n      swap1\n      pop\n      jump\t// out\n        /* \"#utility.yul\":1259:1377   */\n    tag_47:\n        /* \"#utility.yul\":1346:1370   */\n      tag_74\n        /* \"#utility.yul\":1364:1369   */\n      dup2\n        /* \"#utility.yul\":1346:1370   */\n      tag_46\n      jump\t// in\n    tag_74:\n        /* \"#utility.yul\":1341:1344   */\n      dup3\n        /* \"#utility.yul\":1334:1371   */\n      mstore\n        /* \"#utility.yul\":1259:1377   */\n      pop\n      pop\n      jump\t// out\n        /* \"#utility.yul\":1383:1605   */\n    tag_12:\n        /* \"#utility.yul\":1476:1480   */\n      0x00\n        /* \"#utility.yul\":1514:1516   */\n      0x20\n        /* \"#utility.yul\":1503:1512   */\n      dup3\n        /* \"#utility.yul\":1499:1517   */\n      add\n        /* \"#utility.yul\":1491:1517   */\n      swap1\n      pop\n        /* \"#utility.yul\":1527:1598   */\n      tag_76\n        /* \"#utility.yul\":1595:1596   */\n      0x00\n        /* \"#utility.yul\":1584:1593   */\n      dup4\n        /* \"#utility.yul\":1580:1597   */\n      add\n        /* \"#utility.yul\":1571:1577   */\n      dup5\n        /* \"#utility.yul\":1527:1598   */\n      tag_47\n      jump\t// in\n    tag_76:\n        /* \"#utility.yul\":1383:1605   */\n      swap3\n      swap2\n      pop\n      pop\n      jump\t// out\n        /* \"#utility.yul\":1611:1733   */\n    tag_48:\n        /* \"#utility.yul\":1684:1708   */\n      tag_78\n        /* \"#utility.yul\":1702:1707   */\n      dup2\n        /* \"#utility.yul\":1684:1708   */\n      tag_46\n      jump\t// in\n    tag_78:\n        /* \"#utility.yul\":1677:1682   */\n      dup2\n        /* \"#utility.yul\":1674:1709   */\n      eq\n        /* \"#utility.yul\":1664:1727   */\n      tag_79\n      jumpi\n        /* \"#utility.yul\":1723:1724   */\n      0x00\n        /* \"#utility.yul\":1720:1721   */\n      0x00\n        /* \"#utility.yul\":1713:1725   */\n      revert\n        /* \"#utility.yul\":1664:1727   */\n    tag_79:\n        /* \"#utility.yul\":1611:1733   */\n      pop\n      jump\t// out\n        /* \"#utility.yul\":1739:1878   */\n    tag_49:\n        /* \"#utility.yul\":1785:1790   */\n      0x00\n        /* \"#utility.yul\":1823:1829   */\n      dup2\n        /* \"#utility.yul\":1810:1830   */\n      calldataload\n        /* \"#utility.yul\":1801:1830   */\n      swap1\n      pop\n        /* \"#utility.yul\":1839:1872   */\n      tag_81\n        /* \"#utility.yul\":1866:1871   */\n      dup2\n        /* \"#utility.yul\":1839:1872   */\n      tag_48\n      jump\t// in\n    tag_81:\n        /* \"#utility.yul\":1739:1878   */\n      swap3\n      swap2\n      pop\n      pop\n      jump\t// out\n        /* \"#utility.yul\":1884:2213   */\n    tag_16:\n        /* \"#utility.yul\":1943:1949   */\n      0x00\n        /* \"#utility.yul\":1992:1994   */\n      0x20\n        /* \"#utility.yul\":1980:1989   */\n      dup3\n        /* \"#utility.yul\":1971:1978   */\n      dup5\n        /* \"#utility.yul\":1967:1990   */\n      sub\n        /* \"#utility.yul\":1963:1995   */\n      slt\n        /* \"#utility.yul\":1960:2079   */\n      iszero\n      tag_83\n      jumpi\n        /* \"#utility.yul\":1998:2077   */\n      tag_84\n      tag_40\n      jump\t// in\n    tag_84:\n        /* \"#utility.yul\":1960:2079   */\n    tag_83:\n        /* \"#utility.yul\":2118:2119   */\n      0x00\n        /* \"#utility.yul\":2143:2196   */\n      tag_85\n        /* \"#utility.yul\":2188:2195   */\n      dup5\n        /* \"#utility.yul\":2179:2185   */\n      dup3\n        /* \"#utility.yul\":2168:2177   */\n      dup6\n        /* \"#utility.yul\":2164:2186   */\n      add\n        /* \"#utility.yul\":2143:2196   */\n      tag_49\n      jump\t// in\n    tag_85:\n        /* \"#utility.yul\":2133:2196   */\n      swap2\n      pop\n        /* \"#utility.yul\":2089:2206   */\n      pop\n        /* \"#utility.yul\":1884:2213   */\n      swap3\n      swap2\n      pop\n      pop\n      jump\t// out\n        /* \"#utility.yul\":2219:2388   */\n    tag_50:\n        /* \"#utility.yul\":2303:2314   */\n      0x00\n        /* \"#utility.yul\":2337:2343   */\n      dup3\n        /* \"#utility.yul\":2332:2335   */\n      dup3\n        /* \"#utility.yul\":2325:2344   */\n      mstore\n        /* \"#utility.yul\":2377:2381   */\n      0x20\n        /* \"#utility.yul\":2372:2375   */\n      dup3\n        /* \"#utility.yul\":2368:2382   */\n      add\n        /* \"#utility.yul\":2353:2382   */\n      swap1\n      pop\n        /* \"#utility.yul\":2219:2388   */\n      swap3\n      swap2\n      pop\n      pop\n      jump\t// out\n        /* \"#utility.yul\":2394:2564   */\n    tag_51:\n        /* \"#utility.yul\":2534:2556   */\n      0x496e73756666696369656e742062616c616e6365000000000000000000000000\n        /* \"#utility.yul\":2530:2531   */\n      0x00\n        /* \"#utility.yul\":2522:2528   */\n      dup3\n        /* \"#utility.yul\":2518:2532   */\n      add\n        /* \"#utility.yul\":2511:2557   */\n      mstore\n        /* \"#utility.yul\":2394:2564   */\n      pop\n      jump\t// out\n        /* \"#utility.yul\":2570:2936   */\n    tag_52:\n        /* \"#utility.yul\":2712:2715   */\n      0x00\n        /* \"#utility.yul\":2733:2800   */\n      tag_89\n        /* \"#utility.yul\":2797:2799   */\n      0x14\n        /* \"#utility.yul\":2792:2795   */\n      dup4\n        /* \"#utility.yul\":2733:2800   */\n      tag_50\n      jump\t// in\n    tag_89:\n        /* \"#utility.yul\":2726:2800   */\n      swap2\n      pop\n        /* \"#utility.yul\":2809:2902   */\n      tag_90\n        /* \"#utility.yul\":2898:2901   */\n      dup3\n        /* \"#utility.yul\":2809:2902   */\n      tag_51\n      jump\t// in\n    tag_90:\n        /* \"#utility.yul\":2927:2929   */\n      0x20\n        /* \"#utility.yul\":2922:2925   */\n      dup3\n        /* \"#utility.yul\":2918:2930   */\n      add\n        /* \"#utility.yul\":2911:2930   */\n      swap1\n      pop\n        /* \"#utility.yul\":2570:2936   */\n      swap2\n      swap1\n      pop\n      jump\t// out\n        /* \"#utility.yul\":2942:3361   */\n    tag_27:\n        /* \"#utility.yul\":3108:3112   */\n      0x00\n        /* \"#utility.yul\":3146:3148   */\n      0x20\n        /* \"#utility.yul\":3135:3144   */\n      dup3\n        /* \"#utility.yul\":3131:3149   */\n      add\n        /* \"#utility.yul\":3123:3149   */\n      swap1\n      pop\n        /* \"#utility.yul\":3195:3204   */\n      dup2\n        /* \"#utility.yul\":3189:3193   */\n      dup2\n        /* \"#utility.yul\":3185:3205   */\n      sub\n        /* \"#utility.yul\":3181:3182   */\n      0x00\n        /* \"#utility.yul\":3170:3179   */\n      dup4\n        /* \"#utility.yul\":3166:3183   */\n      add\n        /* \"#utility.yul\":3159:3206   */\n      mstore\n        /* \"#utility.yul\":3223:3354   */\n      tag_92\n        /* \"#utility.yul\":3349:3353   */\n      dup2\n        /* \"#utility.yul\":3223:3354   */\n      tag_52\n      jump\t// in\n    tag_92:\n        /* \"#utility.yul\":3215:3354   */\n      swap1\n      pop\n        /* \"#utility.yul\":2942:3361   */\n      swap2\n      swap1\n      pop\n      jump\t// out\n        /* \"#utility.yul\":3367:3547   */\n    tag_53:\n        /* \"#utility.yul\":3415:3492   */\n      0x4e487b7100000000000000000000000000000000000000000000000000000000\n        /* \"#utility.yul\":3412:3413   */\n      0x00\n        /* \"#utility.yul\":3405:3493   */\n      mstore\n        /* \"#utility.yul\":3512:3516   */\n      0x11\n        /* \"#utility.yul\":3509:3510   */\n      0x04\n        /* \"#utility.yul\":3502:3517   */\n      mstore\n        /* \"#utility.yul\":3536:3540   */\n      0x24\n        /* \"#utility.yul\":3533:3534   */\n      0x00\n        /* \"#utility.yul\":3526:3541   */\n      revert\n        /* \"#utility.yul\":3553:3747   */\n    tag_29:\n        /* \"#utility.yul\":3593:3597   */\n      0x00\n        /* \"#utility.yul\":3613:3633   */\n      tag_95\n        /* \"#utility.yul\":3631:3632   */\n      dup3\n        /* \"#utility.yul\":3613:3633   */\n      tag_46\n      jump\t// in\n    tag_95:\n        /* \"#utility.yul\":3608:3633   */\n      swap2\n      pop\n        /* \"#utility.yul\":3647:3667   */\n      tag_96\n        /* \"#utility.yul\":3665:3666   */\n      dup4\n        /* \"#utility.yul\":3647:3667   */\n      tag_46\n      jump\t// in\n    tag_96:\n        /* \"#utility.yul\":3642:3667   */\n      swap3\n      pop\n        /* \"#utility.yul\":3691:3692   */\n      dup3\n        /* \"#utility.yul\":3688:3689   */\n      dup3\n        /* \"#utility.yul\":3684:3693   */\n      sub\n        /* \"#utility.yul\":3676:3693   */\n      swap1\n      pop\n        /* \"#utility.yul\":3715:3716   */\n      dup2\n        /* \"#utility.yul\":3709:3713   */\n      dup2\n        /* \"#utility.yul\":3706:3717   */\n      gt\n        /* \"#utility.yul\":3703:3740   */\n      iszero\n      tag_97\n      jumpi\n        /* \"#utility.yul\":3720:3738   */\n      tag_98\n      tag_53\n      jump\t// in\n    tag_98:\n        /* \"#utility.yul\":3703:3740   */\n    tag_97:\n        /* \"#utility.yul\":3553:3747   */\n      swap3\n      swap2\n      pop\n      pop\n      jump\t// out\n        /* \"#utility.yul\":3753:3974   */\n    tag_54:\n        /* \"#utility.yul\":3893:3927   */\n      0x416d6f756e742073686f756c642062652067726561746572207468616e207a65\n        /* \"#utility.yul\":3889:3890   */\n      0x00\n        /* \"#utility.yul\":3881:3887   */\n      dup3\n        /* \"#utility.yul\":3877:3891   */\n      add\n        /* \"#utility.yul\":3870:3928   */\n      mstore\n        /* \"#utility.yul\":3962:3966   */\n      0x726f000000000000000000000000000000000000000000000000000000000000\n        /* \"#utility.yul\":3957:3959   */\n      0x20\n        /* \"#utility.yul\":3949:3955   */\n      dup3\n        /* \"#utility.yul\":3945:3960   */\n      add\n        /* \"#utility.yul\":3938:3967   */\n      mstore\n        /* \"#utility.yul\":3753:3974   */\n      pop\n      jump\t// out\n        /* \"#utility.yul\":3980:4346   */\n    tag_55:\n        /* \"#utility.yul\":4122:4125   */\n      0x00\n        /* \"#utility.yul\":4143:4210   */\n      tag_101\n        /* \"#utility.yul\":4207:4209   */\n      0x22\n        /* \"#utility.yul\":4202:4205   */\n      dup4\n        /* \"#utility.yul\":4143:4210   */\n      tag_50\n      jump\t// in\n    tag_101:\n        /* \"#utility.yul\":4136:4210   */\n      swap2\n      pop\n        /* \"#utility.yul\":4219:4312   */\n      tag_102\n        /* \"#utility.yul\":4308:4311   */\n      dup3\n        /* \"#utility.yul\":4219:4312   */\n      tag_54\n      jump\t// in\n    tag_102:\n        /* \"#utility.yul\":4337:4339   */\n      0x40\n        /* \"#utility.yul\":4332:4335   */\n      dup3\n        /* \"#utility.yul\":4328:4340   */\n      add\n        /* \"#utility.yul\":4321:4340   */\n      swap1\n      pop\n        /* \"#utility.yul\":3980:4346   */\n      swap2\n      swap1\n      pop\n      jump\t// out\n        /* \"#utility.yul\":4352:4771   */\n    tag_36:\n        /* \"#utility.yul\":4518:4522   */\n      0x00\n        /* \"#utility.yul\":4556:4558   */\n      0x20\n        /* \"#utility.yul\":4545:4554   */\n      dup3\n        /* \"#utility.yul\":4541:4559   */\n      add\n        /* \"#utility.yul\":4533:4559   */\n      swap1\n      pop\n        /* \"#utility.yul\":4605:4614   */\n      dup2\n        /* \"#utility.yul\":4599:4603   */\n      dup2\n        /* \"#utility.yul\":4595:4615   */\n      sub\n        /* \"#utility.yul\":4591:4592   */\n      0x00\n        /* \"#utility.yul\":4580:4589   */\n      dup4\n        /* \"#utility.yul\":4576:4593   */\n      add\n        /* \"#utility.yul\":4569:4616   */\n      mstore\n        /* \"#utility.yul\":4633:4764   */\n      tag_104\n        /* \"#utility.yul\":4759:4763   */\n      dup2\n        /* \"#utility.yul\":4633:4764   */\n      tag_55\n      jump\t// in\n    tag_104:\n        /* \"#utility.yul\":4625:4764   */\n      swap1\n      pop\n        /* \"#utility.yul\":4352:4771   */\n      swap2\n      swap1\n      pop\n      jump\t// out\n        /* \"#utility.yul\":4777:4968   */\n    tag_38:\n        /* \"#utility.yul\":4817:4820   */\n      0x00\n        /* \"#utility.yul\":4836:4856   */\n      tag_106\n        /* \"#utility.yul\":4854:4855   */\n      dup3\n        /* \"#utility.yul\":4836:4856   */\n      tag_46\n      jump\t// in\n    tag_106:\n        /* \"#utility.yul\":4831:4856   */\n      swap2\n      pop\n        /* \"#utility.yul\":4870:4890   */\n      tag_107\n        /* \"#utility.yul\":4888:4889   */\n      dup4\n        /* \"#utility.yul\":4870:4890   */\n      tag_46\n      jump\t// in\n    tag_107:\n        /* \"#utility.yul\":4865:4890   */\n      swap3\n      pop\n        /* \"#utility.yul\":4913:4914   */\n      dup3\n        /* \"#utility.yul\":4910:4911   */\n      dup3\n        /* \"#utility.yul\":4906:4915   */\n      add\n        /* \"#utility.yul\":4899:4915   */\n      swap1\n      pop\n        /* \"#utility.yul\":4934:4937   */\n      dup1\n        /* \"#utility.yul\":4931:4932   */\n      dup3\n        /* \"#utility.yul\":4928:4938   */\n      gt\n        /* \"#utility.yul\":4925:4961   */\n      iszero\n      tag_108\n      jumpi\n        /* \"#utility.yul\":4941:4959   */\n      tag_109\n      tag_53\n      jump\t// in\n    tag_109:\n        /* \"#utility.yul\":4925:4961   */\n    tag_108:\n        /* \"#utility.yul\":4777:4968   */\n      swap3\n      swap2\n      pop\n      pop\n      jump\t// out\n\n    auxdata: 0xa26469706673582212201b999495c2e994342da1909384c029afc4fdd676e95fc598d8e5571e3a9571b464736f6c634300081e0033\n}\n",
				"bytecode": {
					"linkReferences": {},
					"object": "6080604052348015600e575f5ffd5b506105bd8061001c5f395ff3fe60806040526004361061003e575f3560e01c806327e235e3146100425780632e1a7d4d1461007e578063919840ad146100a6578063d0e30db0146100d0575b5f5ffd5b34801561004d575f5ffd5b506100686004803603810190610063919061033d565b6100da565b6040516100759190610380565b60405180910390f35b348015610089575f5ffd5b506100a4600480360381019061009f91906103c3565b6100ee565b005b3480156100b1575f5ffd5b506100ba610206565b6040516100c79190610380565b60405180910390f35b6100d8610249565b005b5f602052805f5260405f205f915090505481565b5f5f3373ffffffffffffffffffffffffffffffffffffffff1673ffffffffffffffffffffffffffffffffffffffff1681526020019081526020015f205481111561016d576040517f08c379a000000000000000000000000000000000000000000000000000000000815260040161016490610448565b60405180910390fd5b805f5f3373ffffffffffffffffffffffffffffffffffffffff1673ffffffffffffffffffffffffffffffffffffffff1681526020019081526020015f205f8282546101b89190610493565b925050819055503373ffffffffffffffffffffffffffffffffffffffff166108fc8290811502906040515f60405180830381858888f19350505050158015610202573d5f5f3e3d5ffd5b5050565b5f5f5f3373ffffffffffffffffffffffffffffffffffffffff1673ffffffffffffffffffffffffffffffffffffffff1681526020019081526020015f2054905090565b5f341161028b576040517f08c379a000000000000000000000000000000000000000000000000000000000815260040161028290610536565b60405180910390fd5b345f5f3373ffffffffffffffffffffffffffffffffffffffff1673ffffffffffffffffffffffffffffffffffffffff1681526020019081526020015f205f8282546102d69190610554565b92505081905550565b5f5ffd5b5f73ffffffffffffffffffffffffffffffffffffffff82169050919050565b5f61030c826102e3565b9050919050565b61031c81610302565b8114610326575f5ffd5b50565b5f8135905061033781610313565b92915050565b5f60208284031215610352576103516102df565b5b5f61035f84828501610329565b91505092915050565b5f819050919050565b61037a81610368565b82525050565b5f6020820190506103935f830184610371565b92915050565b6103a281610368565b81146103ac575f5ffd5b50565b5f813590506103bd81610399565b92915050565b5f602082840312156103d8576103d76102df565b5b5f6103e5848285016103af565b91505092915050565b5f82825260208201905092915050565b7f496e73756666696369656e742062616c616e63650000000000000000000000005f82015250565b5f6104326014836103ee565b915061043d826103fe565b602082019050919050565b5f6020820190508181035f83015261045f81610426565b9050919050565b7f4e487b71000000000000000000000000000000000000000000000000000000005f52601160045260245ffd5b5f61049d82610368565b91506104a883610368565b92508282039050818111156104c0576104bf610466565b5b92915050565b7f416d6f756e742073686f756c642062652067726561746572207468616e207a655f8201527f726f000000000000000000000000000000000000000000000000000000000000602082015250565b5f6105206022836103ee565b915061052b826104c6565b604082019050919050565b5f6020820190508181035f83015261054d81610514565b9050919050565b5f61055e82610368565b915061056983610368565b925082820190508082111561058157610580610466565b5b9291505056fea26469706673582212201b999495c2e994342da1909384c029afc4fdd676e95fc598d8e5571e3a9571b464736f6c634300081e0033",
					"opcodes": "PUSH1 0x80 PUSH1 0x40 MSTORE CALLVALUE DUP1 ISZERO PUSH1 0xE JUMPI PUSH0 PUSH0 REVERT JUMPDEST POP PUSH2 0x5BD DUP1 PUSH2 0x1C PUSH0 CODECOPY PUSH0 RETURN INVALID PUSH1 0x80 PUSH1 0x40 MSTORE PUSH1 0x4 CALLDATASIZE LT PUSH2 0x3E JUMPI PUSH0 CALLDATALOAD PUSH1 0xE0 SHR DUP1 PUSH4 0x27E235E3 EQ PUSH2 0x42 JUMPI DUP1 PUSH4 0x2E1A7D4D EQ PUSH2 0x7E JUMPI DUP1 PUSH4 0x919840AD EQ PUSH2 0xA6 JUMPI DUP1 PUSH4 0xD0E30DB0 EQ PUSH2 0xD0 JUMPI JUMPDEST PUSH0 PUSH0 REVERT JUMPDEST CALLVALUE DUP1 ISZERO PUSH2 0x4D JUMPI PUSH0 PUSH0 REVERT JUMPDEST POP PUSH2 0x68 PUSH1 0x4 DUP1 CALLDATASIZE SUB DUP2 ADD SWAP1 PUSH2 0x63 SWAP2 SWAP1 PUSH2 0x33D JUMP JUMPDEST PUSH2 0xDA JUMP JUMPDEST PUSH1 0x40 MLOAD PUSH2 0x75 SWAP2 SWAP1 PUSH2 0x380 JUMP JUMPDEST PUSH1 0x40 MLOAD DUP1 SWAP2 SUB SWAP1 RETURN JUMPDEST CALLVALUE DUP1 ISZERO PUSH2 0x89 JUMPI PUSH0 PUSH0 REVERT JUMPDEST POP PUSH2 0xA4 PUSH1 0x4 DUP1 CALLDATASIZE SUB DUP2 ADD SWAP1 PUSH2 0x9F SWAP2 SWAP1 PUSH2 0x3C3 JUMP JUMPDEST PUSH2 0xEE JUMP JUMPDEST STOP JUMPDEST CALLVALUE DUP1 ISZERO PUSH2 0xB1 JUMPI PUSH0 PUSH0 REVERT JUMPDEST POP PUSH2 0xBA PUSH2 0x206 JUMP JUMPDEST PUSH1 0x40 MLOAD PUSH2 0xC7 SWAP2 SWAP1 PUSH2 0x380 JUMP JUMPDEST PUSH1 0x40 MLOAD DUP1 SWAP2 SUB SWAP1 RETURN JUMPDEST PUSH2 0xD8 PUSH2 0x249 JUMP JUMPDEST STOP JUMPDEST PUSH0 PUSH1 0x20 MSTORE DUP1 PUSH0 MSTORE PUSH1 0x40 PUSH0 KECCAK256 PUSH0 SWAP2 POP SWAP1 POP SLOAD DUP2 JUMP JUMPDEST PUSH0 PUSH0 CALLER PUSH20 0xFFFFFFFFFFFFFFFFFFFFFFFFFFFFFFFFFFFFFFFF AND PUSH20 0xFFFFFFFFFFFFFFFFFFFFFFFFFFFFFFFFFFFFFFFF AND DUP2 MSTORE PUSH1 0x20 ADD SWAP1 DUP2 MSTORE PUSH1 0x20 ADD PUSH0 KECCAK256 SLOAD DUP2 GT ISZERO PUSH2 0x16D JUMPI PUSH1 0x40 MLOAD PUSH32 0x8C379A000000000000000000000000000000000000000000000000000000000 DUP2 MSTORE PUSH1 0x4 ADD PUSH2 0x164 SWAP1 PUSH2 0x448 JUMP JUMPDEST PUSH1 0x40 MLOAD DUP1 SWAP2 SUB SWAP1 REVERT JUMPDEST DUP1 PUSH0 PUSH0 CALLER PUSH20 0xFFFFFFFFFFFFFFFFFFFFFFFFFFFFFFFFFFFFFFFF AND PUSH20 0xFFFFFFFFFFFFFFFFFFFFFFFFFFFFFFFFFFFFFFFF AND DUP2 MSTORE PUSH1 0x20 ADD SWAP1 DUP2 MSTORE PUSH1 0x20 ADD PUSH0 KECCAK256 PUSH0 DUP3 DUP3 SLOAD PUSH2 0x1B8 SWAP2 SWAP1 PUSH2 0x493 JUMP JUMPDEST SWAP3 POP POP DUP2 SWAP1 SSTORE POP CALLER PUSH20 0xFFFFFFFFFFFFFFFFFFFFFFFFFFFFFFFFFFFFFFFF AND PUSH2 0x8FC DUP3 SWAP1 DUP2 ISZERO MUL SWAP1 PUSH1 0x40 MLOAD PUSH0 PUSH1 0x40 MLOAD DUP1 DUP4 SUB DUP2 DUP6 DUP9 DUP9 CALL SWAP4 POP POP POP POP ISZERO DUP1 ISZERO PUSH2 0x202 JUMPI RETURNDATASIZE PUSH0 PUSH0 RETURNDATACOPY RETURNDATASIZE PUSH0 REVERT JUMPDEST POP POP JUMP JUMPDEST PUSH0 PUSH0 PUSH0 CALLER PUSH20 0xFFFFFFFFFFFFFFFFFFFFFFFFFFFFFFFFFFFFFFFF AND PUSH20 0xFFFFFFFFFFFFFFFFFFFFFFFFFFFFFFFFFFFFFFFF AND DUP2 MSTORE PUSH1 0x20 ADD SWAP1 DUP2 MSTORE PUSH1 0x20 ADD PUSH0 KECCAK256 SLOAD SWAP1 POP SWAP1 JUMP JUMPDEST PUSH0 CALLVALUE GT PUSH2 0x28B JUMPI PUSH1 0x40 MLOAD PUSH32 0x8C379A000000000000000000000000000000000000000000000000000000000 DUP2 MSTORE PUSH1 0x4 ADD PUSH2 0x282 SWAP1 PUSH2 0x536 JUMP JUMPDEST PUSH1 0x40 MLOAD DUP1 SWAP2 SUB SWAP1 REVERT JUMPDEST CALLVALUE PUSH0 PUSH0 CALLER PUSH20 0xFFFFFFFFFFFFFFFFFFFFFFFFFFFFFFFFFFFFFFFF AND PUSH20 0xFFFFFFFFFFFFFFFFFFFFFFFFFFFFFFFFFFFFFFFF AND DUP2 MSTORE PUSH1 0x20 ADD SWAP1 DUP2 MSTORE PUSH1 0x20 ADD PUSH0 KECCAK256 PUSH0 DUP3 DUP3 SLOAD PUSH2 0x2D6 SWAP2 SWAP1 PUSH2 0x554 JUMP JUMPDEST SWAP3 POP POP DUP2 SWAP1 SSTORE POP JUMP JUMPDEST PUSH0 PUSH0 REVERT JUMPDEST PUSH0 PUSH20 0xFFFFFFFFFFFFFFFFFFFFFFFFFFFFFFFFFFFFFFFF DUP3 AND SWAP1 POP SWAP2 SWAP1 POP JUMP JUMPDEST PUSH0 PUSH2 0x30C DUP3 PUSH2 0x2E3 JUMP JUMPDEST SWAP1 POP SWAP2 SWAP1 POP JUMP JUMPDEST PUSH2 0x31C DUP2 PUSH2 0x302 JUMP JUMPDEST DUP2 EQ PUSH2 0x326 JUMPI PUSH0 PUSH0 REVERT JUMPDEST POP JUMP JUMPDEST PUSH0 DUP2 CALLDATALOAD SWAP1 POP PUSH2 0x337 DUP2 PUSH2 0x313 JUMP JUMPDEST SWAP3 SWAP2 POP POP JUMP JUMPDEST PUSH0 PUSH1 0x20 DUP3 DUP5 SUB SLT ISZERO PUSH2 0x352 JUMPI PUSH2 0x351 PUSH2 0x2DF JUMP JUMPDEST JUMPDEST PUSH0 PUSH2 0x35F DUP5 DUP3 DUP6 ADD PUSH2 0x329 JUMP JUMPDEST SWAP2 POP POP SWAP3 SWAP2 POP POP JUMP JUMPDEST PUSH0 DUP2 SWAP1 POP SWAP2 SWAP1 POP JUMP JUMPDEST PUSH2 0x37A DUP2 PUSH2 0x368 JUMP JUMPDEST DUP3 MSTORE POP POP JUMP JUMPDEST PUSH0 PUSH1 0x20 DUP3 ADD SWAP1 POP PUSH2 0x393 PUSH0 DUP4 ADD DUP5 PUSH2 0x371 JUMP JUMPDEST SWAP3 SWAP2 POP POP JUMP JUMPDEST PUSH2 0x3A2 DUP2 PUSH2 0x368 JUMP JUMPDEST DUP2 EQ PUSH2 0x3AC JUMPI PUSH0 PUSH0 REVERT JUMPDEST POP JUMP JUMPDEST PUSH0 DUP2 CALLDATALOAD SWAP1 POP PUSH2 0x3BD DUP2 PUSH2 0x399 JUMP JUMPDEST SWAP3 SWAP2 POP POP JUMP JUMPDEST PUSH0 PUSH1 0x20 DUP3 DUP5 SUB SLT ISZERO PUSH2 0x3D8 JUMPI PUSH2 0x3D7 PUSH2 0x2DF JUMP JUMPDEST JUMPDEST PUSH0 PUSH2 0x3E5 DUP5 DUP3 DUP6 ADD PUSH2 0x3AF JUMP JUMPDEST SWAP2 POP POP SWAP3 SWAP2 POP POP JUMP JUMPDEST PUSH0 DUP3 DUP3 MSTORE PUSH1 0x20 DUP3 ADD SWAP1 POP SWAP3 SWAP2 POP POP JUMP JUMPDEST PUSH32 0x496E73756666696369656E742062616C616E6365000000000000000000000000 PUSH0 DUP3 ADD MSTORE POP JUMP JUMPDEST PUSH0 PUSH2 0x432 PUSH1 0x14 DUP4 PUSH2 0x3EE JUMP JUMPDEST SWAP2 POP PUSH2 0x43D DUP3 PUSH2 0x3FE JUMP JUMPDEST PUSH1 0x20 DUP3 ADD SWAP1 POP SWAP2 SWAP1 POP JUMP JUMPDEST PUSH0 PUSH1 0x20 DUP3 ADD SWAP1 POP DUP2 DUP2 SUB PUSH0 DUP4 ADD MSTORE PUSH2 0x45F DUP2 PUSH2 0x426 JUMP JUMPDEST SWAP1 POP SWAP2 SWAP1 POP JUMP JUMPDEST PUSH32 0x4E487B7100000000000000000000000000000000000000000000000000000000 PUSH0 MSTORE PUSH1 0x11 PUSH1 0x4 MSTORE PUSH1 0x24 PUSH0 REVERT JUMPDEST PUSH0 PUSH2 0x49D DUP3 PUSH2 0x368 JUMP JUMPDEST SWAP2 POP PUSH2 0x4A8 DUP4 PUSH2 0x368 JUMP JUMPDEST SWAP3 POP DUP3 DUP3 SUB SWAP1 POP DUP2 DUP2 GT ISZERO PUSH2 0x4C0 JUMPI PUSH2 0x4BF PUSH2 0x466 JUMP JUMPDEST JUMPDEST SWAP3 SWAP2 POP POP JUMP JUMPDEST PUSH32 0x416D6F756E742073686F756C642062652067726561746572207468616E207A65 PUSH0 DUP3 ADD MSTORE PUSH32 0x726F000000000000000000000000000000000000000000000000000000000000 PUSH1 0x20 DUP3 ADD MSTORE POP JUMP JUMPDEST PUSH0 PUSH2 0x520 PUSH1 0x22 DUP4 PUSH2 0x3EE JUMP JUMPDEST SWAP2 POP PUSH2 0x52B DUP3 PUSH2 0x4C6 JUMP JUMPDEST PUSH1 0x40 DUP3 ADD SWAP1 POP SWAP2 SWAP1 POP JUMP JUMPDEST PUSH0 PUSH1 0x20 DUP3 ADD SWAP1 POP DUP2 DUP2 SUB PUSH0 DUP4 ADD MSTORE PUSH2 0x54D DUP2 PUSH2 0x514 JUMP JUMPDEST SWAP1 POP SWAP2 SWAP1 POP JUMP JUMPDEST PUSH0 PUSH2 0x55E DUP3 PUSH2 0x368 JUMP JUMPDEST SWAP2 POP PUSH2 0x569 DUP4 PUSH2 0x368 JUMP JUMPDEST SWAP3 POP DUP3 DUP3 ADD SWAP1 POP DUP1 DUP3 GT ISZERO PUSH2 0x581 JUMPI PUSH2 0x580 PUSH2 0x466 JUMP JUMPDEST JUMPDEST SWAP3 SWAP2 POP POP JUMP INVALID LOG2 PUSH5 0x6970667358 0x22 SLT KECCAK256 SHL SWAP10 SWAP5 SWAP6 0xC2 0xE9 SWAP5 CALLVALUE 0x2D LOG1 SWAP1 SWAP4 DUP5 0xC0 0x29 0xAF 0xC4 REVERT 0xD6 PUSH23 0xE95FC598D8E5571E3A9571B464736F6C634300081E0033 "
				},
				"gasEstimates": {
					"creation": {
						"codeDepositCost": "293800",
						"executionCost": "329",
						"totalCost": "294129"
					},
					"external": {
						"balances(address)": "2779",
						"check()": "2540",
						"deposit()": "infinite",
						"withdraw(uint256)": "infinite"
					}
				},
				"methodIdentifiers": {
					"balances(address)": "27e235e3",
					"check()": "919840ad",
					"deposit()": "d0e30db0",
					"withdraw(uint256)": "2e1a7d4d"
				}
			},
			"storageLayout": {
				"storage": [
					{
						"astId": 5,
						"contract": "Bones-of-Bitcoin/contracts/dataStructures/easy.sol:SavingsTracker",
						"label": "balances",
						"offset": 0,
						"slot": "0",
						"type": "t_mapping(t_address,t_uint256)"
					}
				],
				"types": {
					"t_address": {
						"encoding": "inplace",
						"label": "address",
						"numberOfBytes": "20"
					},
					"t_mapping(t_address,t_uint256)": {
						"encoding": "mapping",
						"key": "t_address",
						"label": "mapping(address => uint256)",
						"numberOfBytes": "32",
						"value": "t_uint256"
					},
					"t_uint256": {
						"encoding": "inplace",
						"label": "uint256",
						"numberOfBytes": "32"
					}
				}
			},
			"userdoc": {
				"kind": "user",
				"methods": {},
				"version": 1
			}
		}
	}
}