{
	"Bones-of-Bitcoin/contracts/overflow.sol": {
		"OverandUnderflowDemo": {
			"abi": [
				{
					"inputs": [],
					"name": "bigNum",
					"outputs": [
						{
							"internalType": "uint8",
							"name": "",
							"type": "uint8"
						}
					],
					"stateMutability": "view",
					"type": "function"
				},
				{
					"inputs": [],
					"name": "overflowPreview",
					"outputs": [
						{
							"internalType": "uint8",
							"name": "beforeValue",
							"type": "uint8"
						},
						{
							"internalType": "uint8",
							"name": "afterValue",
							"type": "uint8"
						}
					],
					"stateMutability": "pure",
					"type": "function"
				},
				{
					"inputs": [],
					"name": "smallNum",
					"outputs": [
						{
							"internalType": "uint8",
							"name": "",
							"type": "uint8"
						}
					],
					"stateMutability": "view",
					"type": "function"
				},
				{
					"inputs": [],
					"name": "underflowPreview",
					"outputs": [
						{
							"internalType": "uint8",
							"name": "beforeValue",
							"type": "uint8"
						},
						{
							"internalType": "uint8",
							"name": "afterValue",
							"type": "uint8"
						}
					],
					"stateMutability": "pure",
					"type": "function"
				}
			],
			"devdoc": {
				"kind": "dev",
				"methods": {},
				"version": 1
			},
			"evm": {
				"assembly": "    /* \"Bones-of-Bitcoin/contracts/overflow.sol\":60:639  contract OverandUnderflowDemo {... */\n  mstore(0x40, 0x80)\n    /* \"Bones-of-Bitcoin/contracts/overflow.sol\":119:122  255 */\n  0xff\n    /* \"Bones-of-Bitcoin/contracts/overflow.sol\":97:122  uint8 public bigNum = 255 */\n  0x00\n  exp(0x0100, 0x00)\n  dup2\n  sload\n  dup2\n  0xff\n  mul\n  not\n  and\n  swap1\n  dup4\n  0xff\n  and\n  mul\n  or\n  swap1\n  sstore\n  pop\n    /* \"Bones-of-Bitcoin/contracts/overflow.sol\":153:154  0 */\n  0x00\n    /* \"Bones-of-Bitcoin/contracts/overflow.sol\":129:154  uint8 public smallNum = 0 */\n  0x00\n  exp(0x0100, 0x01)\n  dup2\n  sload\n  dup2\n  0xff\n  mul\n  not\n  and\n  swap1\n  dup4\n  0xff\n  and\n  mul\n  or\n  swap1\n  sstore\n  pop\n    /* \"Bones-of-Bitcoin/contracts/overflow.sol\":60:639  contract OverandUnderflowDemo {... */\n  callvalue\n  dup1\n  iszero\n  tag_1\n  jumpi\n  revert(0x00, 0x00)\ntag_1:\n  pop\n  dataSize(sub_0)\n  dup1\n  dataOffset(sub_0)\n  0x00\n  codecopy\n  0x00\n  return\nstop\n\nsub_0: assembly {\n        /* \"Bones-of-Bitcoin/contracts/overflow.sol\":60:639  contract OverandUnderflowDemo {... */\n      mstore(0x40, 0x80)\n      callvalue\n      dup1\n      iszero\n      tag_1\n      jumpi\n      revert(0x00, 0x00)\n    tag_1:\n      pop\n      jumpi(tag_2, lt(calldatasize, 0x04))\n      shr(0xe0, calldataload(0x00))\n      dup1\n      0x3474c824\n      eq\n      tag_3\n      jumpi\n      dup1\n      0x47b1b53b\n      eq\n      tag_4\n      jumpi\n      dup1\n      0x56658a02\n      eq\n      tag_5\n      jumpi\n      dup1\n      0x5f62fc6e\n      eq\n      tag_6\n      jumpi\n    tag_2:\n      revert(0x00, 0x00)\n        /* \"Bones-of-Bitcoin/contracts/overflow.sol\":404:636  function underflowPreview() public pure returns (uint8 beforeValue, uint8 afterValue) {... */\n    tag_3:\n      tag_7\n      tag_8\n      jump\t// in\n    tag_7:\n      mload(0x40)\n      tag_9\n      swap3\n      swap2\n      swap1\n      tag_10\n      jump\t// in\n    tag_9:\n      mload(0x40)\n      dup1\n      swap2\n      sub\n      swap1\n      return\n        /* \"Bones-of-Bitcoin/contracts/overflow.sol\":97:122  uint8 public bigNum = 255 */\n    tag_4:\n      tag_11\n      tag_12\n      jump\t// in\n    tag_11:\n      mload(0x40)\n      tag_13\n      swap2\n      swap1\n      tag_14\n      jump\t// in\n    tag_13:\n      mload(0x40)\n      dup1\n      swap2\n      sub\n      swap1\n      return\n        /* \"Bones-of-Bitcoin/contracts/overflow.sol\":129:154  uint8 public smallNum = 0 */\n    tag_5:\n      tag_15\n      tag_16\n      jump\t// in\n    tag_15:\n      mload(0x40)\n      tag_17\n      swap2\n      swap1\n      tag_14\n      jump\t// in\n    tag_17:\n      mload(0x40)\n      dup1\n      swap2\n      sub\n      swap1\n      return\n        /* \"Bones-of-Bitcoin/contracts/overflow.sol\":163:398  function overflowPreview() public pure returns (uint8 beforeValue, uint8 afterValue) {... */\n    tag_6:\n      tag_18\n      tag_19\n      jump\t// in\n    tag_18:\n      mload(0x40)\n      tag_20\n      swap3\n      swap2\n      swap1\n      tag_10\n      jump\t// in\n    tag_20:\n      mload(0x40)\n      dup1\n      swap2\n      sub\n      swap1\n      return\n        /* \"Bones-of-Bitcoin/contracts/overflow.sol\":404:636  function underflowPreview() public pure returns (uint8 beforeValue, uint8 afterValue) {... */\n    tag_8:\n        /* \"Bones-of-Bitcoin/contracts/overflow.sol\":453:470  uint8 beforeValue */\n      0x00\n        /* \"Bones-of-Bitcoin/contracts/overflow.sol\":472:488  uint8 afterValue */\n      0x00\n        /* \"Bones-of-Bitcoin/contracts/overflow.sol\":501:511  uint8 temp */\n      0x00\n        /* \"Bones-of-Bitcoin/contracts/overflow.sol\":514:515  0 */\n      0x00\n        /* \"Bones-of-Bitcoin/contracts/overflow.sol\":501:515  uint8 temp = 0 */\n      swap1\n      pop\n        /* \"Bones-of-Bitcoin/contracts/overflow.sol\":551:566  uint8 underflow */\n      0x00\n        /* \"Bones-of-Bitcoin/contracts/overflow.sol\":576:577  1 */\n      0x01\n        /* \"Bones-of-Bitcoin/contracts/overflow.sol\":569:573  temp */\n      dup3\n        /* \"Bones-of-Bitcoin/contracts/overflow.sol\":569:577  temp - 1 */\n      sub\n        /* \"Bones-of-Bitcoin/contracts/overflow.sol\":551:577  uint8 underflow = temp - 1 */\n      swap1\n      pop\n        /* \"Bones-of-Bitcoin/contracts/overflow.sol\":601:605  temp */\n      dup2\n        /* \"Bones-of-Bitcoin/contracts/overflow.sol\":607:616  underflow */\n      dup2\n        /* \"Bones-of-Bitcoin/contracts/overflow.sol\":593:617  return (temp, underflow) */\n      swap4\n      pop\n      swap4\n      pop\n      pop\n      pop\n        /* \"Bones-of-Bitcoin/contracts/overflow.sol\":404:636  function underflowPreview() public pure returns (uint8 beforeValue, uint8 afterValue) {... */\n      swap1\n      swap2\n      jump\t// out\n        /* \"Bones-of-Bitcoin/contracts/overflow.sol\":97:122  uint8 public bigNum = 255 */\n    tag_12:\n      0x00\n      0x00\n      swap1\n      sload\n      swap1\n      0x0100\n      exp\n      swap1\n      div\n      0xff\n      and\n      dup2\n      jump\t// out\n        /* \"Bones-of-Bitcoin/contracts/overflow.sol\":129:154  uint8 public smallNum = 0 */\n    tag_16:\n      0x00\n      0x01\n      swap1\n      sload\n      swap1\n      0x0100\n      exp\n      swap1\n      div\n      0xff\n      and\n      dup2\n      jump\t// out\n        /* \"Bones-of-Bitcoin/contracts/overflow.sol\":163:398  function overflowPreview() public pure returns (uint8 beforeValue, uint8 afterValue) {... */\n    tag_19:\n        /* \"Bones-of-Bitcoin/contracts/overflow.sol\":211:228  uint8 beforeValue */\n      0x00\n        /* \"Bones-of-Bitcoin/contracts/overflow.sol\":230:246  uint8 afterValue */\n      0x00\n        /* \"Bones-of-Bitcoin/contracts/overflow.sol\":259:269  uint8 temp */\n      0x00\n        /* \"Bones-of-Bitcoin/contracts/overflow.sol\":272:275  255 */\n      0xff\n        /* \"Bones-of-Bitcoin/contracts/overflow.sol\":259:275  uint8 temp = 255 */\n      swap1\n      pop\n        /* \"Bones-of-Bitcoin/contracts/overflow.sol\":311:327  uint8 overflowed */\n      0x00\n        /* \"Bones-of-Bitcoin/contracts/overflow.sol\":337:338  1 */\n      0x01\n        /* \"Bones-of-Bitcoin/contracts/overflow.sol\":330:334  temp */\n      dup3\n        /* \"Bones-of-Bitcoin/contracts/overflow.sol\":330:338  temp + 1 */\n      add\n        /* \"Bones-of-Bitcoin/contracts/overflow.sol\":311:338  uint8 overflowed = temp + 1 */\n      swap1\n      pop\n        /* \"Bones-of-Bitcoin/contracts/overflow.sol\":362:366  temp */\n      dup2\n        /* \"Bones-of-Bitcoin/contracts/overflow.sol\":368:378  overflowed */\n      dup2\n        /* \"Bones-of-Bitcoin/contracts/overflow.sol\":354:379  return (temp, overflowed) */\n      swap4\n      pop\n      swap4\n      pop\n      pop\n      pop\n        /* \"Bones-of-Bitcoin/contracts/overflow.sol\":163:398  function overflowPreview() public pure returns (uint8 beforeValue, uint8 afterValue) {... */\n      swap1\n      swap2\n      jump\t// out\n        /* \"#utility.yul\":7:93   */\n    tag_23:\n        /* \"#utility.yul\":42:49   */\n      0x00\n        /* \"#utility.yul\":82:86   */\n      0xff\n        /* \"#utility.yul\":75:80   */\n      dup3\n        /* \"#utility.yul\":71:87   */\n      and\n        /* \"#utility.yul\":60:87   */\n      swap1\n      pop\n        /* \"#utility.yul\":7:93   */\n      swap2\n      swap1\n      pop\n      jump\t// out\n        /* \"#utility.yul\":99:211   */\n    tag_24:\n        /* \"#utility.yul\":182:204   */\n      tag_28\n        /* \"#utility.yul\":198:203   */\n      dup2\n        /* \"#utility.yul\":182:204   */\n      tag_23\n      jump\t// in\n    tag_28:\n        /* \"#utility.yul\":177:180   */\n      dup3\n        /* \"#utility.yul\":170:205   */\n      mstore\n        /* \"#utility.yul\":99:211   */\n      pop\n      pop\n      jump\t// out\n        /* \"#utility.yul\":217:533   */\n    tag_10:\n        /* \"#utility.yul\":330:334   */\n      0x00\n        /* \"#utility.yul\":368:370   */\n      0x40\n        /* \"#utility.yul\":357:366   */\n      dup3\n        /* \"#utility.yul\":353:371   */\n      add\n        /* \"#utility.yul\":345:371   */\n      swap1\n      pop\n        /* \"#utility.yul\":381:448   */\n      tag_30\n        /* \"#utility.yul\":445:446   */\n      0x00\n        /* \"#utility.yul\":434:443   */\n      dup4\n        /* \"#utility.yul\":430:447   */\n      add\n        /* \"#utility.yul\":421:427   */\n      dup6\n        /* \"#utility.yul\":381:448   */\n      tag_24\n      jump\t// in\n    tag_30:\n        /* \"#utility.yul\":458:526   */\n      tag_31\n        /* \"#utility.yul\":522:524   */\n      0x20\n        /* \"#utility.yul\":511:520   */\n      dup4\n        /* \"#utility.yul\":507:525   */\n      add\n        /* \"#utility.yul\":498:504   */\n      dup5\n        /* \"#utility.yul\":458:526   */\n      tag_24\n      jump\t// in\n    tag_31:\n        /* \"#utility.yul\":217:533   */\n      swap4\n      swap3\n      pop\n      pop\n      pop\n      jump\t// out\n        /* \"#utility.yul\":539:753   */\n    tag_14:\n        /* \"#utility.yul\":628:632   */\n      0x00\n        /* \"#utility.yul\":666:668   */\n      0x20\n        /* \"#utility.yul\":655:664   */\n      dup3\n        /* \"#utility.yul\":651:669   */\n      add\n        /* \"#utility.yul\":643:669   */\n      swap1\n      pop\n        /* \"#utility.yul\":679:746   */\n      tag_33\n        /* \"#utility.yul\":743:744   */\n      0x00\n        /* \"#utility.yul\":732:741   */\n      dup4\n        /* \"#utility.yul\":728:745   */\n      add\n        /* \"#utility.yul\":719:725   */\n      dup5\n        /* \"#utility.yul\":679:746   */\n      tag_24\n      jump\t// in\n    tag_33:\n        /* \"#utility.yul\":539:753   */\n      swap3\n      swap2\n      pop\n      pop\n      jump\t// out\n\n    auxdata: 0xa2646970667358221220286a2619a1d114173c87d586b07fbaa98460c359f51c96ffa01c9242646055ab64736f6c634300081e0033\n}\n",
				"bytecode": {
					"linkReferences": {},
					"object": "608060405260ff5f5f6101000a81548160ff021916908360ff1602179055505f5f60016101000a81548160ff021916908360ff1602179055503480156042575f5ffd5b506101af806100505f395ff3fe608060405234801561000f575f5ffd5b506004361061004a575f3560e01c80633474c8241461004e57806347b1b53b1461006d57806356658a021461008b5780635f62fc6e146100a9575b5f5ffd5b6100566100c8565b604051610064929190610139565b60405180910390f35b6100756100e1565b6040516100829190610160565b60405180910390f35b6100936100f2565b6040516100a09190610160565b60405180910390f35b6100b1610104565b6040516100bf929190610139565b60405180910390f35b5f5f5f5f90505f60018203905081819350935050509091565b5f5f9054906101000a900460ff1681565b5f60019054906101000a900460ff1681565b5f5f5f60ff90505f60018201905081819350935050509091565b5f60ff82169050919050565b6101338161011e565b82525050565b5f60408201905061014c5f83018561012a565b610159602083018461012a565b9392505050565b5f6020820190506101735f83018461012a565b9291505056fea2646970667358221220286a2619a1d114173c87d586b07fbaa98460c359f51c96ffa01c9242646055ab64736f6c634300081e0033",
					"opcodes": "PUSH1 0x80 PUSH1 0x40 MSTORE PUSH1 0xFF PUSH0 PUSH0 PUSH2 0x100 EXP DUP2 SLOAD DUP2 PUSH1 0xFF MUL NOT AND SWAP1 DUP4 PUSH1 0xFF AND MUL OR SWAP1 SSTORE POP PUSH0 PUSH0 PUSH1 0x1 PUSH2 0x100 EXP DUP2 SLOAD DUP2 PUSH1 0xFF MUL NOT AND SWAP1 DUP4 PUSH1 0xFF AND MUL OR SWAP1 SSTORE POP CALLVALUE DUP1 ISZERO PUSH1 0x42 JUMPI PUSH0 PUSH0 REVERT JUMPDEST POP PUSH2 0x1AF DUP1 PUSH2 0x50 PUSH0 CODECOPY PUSH0 RETURN INVALID PUSH1 0x80 PUSH1 0x40 MSTORE CALLVALUE DUP1 ISZERO PUSH2 0xF JUMPI PUSH0 PUSH0 REVERT JUMPDEST POP PUSH1 0x4 CALLDATASIZE LT PUSH2 0x4A JUMPI PUSH0 CALLDATALOAD PUSH1 0xE0 SHR DUP1 PUSH4 0x3474C824 EQ PUSH2 0x4E JUMPI DUP1 PUSH4 0x47B1B53B EQ PUSH2 0x6D JUMPI DUP1 PUSH4 0x56658A02 EQ PUSH2 0x8B JUMPI DUP1 PUSH4 0x5F62FC6E EQ PUSH2 0xA9 JUMPI JUMPDEST PUSH0 PUSH0 REVERT JUMPDEST PUSH2 0x56 PUSH2 0xC8 JUMP JUMPDEST PUSH1 0x40 MLOAD PUSH2 0x64 SWAP3 SWAP2 SWAP1 PUSH2 0x139 JUMP JUMPDEST PUSH1 0x40 MLOAD DUP1 SWAP2 SUB SWAP1 RETURN JUMPDEST PUSH2 0x75 PUSH2 0xE1 JUMP JUMPDEST PUSH1 0x40 MLOAD PUSH2 0x82 SWAP2 SWAP1 PUSH2 0x160 JUMP JUMPDEST PUSH1 0x40 MLOAD DUP1 SWAP2 SUB SWAP1 RETURN JUMPDEST PUSH2 0x93 PUSH2 0xF2 JUMP JUMPDEST PUSH1 0x40 MLOAD PUSH2 0xA0 SWAP2 SWAP1 PUSH2 0x160 JUMP JUMPDEST PUSH1 0x40 MLOAD DUP1 SWAP2 SUB SWAP1 RETURN JUMPDEST PUSH2 0xB1 PUSH2 0x104 JUMP JUMPDEST PUSH1 0x40 MLOAD PUSH2 0xBF SWAP3 SWAP2 SWAP1 PUSH2 0x139 JUMP JUMPDEST PUSH1 0x40 MLOAD DUP1 SWAP2 SUB SWAP1 RETURN JUMPDEST PUSH0 PUSH0 PUSH0 PUSH0 SWAP1 POP PUSH0 PUSH1 0x1 DUP3 SUB SWAP1 POP DUP2 DUP2 SWAP4 POP SWAP4 POP POP POP SWAP1 SWAP2 JUMP JUMPDEST PUSH0 PUSH0 SWAP1 SLOAD SWAP1 PUSH2 0x100 EXP SWAP1 DIV PUSH1 0xFF AND DUP2 JUMP JUMPDEST PUSH0 PUSH1 0x1 SWAP1 SLOAD SWAP1 PUSH2 0x100 EXP SWAP1 DIV PUSH1 0xFF AND DUP2 JUMP JUMPDEST PUSH0 PUSH0 PUSH0 PUSH1 0xFF SWAP1 POP PUSH0 PUSH1 0x1 DUP3 ADD SWAP1 POP DUP2 DUP2 SWAP4 POP SWAP4 POP POP POP SWAP1 SWAP2 JUMP JUMPDEST PUSH0 PUSH1 0xFF DUP3 AND SWAP1 POP SWAP2 SWAP1 POP JUMP JUMPDEST PUSH2 0x133 DUP2 PUSH2 0x11E JUMP JUMPDEST DUP3 MSTORE POP POP JUMP JUMPDEST PUSH0 PUSH1 0x40 DUP3 ADD SWAP1 POP PUSH2 0x14C PUSH0 DUP4 ADD DUP6 PUSH2 0x12A JUMP JUMPDEST PUSH2 0x159 PUSH1 0x20 DUP4 ADD DUP5 PUSH2 0x12A JUMP JUMPDEST SWAP4 SWAP3 POP POP POP JUMP JUMPDEST PUSH0 PUSH1 0x20 DUP3 ADD SWAP1 POP PUSH2 0x173 PUSH0 DUP4 ADD DUP5 PUSH2 0x12A JUMP JUMPDEST SWAP3 SWAP2 POP POP JUMP INVALID LOG2 PUSH5 0x6970667358 0x22 SLT KECCAK256 0x28 PUSH11 0x2619A1D114173C87D586B0 PUSH32 0xBAA98460C359F51C96FFA01C9242646055AB64736F6C634300081E0033000000 "
				},
				"gasEstimates": {
					"creation": {
						"codeDepositCost": "86200",
						"executionCost": "48713",
						"totalCost": "134913"
					},
					"external": {
						"bigNum()": "2465",
						"overflowPreview()": "infinite",
						"smallNum()": "2538",
						"underflowPreview()": "infinite"
					}
				},
				"methodIdentifiers": {
					"bigNum()": "47b1b53b",
					"overflowPreview()": "5f62fc6e",
					"smallNum()": "56658a02",
					"underflowPreview()": "3474c824"
				}
			},
			"storageLayout": {
				"storage": [
					{
						"astId": 4,
						"contract": "Bones-of-Bitcoin/contracts/overflow.sol:OverandUnderflowDemo",
						"label": "bigNum",
						"offset": 0,
						"slot": "0",
						"type": "t_uint8"
					},
					{
						"astId": 7,
						"contract": "Bones-of-Bitcoin/contracts/overflow.sol:OverandUnderflowDemo",
						"label": "smallNum",
						"offset": 1,
						"slot": "0",
						"type": "t_uint8"
					}
				],
				"types": {
					"t_uint8": {
						"encoding": "inplace",
						"label": "uint8",
						"numberOfBytes": "1"
					}
				}
			},
			"userdoc": {
				"kind": "user",
				"methods": {},
				"version": 1
			}
		}
	}
}