{
	"Bones-of-Bitcoin/contracts/Arithmetic.sol": {
		"arithemtic": {
			"abi": [
				{
					"inputs": [
						{
							"internalType": "uint256",
							"name": "_a",
							"type": "uint256"
						},
						{
							"internalType": "uint256",
							"name": "_b",
							"type": "uint256"
						}
					],
					"name": "add",
					"outputs": [
						{
							"internalType": "uint256",
							"name": "",
							"type": "uint256"
						}
					],
					"stateMutability": "pure",
					"type": "function"
				},
				{
					"inputs": [
						{
							"internalType": "uint256",
							"name": "_a",
							"type": "uint256"
						},
						{
							"internalType": "uint256",
							"name": "_b",
							"type": "uint256"
						}
					],
					"name": "div",
					"outputs": [
						{
							"internalType": "uint256",
							"name": "",
							"type": "uint256"
						}
					],
					"stateMutability": "pure",
					"type": "function"
				},
				{
					"inputs": [
						{
							"internalType": "uint256",
							"name": "_a",
							"type": "uint256"
						},
						{
							"internalType": "uint256",
							"name": "_b",
							"type": "uint256"
						}
					],
					"name": "mod",
					"outputs": [
						{
							"internalType": "uint256",
							"name": "",
							"type": "uint256"
						}
					],
					"stateMutability": "pure",
					"type": "function"
				},
				{
					"inputs": [
						{
							"internalType": "uint256",
							"name": "_a",
							"type": "uint256"
						},
						{
							"internalType": "uint256",
							"name": "_b",
							"type": "uint256"
						}
					],
					"name": "mul",
					"outputs": [
						{
							"internalType": "uint256",
							"name": "",
							"type": "uint256"
						}
					],
					"stateMutability": "pure",
					"type": "function"
				},
				{
					"inputs": [
						{
							"internalType": "uint256",
							"name": "_a",
							"type": "uint256"
						},
						{
							"internalType": "uint256",
							"name": "_b",
							"type": "uint256"
						}
					],
					"name": "sub",
					"outputs": [
						{
							"internalType": "uint256",
							"name": "",
							"type": "uint256"
						}
					],
					"stateMutability": "pure",
					"type": "function"
				}
			],
			"devdoc": {
				"kind": "dev",
				"methods": {},
				"version": 1
			},
			"evm": {
				"assembly": "    /* \"Bones-of-Bitcoin/contracts/Arithmetic.sol\":60:557  contract arithemtic{... */\n  mstore(0x40, 0x80)\n  callvalue\n  dup1\n  iszero\n  tag_1\n  jumpi\n  revert(0x00, 0x00)\ntag_1:\n  pop\n  dataSize(sub_0)\n  dup1\n  dataOffset(sub_0)\n  0x00\n  codecopy\n  0x00\n  return\nstop\n\nsub_0: assembly {\n        /* \"Bones-of-Bitcoin/contracts/Arithmetic.sol\":60:557  contract arithemtic{... */\n      mstore(0x40, 0x80)\n      callvalue\n      dup1\n      iszero\n      tag_1\n      jumpi\n      revert(0x00, 0x00)\n    tag_1:\n      pop\n      jumpi(tag_2, lt(calldatasize, 0x04))\n      shr(0xe0, calldataload(0x00))\n      dup1\n      0x771602f7\n      eq\n      tag_3\n      jumpi\n      dup1\n      0xa391c15b\n      eq\n      tag_4\n      jumpi\n      dup1\n      0xb67d77c5\n      eq\n      tag_5\n      jumpi\n      dup1\n      0xc8a4ac9c\n      eq\n      tag_6\n      jumpi\n      dup1\n      0xf43f523a\n      eq\n      tag_7\n      jumpi\n    tag_2:\n      revert(0x00, 0x00)\n        /* \"Bones-of-Bitcoin/contracts/Arithmetic.sol\":86:174  function add(uint _a,uint _b) public pure returns(uint){... */\n    tag_3:\n      tag_8\n      0x04\n      dup1\n      calldatasize\n      sub\n      dup2\n      add\n      swap1\n      tag_9\n      swap2\n      swap1\n      tag_10\n      jump\t// in\n    tag_9:\n      tag_11\n      jump\t// in\n    tag_8:\n      mload(0x40)\n      tag_12\n      swap2\n      swap1\n      tag_13\n      jump\t// in\n    tag_12:\n      mload(0x40)\n      dup1\n      swap2\n      sub\n      swap1\n      return\n        /* \"Bones-of-Bitcoin/contracts/Arithmetic.sol\":370:459  function div(uint  _a,uint _b) public pure returns(uint){... */\n    tag_4:\n      tag_14\n      0x04\n      dup1\n      calldatasize\n      sub\n      dup2\n      add\n      swap1\n      tag_15\n      swap2\n      swap1\n      tag_10\n      jump\t// in\n    tag_15:\n      tag_16\n      jump\t// in\n    tag_14:\n      mload(0x40)\n      tag_17\n      swap2\n      swap1\n      tag_13\n      jump\t// in\n    tag_17:\n      mload(0x40)\n      dup1\n      swap2\n      sub\n      swap1\n      return\n        /* \"Bones-of-Bitcoin/contracts/Arithmetic.sol\":182:270  function sub(uint _a,uint _b) public pure returns(uint){... */\n    tag_5:\n      tag_18\n      0x04\n      dup1\n      calldatasize\n      sub\n      dup2\n      add\n      swap1\n      tag_19\n      swap2\n      swap1\n      tag_10\n      jump\t// in\n    tag_19:\n      tag_20\n      jump\t// in\n    tag_18:\n      mload(0x40)\n      tag_21\n      swap2\n      swap1\n      tag_13\n      jump\t// in\n    tag_21:\n      mload(0x40)\n      dup1\n      swap2\n      sub\n      swap1\n      return\n        /* \"Bones-of-Bitcoin/contracts/Arithmetic.sol\":276:364  function mul(uint _a,uint _b) public pure returns(uint){... */\n    tag_6:\n      tag_22\n      0x04\n      dup1\n      calldatasize\n      sub\n      dup2\n      add\n      swap1\n      tag_23\n      swap2\n      swap1\n      tag_10\n      jump\t// in\n    tag_23:\n      tag_24\n      jump\t// in\n    tag_22:\n      mload(0x40)\n      tag_25\n      swap2\n      swap1\n      tag_13\n      jump\t// in\n    tag_25:\n      mload(0x40)\n      dup1\n      swap2\n      sub\n      swap1\n      return\n        /* \"Bones-of-Bitcoin/contracts/Arithmetic.sol\":465:554  function mod(uint _a, uint _b) public pure returns(uint){... */\n    tag_7:\n      tag_26\n      0x04\n      dup1\n      calldatasize\n      sub\n      dup2\n      add\n      swap1\n      tag_27\n      swap2\n      swap1\n      tag_10\n      jump\t// in\n    tag_27:\n      tag_28\n      jump\t// in\n    tag_26:\n      mload(0x40)\n      tag_29\n      swap2\n      swap1\n      tag_13\n      jump\t// in\n    tag_29:\n      mload(0x40)\n      dup1\n      swap2\n      sub\n      swap1\n      return\n        /* \"Bones-of-Bitcoin/contracts/Arithmetic.sol\":86:174  function add(uint _a,uint _b) public pure returns(uint){... */\n    tag_11:\n        /* \"Bones-of-Bitcoin/contracts/Arithmetic.sol\":136:140  uint */\n      0x00\n        /* \"Bones-of-Bitcoin/contracts/Arithmetic.sol\":164:166  _b */\n      dup2\n        /* \"Bones-of-Bitcoin/contracts/Arithmetic.sol\":159:161  _a */\n      dup4\n        /* \"Bones-of-Bitcoin/contracts/Arithmetic.sol\":159:166  _a + _b */\n      tag_31\n      swap2\n      swap1\n      tag_32\n      jump\t// in\n    tag_31:\n        /* \"Bones-of-Bitcoin/contracts/Arithmetic.sol\":152:166  return _a + _b */\n      swap1\n      pop\n        /* \"Bones-of-Bitcoin/contracts/Arithmetic.sol\":86:174  function add(uint _a,uint _b) public pure returns(uint){... */\n      swap3\n      swap2\n      pop\n      pop\n      jump\t// out\n        /* \"Bones-of-Bitcoin/contracts/Arithmetic.sol\":370:459  function div(uint  _a,uint _b) public pure returns(uint){... */\n    tag_16:\n        /* \"Bones-of-Bitcoin/contracts/Arithmetic.sol\":421:425  uint */\n      0x00\n        /* \"Bones-of-Bitcoin/contracts/Arithmetic.sol\":449:451  _b */\n      dup2\n        /* \"Bones-of-Bitcoin/contracts/Arithmetic.sol\":444:446  _a */\n      dup4\n        /* \"Bones-of-Bitcoin/contracts/Arithmetic.sol\":444:451  _a / _b */\n      tag_34\n      swap2\n      swap1\n      tag_35\n      jump\t// in\n    tag_34:\n        /* \"Bones-of-Bitcoin/contracts/Arithmetic.sol\":437:451  return _a / _b */\n      swap1\n      pop\n        /* \"Bones-of-Bitcoin/contracts/Arithmetic.sol\":370:459  function div(uint  _a,uint _b) public pure returns(uint){... */\n      swap3\n      swap2\n      pop\n      pop\n      jump\t// out\n        /* \"Bones-of-Bitcoin/contracts/Arithmetic.sol\":182:270  function sub(uint _a,uint _b) public pure returns(uint){... */\n    tag_20:\n        /* \"Bones-of-Bitcoin/contracts/Arithmetic.sol\":232:236  uint */\n      0x00\n        /* \"Bones-of-Bitcoin/contracts/Arithmetic.sol\":260:262  _b */\n      dup2\n        /* \"Bones-of-Bitcoin/contracts/Arithmetic.sol\":255:257  _a */\n      dup4\n        /* \"Bones-of-Bitcoin/contracts/Arithmetic.sol\":255:262  _a - _b */\n      tag_37\n      swap2\n      swap1\n      tag_38\n      jump\t// in\n    tag_37:\n        /* \"Bones-of-Bitcoin/contracts/Arithmetic.sol\":248:262  return _a - _b */\n      swap1\n      pop\n        /* \"Bones-of-Bitcoin/contracts/Arithmetic.sol\":182:270  function sub(uint _a,uint _b) public pure returns(uint){... */\n      swap3\n      swap2\n      pop\n      pop\n      jump\t// out\n        /* \"Bones-of-Bitcoin/contracts/Arithmetic.sol\":276:364  function mul(uint _a,uint _b) public pure returns(uint){... */\n    tag_24:\n        /* \"Bones-of-Bitcoin/contracts/Arithmetic.sol\":326:330  uint */\n      0x00\n        /* \"Bones-of-Bitcoin/contracts/Arithmetic.sol\":354:356  _b */\n      dup2\n        /* \"Bones-of-Bitcoin/contracts/Arithmetic.sol\":349:351  _a */\n      dup4\n        /* \"Bones-of-Bitcoin/contracts/Arithmetic.sol\":349:356  _a * _b */\n      tag_40\n      swap2\n      swap1\n      tag_41\n      jump\t// in\n    tag_40:\n        /* \"Bones-of-Bitcoin/contracts/Arithmetic.sol\":342:356  return _a * _b */\n      swap1\n      pop\n        /* \"Bones-of-Bitcoin/contracts/Arithmetic.sol\":276:364  function mul(uint _a,uint _b) public pure returns(uint){... */\n      swap3\n      swap2\n      pop\n      pop\n      jump\t// out\n        /* \"Bones-of-Bitcoin/contracts/Arithmetic.sol\":465:554  function mod(uint _a, uint _b) public pure returns(uint){... */\n    tag_28:\n        /* \"Bones-of-Bitcoin/contracts/Arithmetic.sol\":516:520  uint */\n      0x00\n        /* \"Bones-of-Bitcoin/contracts/Arithmetic.sol\":544:546  _b */\n      dup2\n        /* \"Bones-of-Bitcoin/contracts/Arithmetic.sol\":539:541  _a */\n      dup4\n        /* \"Bones-of-Bitcoin/contracts/Arithmetic.sol\":539:546  _a % _b */\n      tag_43\n      swap2\n      swap1\n      tag_44\n      jump\t// in\n    tag_43:\n        /* \"Bones-of-Bitcoin/contracts/Arithmetic.sol\":532:546  return _a % _b */\n      swap1\n      pop\n        /* \"Bones-of-Bitcoin/contracts/Arithmetic.sol\":465:554  function mod(uint _a, uint _b) public pure returns(uint){... */\n      swap3\n      swap2\n      pop\n      pop\n      jump\t// out\n        /* \"#utility.yul\":88:205   */\n    tag_46:\n        /* \"#utility.yul\":197:198   */\n      0x00\n        /* \"#utility.yul\":194:195   */\n      0x00\n        /* \"#utility.yul\":187:199   */\n      revert\n        /* \"#utility.yul\":334:411   */\n    tag_48:\n        /* \"#utility.yul\":371:378   */\n      0x00\n        /* \"#utility.yul\":400:405   */\n      dup2\n        /* \"#utility.yul\":389:405   */\n      swap1\n      pop\n        /* \"#utility.yul\":334:411   */\n      swap2\n      swap1\n      pop\n      jump\t// out\n        /* \"#utility.yul\":417:539   */\n    tag_49:\n        /* \"#utility.yul\":490:514   */\n      tag_60\n        /* \"#utility.yul\":508:513   */\n      dup2\n        /* \"#utility.yul\":490:514   */\n      tag_48\n      jump\t// in\n    tag_60:\n        /* \"#utility.yul\":483:488   */\n      dup2\n        /* \"#utility.yul\":480:515   */\n      eq\n        /* \"#utility.yul\":470:533   */\n      tag_61\n      jumpi\n        /* \"#utility.yul\":529:530   */\n      0x00\n        /* \"#utility.yul\":526:527   */\n      0x00\n        /* \"#utility.yul\":519:531   */\n      revert\n        /* \"#utility.yul\":470:533   */\n    tag_61:\n        /* \"#utility.yul\":417:539   */\n      pop\n      jump\t// out\n        /* \"#utility.yul\":545:684   */\n    tag_50:\n        /* \"#utility.yul\":591:596   */\n      0x00\n        /* \"#utility.yul\":629:635   */\n      dup2\n        /* \"#utility.yul\":616:636   */\n      calldataload\n        /* \"#utility.yul\":607:636   */\n      swap1\n      pop\n        /* \"#utility.yul\":645:678   */\n      tag_63\n        /* \"#utility.yul\":672:677   */\n      dup2\n        /* \"#utility.yul\":645:678   */\n      tag_49\n      jump\t// in\n    tag_63:\n        /* \"#utility.yul\":545:684   */\n      swap3\n      swap2\n      pop\n      pop\n      jump\t// out\n        /* \"#utility.yul\":690:1164   */\n    tag_10:\n        /* \"#utility.yul\":758:764   */\n      0x00\n        /* \"#utility.yul\":766:772   */\n      0x00\n        /* \"#utility.yul\":815:817   */\n      0x40\n        /* \"#utility.yul\":803:812   */\n      dup4\n        /* \"#utility.yul\":794:801   */\n      dup6\n        /* \"#utility.yul\":790:813   */\n      sub\n        /* \"#utility.yul\":786:818   */\n      slt\n        /* \"#utility.yul\":783:902   */\n      iszero\n      tag_65\n      jumpi\n        /* \"#utility.yul\":821:900   */\n      tag_66\n      tag_46\n      jump\t// in\n    tag_66:\n        /* \"#utility.yul\":783:902   */\n    tag_65:\n        /* \"#utility.yul\":941:942   */\n      0x00\n        /* \"#utility.yul\":966:1019   */\n      tag_67\n        /* \"#utility.yul\":1011:1018   */\n      dup6\n        /* \"#utility.yul\":1002:1008   */\n      dup3\n        /* \"#utility.yul\":991:1000   */\n      dup7\n        /* \"#utility.yul\":987:1009   */\n      add\n        /* \"#utility.yul\":966:1019   */\n      tag_50\n      jump\t// in\n    tag_67:\n        /* \"#utility.yul\":956:1019   */\n      swap3\n      pop\n        /* \"#utility.yul\":912:1029   */\n      pop\n        /* \"#utility.yul\":1068:1070   */\n      0x20\n        /* \"#utility.yul\":1094:1147   */\n      tag_68\n        /* \"#utility.yul\":1139:1146   */\n      dup6\n        /* \"#utility.yul\":1130:1136   */\n      dup3\n        /* \"#utility.yul\":1119:1128   */\n      dup7\n        /* \"#utility.yul\":1115:1137   */\n      add\n        /* \"#utility.yul\":1094:1147   */\n      tag_50\n      jump\t// in\n    tag_68:\n        /* \"#utility.yul\":1084:1147   */\n      swap2\n      pop\n        /* \"#utility.yul\":1039:1157   */\n      pop\n        /* \"#utility.yul\":690:1164   */\n      swap3\n      pop\n      swap3\n      swap1\n      pop\n      jump\t// out\n        /* \"#utility.yul\":1170:1288   */\n    tag_51:\n        /* \"#utility.yul\":1257:1281   */\n      tag_70\n        /* \"#utility.yul\":1275:1280   */\n      dup2\n        /* \"#utility.yul\":1257:1281   */\n      tag_48\n      jump\t// in\n    tag_70:\n        /* \"#utility.yul\":1252:1255   */\n      dup3\n        /* \"#utility.yul\":1245:1282   */\n      mstore\n        /* \"#utility.yul\":1170:1288   */\n      pop\n      pop\n      jump\t// out\n        /* \"#utility.yul\":1294:1516   */\n    tag_13:\n        /* \"#utility.yul\":1387:1391   */\n      0x00\n        /* \"#utility.yul\":1425:1427   */\n      0x20\n        /* \"#utility.yul\":1414:1423   */\n      dup3\n        /* \"#utility.yul\":1410:1428   */\n      add\n        /* \"#utility.yul\":1402:1428   */\n      swap1\n      pop\n        /* \"#utility.yul\":1438:1509   */\n      tag_72\n        /* \"#utility.yul\":1506:1507   */\n      0x00\n        /* \"#utility.yul\":1495:1504   */\n      dup4\n        /* \"#utility.yul\":1491:1508   */\n      add\n        /* \"#utility.yul\":1482:1488   */\n      dup5\n        /* \"#utility.yul\":1438:1509   */\n      tag_51\n      jump\t// in\n    tag_72:\n        /* \"#utility.yul\":1294:1516   */\n      swap3\n      swap2\n      pop\n      pop\n      jump\t// out\n        /* \"#utility.yul\":1522:1702   */\n    tag_52:\n        /* \"#utility.yul\":1570:1647   */\n      0x4e487b7100000000000000000000000000000000000000000000000000000000\n        /* \"#utility.yul\":1567:1568   */\n      0x00\n        /* \"#utility.yul\":1560:1648   */\n      mstore\n        /* \"#utility.yul\":1667:1671   */\n      0x11\n        /* \"#utility.yul\":1664:1665   */\n      0x04\n        /* \"#utility.yul\":1657:1672   */\n      mstore\n        /* \"#utility.yul\":1691:1695   */\n      0x24\n        /* \"#utility.yul\":1688:1689   */\n      0x00\n        /* \"#utility.yul\":1681:1696   */\n      revert\n        /* \"#utility.yul\":1708:1899   */\n    tag_32:\n        /* \"#utility.yul\":1748:1751   */\n      0x00\n        /* \"#utility.yul\":1767:1787   */\n      tag_75\n        /* \"#utility.yul\":1785:1786   */\n      dup3\n        /* \"#utility.yul\":1767:1787   */\n      tag_48\n      jump\t// in\n    tag_75:\n        /* \"#utility.yul\":1762:1787   */\n      swap2\n      pop\n        /* \"#utility.yul\":1801:1821   */\n      tag_76\n        /* \"#utility.yul\":1819:1820   */\n      dup4\n        /* \"#utility.yul\":1801:1821   */\n      tag_48\n      jump\t// in\n    tag_76:\n        /* \"#utility.yul\":1796:1821   */\n      swap3\n      pop\n        /* \"#utility.yul\":1844:1845   */\n      dup3\n        /* \"#utility.yul\":1841:1842   */\n      dup3\n        /* \"#utility.yul\":1837:1846   */\n      add\n        /* \"#utility.yul\":1830:1846   */\n      swap1\n      pop\n        /* \"#utility.yul\":1865:1868   */\n      dup1\n        /* \"#utility.yul\":1862:1863   */\n      dup3\n        /* \"#utility.yul\":1859:1869   */\n      gt\n        /* \"#utility.yul\":1856:1892   */\n      iszero\n      tag_77\n      jumpi\n        /* \"#utility.yul\":1872:1890   */\n      tag_78\n      tag_52\n      jump\t// in\n    tag_78:\n        /* \"#utility.yul\":1856:1892   */\n    tag_77:\n        /* \"#utility.yul\":1708:1899   */\n      swap3\n      swap2\n      pop\n      pop\n      jump\t// out\n        /* \"#utility.yul\":1905:2085   */\n    tag_53:\n        /* \"#utility.yul\":1953:2030   */\n      0x4e487b7100000000000000000000000000000000000000000000000000000000\n        /* \"#utility.yul\":1950:1951   */\n      0x00\n        /* \"#utility.yul\":1943:2031   */\n      mstore\n        /* \"#utility.yul\":2050:2054   */\n      0x12\n        /* \"#utility.yul\":2047:2048   */\n      0x04\n        /* \"#utility.yul\":2040:2055   */\n      mstore\n        /* \"#utility.yul\":2074:2078   */\n      0x24\n        /* \"#utility.yul\":2071:2072   */\n      0x00\n        /* \"#utility.yul\":2064:2079   */\n      revert\n        /* \"#utility.yul\":2091:2276   */\n    tag_35:\n        /* \"#utility.yul\":2131:2132   */\n      0x00\n        /* \"#utility.yul\":2148:2168   */\n      tag_81\n        /* \"#utility.yul\":2166:2167   */\n      dup3\n        /* \"#utility.yul\":2148:2168   */\n      tag_48\n      jump\t// in\n    tag_81:\n        /* \"#utility.yul\":2143:2168   */\n      swap2\n      pop\n        /* \"#utility.yul\":2182:2202   */\n      tag_82\n        /* \"#utility.yul\":2200:2201   */\n      dup4\n        /* \"#utility.yul\":2182:2202   */\n      tag_48\n      jump\t// in\n    tag_82:\n        /* \"#utility.yul\":2177:2202   */\n      swap3\n      pop\n        /* \"#utility.yul\":2221:2222   */\n      dup3\n        /* \"#utility.yul\":2211:2246   */\n      tag_83\n      jumpi\n        /* \"#utility.yul\":2226:2244   */\n      tag_84\n      tag_53\n      jump\t// in\n    tag_84:\n        /* \"#utility.yul\":2211:2246   */\n    tag_83:\n        /* \"#utility.yul\":2268:2269   */\n      dup3\n        /* \"#utility.yul\":2265:2266   */\n      dup3\n        /* \"#utility.yul\":2261:2270   */\n      div\n        /* \"#utility.yul\":2256:2270   */\n      swap1\n      pop\n        /* \"#utility.yul\":2091:2276   */\n      swap3\n      swap2\n      pop\n      pop\n      jump\t// out\n        /* \"#utility.yul\":2282:2476   */\n    tag_38:\n        /* \"#utility.yul\":2322:2326   */\n      0x00\n        /* \"#utility.yul\":2342:2362   */\n      tag_86\n        /* \"#utility.yul\":2360:2361   */\n      dup3\n        /* \"#utility.yul\":2342:2362   */\n      tag_48\n      jump\t// in\n    tag_86:\n        /* \"#utility.yul\":2337:2362   */\n      swap2\n      pop\n        /* \"#utility.yul\":2376:2396   */\n      tag_87\n        /* \"#utility.yul\":2394:2395   */\n      dup4\n        /* \"#utility.yul\":2376:2396   */\n      tag_48\n      jump\t// in\n    tag_87:\n        /* \"#utility.yul\":2371:2396   */\n      swap3\n      pop\n        /* \"#utility.yul\":2420:2421   */\n      dup3\n        /* \"#utility.yul\":2417:2418   */\n      dup3\n        /* \"#utility.yul\":2413:2422   */\n      sub\n        /* \"#utility.yul\":2405:2422   */\n      swap1\n      pop\n        /* \"#utility.yul\":2444:2445   */\n      dup2\n        /* \"#utility.yul\":2438:2442   */\n      dup2\n        /* \"#utility.yul\":2435:2446   */\n      gt\n        /* \"#utility.yul\":2432:2469   */\n      iszero\n      tag_88\n      jumpi\n        /* \"#utility.yul\":2449:2467   */\n      tag_89\n      tag_52\n      jump\t// in\n    tag_89:\n        /* \"#utility.yul\":2432:2469   */\n    tag_88:\n        /* \"#utility.yul\":2282:2476   */\n      swap3\n      swap2\n      pop\n      pop\n      jump\t// out\n        /* \"#utility.yul\":2482:2892   */\n    tag_41:\n        /* \"#utility.yul\":2522:2529   */\n      0x00\n        /* \"#utility.yul\":2545:2565   */\n      tag_91\n        /* \"#utility.yul\":2563:2564   */\n      dup3\n        /* \"#utility.yul\":2545:2565   */\n      tag_48\n      jump\t// in\n    tag_91:\n        /* \"#utility.yul\":2540:2565   */\n      swap2\n      pop\n        /* \"#utility.yul\":2579:2599   */\n      tag_92\n        /* \"#utility.yul\":2597:2598   */\n      dup4\n        /* \"#utility.yul\":2579:2599   */\n      tag_48\n      jump\t// in\n    tag_92:\n        /* \"#utility.yul\":2574:2599   */\n      swap3\n      pop\n        /* \"#utility.yul\":2634:2635   */\n      dup3\n        /* \"#utility.yul\":2631:2632   */\n      dup3\n        /* \"#utility.yul\":2627:2636   */\n      mul\n        /* \"#utility.yul\":2656:2686   */\n      tag_93\n        /* \"#utility.yul\":2674:2685   */\n      dup2\n        /* \"#utility.yul\":2656:2686   */\n      tag_48\n      jump\t// in\n    tag_93:\n        /* \"#utility.yul\":2645:2686   */\n      swap2\n      pop\n        /* \"#utility.yul\":2835:2836   */\n      dup3\n        /* \"#utility.yul\":2826:2833   */\n      dup3\n        /* \"#utility.yul\":2822:2837   */\n      div\n        /* \"#utility.yul\":2819:2820   */\n      dup5\n        /* \"#utility.yul\":2816:2838   */\n      eq\n        /* \"#utility.yul\":2796:2797   */\n      dup4\n        /* \"#utility.yul\":2789:2798   */\n      iszero\n        /* \"#utility.yul\":2769:2852   */\n      or\n        /* \"#utility.yul\":2746:2885   */\n      tag_94\n      jumpi\n        /* \"#utility.yul\":2865:2883   */\n      tag_95\n      tag_52\n      jump\t// in\n    tag_95:\n        /* \"#utility.yul\":2746:2885   */\n    tag_94:\n        /* \"#utility.yul\":2530:2892   */\n      pop\n        /* \"#utility.yul\":2482:2892   */\n      swap3\n      swap2\n      pop\n      pop\n      jump\t// out\n        /* \"#utility.yul\":2898:3074   */\n    tag_44:\n        /* \"#utility.yul\":2930:2931   */\n      0x00\n        /* \"#utility.yul\":2947:2967   */\n      tag_97\n        /* \"#utility.yul\":2965:2966   */\n      dup3\n        /* \"#utility.yul\":2947:2967   */\n      tag_48\n      jump\t// in\n    tag_97:\n        /* \"#utility.yul\":2942:2967   */\n      swap2\n      pop\n        /* \"#utility.yul\":2981:3001   */\n      tag_98\n        /* \"#utility.yul\":2999:3000   */\n      dup4\n        /* \"#utility.yul\":2981:3001   */\n      tag_48\n      jump\t// in\n    tag_98:\n        /* \"#utility.yul\":2976:3001   */\n      swap3\n      pop\n        /* \"#utility.yul\":3020:3021   */\n      dup3\n        /* \"#utility.yul\":3010:3045   */\n      tag_99\n      jumpi\n        /* \"#utility.yul\":3025:3043   */\n      tag_100\n      tag_53\n      jump\t// in\n    tag_100:\n        /* \"#utility.yul\":3010:3045   */\n    tag_99:\n        /* \"#utility.yul\":3066:3067   */\n      dup3\n        /* \"#utility.yul\":3063:3064   */\n      dup3\n        /* \"#utility.yul\":3059:3068   */\n      mod\n        /* \"#utility.yul\":3054:3068   */\n      swap1\n      pop\n        /* \"#utility.yul\":2898:3074   */\n      swap3\n      swap2\n      pop\n      pop\n      jump\t// out\n\n    auxdata: 0xa264697066735822122054c3432bbb3d6952f2d9bec4e514aed667133ef008db9cf418b9a490b9c33d6164736f6c634300081e0033\n}\n",
				"bytecode": {
					"linkReferences": {},
					"object": "6080604052348015600e575f5ffd5b506103e68061001c5f395ff3fe608060405234801561000f575f5ffd5b5060043610610055575f3560e01c8063771602f714610059578063a391c15b14610089578063b67d77c5146100b9578063c8a4ac9c146100e9578063f43f523a14610119575b5f5ffd5b610073600480360381019061006e91906101e9565b610149565b6040516100809190610236565b60405180910390f35b6100a3600480360381019061009e91906101e9565b61015e565b6040516100b09190610236565b60405180910390f35b6100d360048036038101906100ce91906101e9565b610173565b6040516100e09190610236565b60405180910390f35b61010360048036038101906100fe91906101e9565b610188565b6040516101109190610236565b60405180910390f35b610133600480360381019061012e91906101e9565b61019d565b6040516101409190610236565b60405180910390f35b5f8183610156919061027c565b905092915050565b5f818361016b91906102dc565b905092915050565b5f8183610180919061030c565b905092915050565b5f8183610195919061033f565b905092915050565b5f81836101aa9190610380565b905092915050565b5f5ffd5b5f819050919050565b6101c8816101b6565b81146101d2575f5ffd5b50565b5f813590506101e3816101bf565b92915050565b5f5f604083850312156101ff576101fe6101b2565b5b5f61020c858286016101d5565b925050602061021d858286016101d5565b9150509250929050565b610230816101b6565b82525050565b5f6020820190506102495f830184610227565b92915050565b7f4e487b71000000000000000000000000000000000000000000000000000000005f52601160045260245ffd5b5f610286826101b6565b9150610291836101b6565b92508282019050808211156102a9576102a861024f565b5b92915050565b7f4e487b71000000000000000000000000000000000000000000000000000000005f52601260045260245ffd5b5f6102e6826101b6565b91506102f1836101b6565b925082610301576103006102af565b5b828204905092915050565b5f610316826101b6565b9150610321836101b6565b92508282039050818111156103395761033861024f565b5b92915050565b5f610349826101b6565b9150610354836101b6565b9250828202610362816101b6565b915082820484148315176103795761037861024f565b5b5092915050565b5f61038a826101b6565b9150610395836101b6565b9250826103a5576103a46102af565b5b82820690509291505056fea264697066735822122054c3432bbb3d6952f2d9bec4e514aed667133ef008db9cf418b9a490b9c33d6164736f6c634300081e0033",
					"opcodes": "PUSH1 0x80 PUSH1 0x40 MSTORE CALLVALUE DUP1 ISZERO PUSH1 0xE JUMPI PUSH0 PUSH0 REVERT JUMPDEST POP PUSH2 0x3E6 DUP1 PUSH2 0x1C PUSH0 CODECOPY PUSH0 RETURN INVALID PUSH1 0x80 PUSH1 0x40 MSTORE CALLVALUE DUP1 ISZERO PUSH2 0xF JUMPI PUSH0 PUSH0 REVERT JUMPDEST POP PUSH1 0x4 CALLDATASIZE LT PUSH2 0x55 JUMPI PUSH0 CALLDATALOAD PUSH1 0xE0 SHR DUP1 PUSH4 0x771602F7 EQ PUSH2 0x59 JUMPI DUP1 PUSH4 0xA391C15B EQ PUSH2 0x89 JUMPI DUP1 PUSH4 0xB67D77C5 EQ PUSH2 0xB9 JUMPI DUP1 PUSH4 0xC8A4AC9C EQ PUSH2 0xE9 JUMPI DUP1 PUSH4 0xF43F523A EQ PUSH2 0x119 JUMPI JUMPDEST PUSH0 PUSH0 REVERT JUMPDEST PUSH2 0x73 PUSH1 0x4 DUP1 CALLDATASIZE SUB DUP2 ADD SWAP1 PUSH2 0x6E SWAP2 SWAP1 PUSH2 0x1E9 JUMP JUMPDEST PUSH2 0x149 JUMP JUMPDEST PUSH1 0x40 MLOAD PUSH2 0x80 SWAP2 SWAP1 PUSH2 0x236 JUMP JUMPDEST PUSH1 0x40 MLOAD DUP1 SWAP2 SUB SWAP1 RETURN JUMPDEST PUSH2 0xA3 PUSH1 0x4 DUP1 CALLDATASIZE SUB DUP2 ADD SWAP1 PUSH2 0x9E SWAP2 SWAP1 PUSH2 0x1E9 JUMP JUMPDEST PUSH2 0x15E JUMP JUMPDEST PUSH1 0x40 MLOAD PUSH2 0xB0 SWAP2 SWAP1 PUSH2 0x236 JUMP JUMPDEST PUSH1 0x40 MLOAD DUP1 SWAP2 SUB SWAP1 RETURN JUMPDEST PUSH2 0xD3 PUSH1 0x4 DUP1 CALLDATASIZE SUB DUP2 ADD SWAP1 PUSH2 0xCE SWAP2 SWAP1 PUSH2 0x1E9 JUMP JUMPDEST PUSH2 0x173 JUMP JUMPDEST PUSH1 0x40 MLOAD PUSH2 0xE0 SWAP2 SWAP1 PUSH2 0x236 JUMP JUMPDEST PUSH1 0x40 MLOAD DUP1 SWAP2 SUB SWAP1 RETURN JUMPDEST PUSH2 0x103 PUSH1 0x4 DUP1 CALLDATASIZE SUB DUP2 ADD SWAP1 PUSH2 0xFE SWAP2 SWAP1 PUSH2 0x1E9 JUMP JUMPDEST PUSH2 0x188 JUMP JUMPDEST PUSH1 0x40 MLOAD PUSH2 0x110 SWAP2 SWAP1 PUSH2 0x236 JUMP JUMPDEST PUSH1 0x40 MLOAD DUP1 SWAP2 SUB SWAP1 RETURN JUMPDEST PUSH2 0x133 PUSH1 0x4 DUP1 CALLDATASIZE SUB DUP2 ADD SWAP1 PUSH2 0x12E SWAP2 SWAP1 PUSH2 0x1E9 JUMP JUMPDEST PUSH2 0x19D JUMP JUMPDEST PUSH1 0x40 MLOAD PUSH2 0x140 SWAP2 SWAP1 PUSH2 0x236 JUMP JUMPDEST PUSH1 0x40 MLOAD DUP1 SWAP2 SUB SWAP1 RETURN JUMPDEST PUSH0 DUP2 DUP4 PUSH2 0x156 SWAP2 SWAP1 PUSH2 0x27C JUMP JUMPDEST SWAP1 POP SWAP3 SWAP2 POP POP JUMP JUMPDEST PUSH0 DUP2 DUP4 PUSH2 0x16B SWAP2 SWAP1 PUSH2 0x2DC JUMP JUMPDEST SWAP1 POP SWAP3 SWAP2 POP POP JUMP JUMPDEST PUSH0 DUP2 DUP4 PUSH2 0x180 SWAP2 SWAP1 PUSH2 0x30C JUMP JUMPDEST SWAP1 POP SWAP3 SWAP2 POP POP JUMP JUMPDEST PUSH0 DUP2 DUP4 PUSH2 0x195 SWAP2 SWAP1 PUSH2 0x33F JUMP JUMPDEST SWAP1 POP SWAP3 SWAP2 POP POP JUMP JUMPDEST PUSH0 DUP2 DUP4 PUSH2 0x1AA SWAP2 SWAP1 PUSH2 0x380 JUMP JUMPDEST SWAP1 POP SWAP3 SWAP2 POP POP JUMP JUMPDEST PUSH0 PUSH0 REVERT JUMPDEST PUSH0 DUP2 SWAP1 POP SWAP2 SWAP1 POP JUMP JUMPDEST PUSH2 0x1C8 DUP2 PUSH2 0x1B6 JUMP JUMPDEST DUP2 EQ PUSH2 0x1D2 JUMPI PUSH0 PUSH0 REVERT JUMPDEST POP JUMP JUMPDEST PUSH0 DUP2 CALLDATALOAD SWAP1 POP PUSH2 0x1E3 DUP2 PUSH2 0x1BF JUMP JUMPDEST SWAP3 SWAP2 POP POP JUMP JUMPDEST PUSH0 PUSH0 PUSH1 0x40 DUP4 DUP6 SUB SLT ISZERO PUSH2 0x1FF JUMPI PUSH2 0x1FE PUSH2 0x1B2 JUMP JUMPDEST JUMPDEST PUSH0 PUSH2 0x20C DUP6 DUP3 DUP7 ADD PUSH2 0x1D5 JUMP JUMPDEST SWAP3 POP POP PUSH1 0x20 PUSH2 0x21D DUP6 DUP3 DUP7 ADD PUSH2 0x1D5 JUMP JUMPDEST SWAP2 POP POP SWAP3 POP SWAP3 SWAP1 POP JUMP JUMPDEST PUSH2 0x230 DUP2 PUSH2 0x1B6 JUMP JUMPDEST DUP3 MSTORE POP POP JUMP JUMPDEST PUSH0 PUSH1 0x20 DUP3 ADD SWAP1 POP PUSH2 0x249 PUSH0 DUP4 ADD DUP5 PUSH2 0x227 JUMP JUMPDEST SWAP3 SWAP2 POP POP JUMP JUMPDEST PUSH32 0x4E487B7100000000000000000000000000000000000000000000000000000000 PUSH0 MSTORE PUSH1 0x11 PUSH1 0x4 MSTORE PUSH1 0x24 PUSH0 REVERT JUMPDEST PUSH0 PUSH2 0x286 DUP3 PUSH2 0x1B6 JUMP JUMPDEST SWAP2 POP PUSH2 0x291 DUP4 PUSH2 0x1B6 JUMP JUMPDEST SWAP3 POP DUP3 DUP3 ADD SWAP1 POP DUP1 DUP3 GT ISZERO PUSH2 0x2A9 JUMPI PUSH2 0x2A8 PUSH2 0x24F JUMP JUMPDEST JUMPDEST SWAP3 SWAP2 POP POP JUMP JUMPDEST PUSH32 0x4E487B7100000000000000000000000000000000000000000000000000000000 PUSH0 MSTORE PUSH1 0x12 PUSH1 0x4 MSTORE PUSH1 0x24 PUSH0 REVERT JUMPDEST PUSH0 PUSH2 0x2E6 DUP3 PUSH2 0x1B6 JUMP JUMPDEST SWAP2 POP PUSH2 0x2F1 DUP4 PUSH2 0x1B6 JUMP JUMPDEST SWAP3 POP DUP3 PUSH2 0x301 JUMPI PUSH2 0x300 PUSH2 0x2AF JUMP JUMPDEST JUMPDEST DUP3 DUP3 DIV SWAP1 POP SWAP3 SWAP2 POP POP JUMP JUMPDEST PUSH0 PUSH2 0x316 DUP3 PUSH2 0x1B6 JUMP JUMPDEST SWAP2 POP PUSH2 0x321 DUP4 PUSH2 0x1B6 JUMP JUMPDEST SWAP3 POP DUP3 DUP3 SUB SWAP1 POP DUP2 DUP2 GT ISZERO PUSH2 0x339 JUMPI PUSH2 0x338 PUSH2 0x24F JUMP JUMPDEST JUMPDEST SWAP3 SWAP2 POP POP JUMP JUMPDEST PUSH0 PUSH2 0x349 DUP3 PUSH2 0x1B6 JUMP JUMPDEST SWAP2 POP PUSH2 0x354 DUP4 PUSH2 0x1B6 JUMP JUMPDEST SWAP3 POP DUP3 DUP3 MUL PUSH2 0x362 DUP2 PUSH2 0x1B6 JUMP JUMPDEST SWAP2 POP DUP3 DUP3 DIV DUP5 EQ DUP4 ISZERO OR PUSH2 0x379 JUMPI PUSH2 0x378 PUSH2 0x24F JUMP JUMPDEST JUMPDEST POP SWAP3 SWAP2 POP POP JUMP JUMPDEST PUSH0 PUSH2 0x38A DUP3 PUSH2 0x1B6 JUMP JUMPDEST SWAP2 POP PUSH2 0x395 DUP4 PUSH2 0x1B6 JUMP JUMPDEST SWAP3 POP DUP3 PUSH2 0x3A5 JUMPI PUSH2 0x3A4 PUSH2 0x2AF JUMP JUMPDEST JUMPDEST DUP3 DUP3 MOD SWAP1 POP SWAP3 SWAP2 POP POP JUMP INVALID LOG2 PUSH5 0x6970667358 0x22 SLT KECCAK256 SLOAD 0xC3 NUMBER 0x2B 0xBB RETURNDATASIZE PUSH10 0x52F2D9BEC4E514AED667 SGT RETURNDATACOPY CREATE ADDMOD 0xDB SWAP13 DELEGATECALL XOR 0xB9 LOG4 SWAP1 0xB9 0xC3 RETURNDATASIZE PUSH2 0x6473 PUSH16 0x6C634300081E00330000000000000000 "
				},
				"gasEstimates": {
					"creation": {
						"codeDepositCost": "199600",
						"executionCost": "243",
						"totalCost": "199843"
					},
					"external": {
						"add(uint256,uint256)": "infinite",
						"div(uint256,uint256)": "infinite",
						"mod(uint256,uint256)": "infinite",
						"mul(uint256,uint256)": "infinite",
						"sub(uint256,uint256)": "infinite"
					}
				},
				"methodIdentifiers": {
					"add(uint256,uint256)": "771602f7",
					"div(uint256,uint256)": "a391c15b",
					"mod(uint256,uint256)": "f43f523a",
					"mul(uint256,uint256)": "c8a4ac9c",
					"sub(uint256,uint256)": "b67d77c5"
				}
			},
			"storageLayout": {
				"storage": [],
				"types": null
			},
			"userdoc": {
				"kind": "user",
				"methods": {},
				"version": 1
			}
		}
	}
}