{
	"data": {
		"bytecode": {
			"linkReferences": {},
			"object": "60e06040526040516110373803806110378339818101604052810190610025919061019d565b5f3411610067576040517f08c379a000000000000000000000000000000000000000000000000000000000815260040161005e90610235565b60405180910390fd5b8173ffffffffffffffffffffffffffffffffffffffff1660808173ffffffffffffffffffffffffffffffffffffffff16815250508073ffffffffffffffffffffffffffffffffffffffff1660a08173ffffffffffffffffffffffffffffffffffffffff16815250503460c081815250505f5f5f6101000a81548160ff021916908360038111156100fa576100f9610253565b5b02179055507f5af8184bef8e4b45eb9f6ed7734d04da38ced226495548f46e0c8ff8d7d9a52433346040516101309291906102a7565b60405180910390a150506102ce565b5f5ffd5b5f73ffffffffffffffffffffffffffffffffffffffff82169050919050565b5f61016c82610143565b9050919050565b61017c81610162565b8114610186575f5ffd5b50565b5f8151905061019781610173565b92915050565b5f5f604083850312156101b3576101b261013f565b5b5f6101c085828601610189565b92505060206101d185828601610189565b9150509250929050565b5f82825260208201905092915050565b7f4d7573742073656e6420457468657220746f2066756e640000000000000000005f82015250565b5f61021f6017836101db565b915061022a826101eb565b602082019050919050565b5f6020820190508181035f83015261024c81610213565b9050919050565b7f4e487b71000000000000000000000000000000000000000000000000000000005f52602160045260245ffd5b61028981610162565b82525050565b5f819050919050565b6102a18161028f565b82525050565b5f6040820190506102ba5f830185610280565b6102c76020830184610298565b9392505050565b60805160a05160c051610d076103305f395f818161040a015261065101525f81816103d0015281816104b301528181610560015281816106bc015261088201525f8181610617015281816106dd0152818161078901526108610152610d075ff3fe608060405234801561000f575f5ffd5b5060043610610055575f3560e01c80630c3f6acf146100595780631865c57d14610077578063590e1ae31461009557806383a6deb51461009f578063b6bef7b3146100a9575b5f5ffd5b6100616100b3565b60405161006e919061092c565b60405180910390f35b61007f6100c4565b60405161008c91906109b5565b60405180910390f35b61009d6102d8565b005b6100a76104ea565b005b6100b1610714565b005b5f5f9054906101000a900460ff1681565b60605f60038111156100d9576100d86108b9565b5b5f5f9054906101000a900460ff1660038111156100f9576100f86108b9565b5b0361013b576040518060400160405280600681526020017f46756e646564000000000000000000000000000000000000000000000000000081525090506102d5565b6001600381111561014f5761014e6108b9565b5b5f5f9054906101000a900460ff16600381111561016f5761016e6108b9565b5b036101b1576040518060400160405280600781526020017f536869707065640000000000000000000000000000000000000000000000000081525090506102d5565b600260038111156101c5576101c46108b9565b5b5f5f9054906101000a900460ff1660038111156101e5576101e46108b9565b5b03610227576040518060400160405280600881526020017f52656c656173656400000000000000000000000000000000000000000000000081525090506102d5565b60038081111561023a576102396108b9565b5b5f5f9054906101000a900460ff16600381111561025a576102596108b9565b5b0361029c576040518060400160405280600881526020017f526566756e64656400000000000000000000000000000000000000000000000081525090506102d5565b6040518060400160405280600781526020017f556e6b6e6f776e0000000000000000000000000000000000000000000000000081525090505b90565b735b38da6a701c568545dcfcb03fcb875f56beddc473ffffffffffffffffffffffffffffffffffffffff163373ffffffffffffffffffffffffffffffffffffffff161461035a576040517f08c379a000000000000000000000000000000000000000000000000000000000815260040161035190610a45565b60405180910390fd5b6002600381111561036e5761036d6108b9565b5b5f5f9054906101000a900460ff16600381111561038e5761038d6108b9565b5b036103ce576040517f08c379a00000000000000000000000000000000000000000000000000000000081526004016103c590610aad565b60405180910390fd5b7f000000000000000000000000000000000000000000000000000000000000000073ffffffffffffffffffffffffffffffffffffffff166108fc7f000000000000000000000000000000000000000000000000000000000000000090811502906040515f60405180830381858888f19350505050158015610451573d5f5f3e3d5ffd5b5060035f5f6101000a81548160ff02191690836003811115610476576104756108b9565b5b02179055507f51ebc7481979ebbd2e5cf0be7bb298c0a8dfe2c94e2b37ec845b412b2b93df52735b38da6a701c568545dcfcb03fcb875f56beddc47f00000000000000000000000000000000000000000000000000000000000000006040516104e0929190610b0a565b60405180910390a1565b600160038111156104fe576104fd6108b9565b5b5f5f9054906101000a900460ff16600381111561051e5761051d6108b9565b5b1461055e576040517f08c379a000000000000000000000000000000000000000000000000000000000815260040161055590610b7b565b60405180910390fd5b7f000000000000000000000000000000000000000000000000000000000000000073ffffffffffffffffffffffffffffffffffffffff163373ffffffffffffffffffffffffffffffffffffffff16146105ec576040517f08c379a00000000000000000000000000000000000000000000000000000000081526004016105e390610be3565b60405180910390fd5b60025f5f6101000a81548160ff021916908360038111156106105761060f6108b9565b5b02179055507f000000000000000000000000000000000000000000000000000000000000000073ffffffffffffffffffffffffffffffffffffffff166108fc7f000000000000000000000000000000000000000000000000000000000000000090811502906040515f60405180830381858888f19350505050158015610698573d5f5f3e3d5ffd5b507fd42a2a2115b903fc93230a2a52f62600dceec513a8dafd08401c374929ad9f5d7f00000000000000000000000000000000000000000000000000000000000000007f000000000000000000000000000000000000000000000000000000000000000060405161070a929190610b0a565b60405180910390a1565b5f6003811115610727576107266108b9565b5b5f5f9054906101000a900460ff166003811115610747576107466108b9565b5b14610787576040517f08c379a000000000000000000000000000000000000000000000000000000000815260040161077e90610c4b565b60405180910390fd5b7f000000000000000000000000000000000000000000000000000000000000000073ffffffffffffffffffffffffffffffffffffffff163373ffffffffffffffffffffffffffffffffffffffff1614610815576040517f08c379a000000000000000000000000000000000000000000000000000000000815260040161080c90610cb3565b60405180910390fd5b60015f5f6101000a81548160ff02191690836003811115610839576108386108b9565b5b02179055507f4cda03c40a91251de090a894ea66b12aab81e02ae100aa362c7f1800b3fb3af07f00000000000000000000000000000000000000000000000000000000000000007f00000000000000000000000000000000000000000000000000000000000000006040516108af929190610b0a565b60405180910390a1565b7f4e487b71000000000000000000000000000000000000000000000000000000005f52602160045260245ffd5b600481106108f7576108f66108b9565b5b50565b5f819050610907826108e6565b919050565b5f610916826108fa565b9050919050565b6109268161090c565b82525050565b5f60208201905061093f5f83018461091d565b92915050565b5f81519050919050565b5f82825260208201905092915050565b8281835e5f83830152505050565b5f601f19601f8301169050919050565b5f61098782610945565b610991818561094f565b93506109a181856020860161095f565b6109aa8161096d565b840191505092915050565b5f6020820190508181035f8301526109cd818461097d565b905092915050565b7f4f6e6c7920617262697465722063616e2063616c6c20746869732066756e63745f8201527f696f6e0000000000000000000000000000000000000000000000000000000000602082015250565b5f610a2f60238361094f565b9150610a3a826109d5565b604082019050919050565b5f6020820190508181035f830152610a5c81610a23565b9050919050565b7f416c72656164792072656c6561736564000000000000000000000000000000005f82015250565b5f610a9760108361094f565b9150610aa282610a63565b602082019050919050565b5f6020820190508181035f830152610ac481610a8b565b9050919050565b5f73ffffffffffffffffffffffffffffffffffffffff82169050919050565b5f610af482610acb565b9050919050565b610b0481610aea565b82525050565b5f604082019050610b1d5f830185610afb565b610b2a6020830184610afb565b9392505050565b7f4974656d206e6f742073686970706564207965740000000000000000000000005f82015250565b5f610b6560148361094f565b9150610b7082610b31565b602082019050919050565b5f6020820190508181035f830152610b9281610b59565b9050919050565b7f4f6e6c792062757965722063616e20636f6e6669726d20726563696576696e675f82015250565b5f610bcd60208361094f565b9150610bd882610b99565b602082019050919050565b5f6020820190508181035f830152610bfa81610bc1565b9050919050565b7f4d7573742062652066756e646564206265666f7265207368697070696e6700005f82015250565b5f610c35601e8361094f565b9150610c4082610c01565b602082019050919050565b5f6020820190508181035f830152610c6281610c29565b9050919050565b7f4f6e6c792073656e6465722063616e20736869700000000000000000000000005f82015250565b5f610c9d60148361094f565b9150610ca882610c69565b602082019050919050565b5f6020820190508181035f830152610cca81610c91565b905091905056fea2646970667358221220a0949e49b262bf4cad7c39b8231155e428d05c9ed5ef9070cd80c390c37738f264736f6c634300081e0033",
			"opcodes": "PUSH1 0xE0 PUSH1 0x40 MSTORE PUSH1 0x40 MLOAD PUSH2 0x1037 CODESIZE SUB DUP1 PUSH2 0x1037 DUP4 CODECOPY DUP2 DUP2 ADD PUSH1 0x40 MSTORE DUP2 ADD SWAP1 PUSH2 0x25 SWAP2 SWAP1 PUSH2 0x19D JUMP JUMPDEST PUSH0 CALLVALUE GT PUSH2 0x67 JUMPI PUSH1 0x40 MLOAD PUSH32 0x8C379A000000000000000000000000000000000000000000000000000000000 DUP2 MSTORE PUSH1 0x4 ADD PUSH2 0x5E SWAP1 PUSH2 0x235 JUMP JUMPDEST PUSH1 0x40 MLOAD DUP1 SWAP2 SUB SWAP1 REVERT JUMPDEST DUP2 PUSH20 0xFFFFFFFFFFFFFFFFFFFFFFFFFFFFFFFFFFFFFFFF AND PUSH1 0x80 DUP2 PUSH20 0xFFFFFFFFFFFFFFFFFFFFFFFFFFFFFFFFFFFFFFFF AND DUP2 MSTORE POP POP DUP1 PUSH20 0xFFFFFFFFFFFFFFFFFFFFFFFFFFFFFFFFFFFFFFFF AND PUSH1 0xA0 DUP2 PUSH20 0xFFFFFFFFFFFFFFFFFFFFFFFFFFFFFFFFFFFFFFFF AND DUP2 MSTORE POP POP CALLVALUE PUSH1 0xC0 DUP2 DUP2 MSTORE POP POP PUSH0 PUSH0 PUSH0 PUSH2 0x100 EXP DUP2 SLOAD DUP2 PUSH1 0xFF MUL NOT AND SWAP1 DUP4 PUSH1 0x3 DUP2 GT ISZERO PUSH2 0xFA JUMPI PUSH2 0xF9 PUSH2 0x253 JUMP JUMPDEST JUMPDEST MUL OR SWAP1 SSTORE POP PUSH32 0x5AF8184BEF8E4B45EB9F6ED7734D04DA38CED226495548F46E0C8FF8D7D9A524 CALLER CALLVALUE PUSH1 0x40 MLOAD PUSH2 0x130 SWAP3 SWAP2 SWAP1 PUSH2 0x2A7 JUMP JUMPDEST PUSH1 0x40 MLOAD DUP1 SWAP2 SUB SWAP1 LOG1 POP POP PUSH2 0x2CE JUMP JUMPDEST PUSH0 PUSH0 REVERT JUMPDEST PUSH0 PUSH20 0xFFFFFFFFFFFFFFFFFFFFFFFFFFFFFFFFFFFFFFFF DUP3 AND SWAP1 POP SWAP2 SWAP1 POP JUMP JUMPDEST PUSH0 PUSH2 0x16C DUP3 PUSH2 0x143 JUMP JUMPDEST SWAP1 POP SWAP2 SWAP1 POP JUMP JUMPDEST PUSH2 0x17C DUP2 PUSH2 0x162 JUMP JUMPDEST DUP2 EQ PUSH2 0x186 JUMPI PUSH0 PUSH0 REVERT JUMPDEST POP JUMP JUMPDEST PUSH0 DUP2 MLOAD SWAP1 POP PUSH2 0x197 DUP2 PUSH2 0x173 JUMP JUMPDEST SWAP3 SWAP2 POP POP JUMP JUMPDEST PUSH0 PUSH0 PUSH1 0x40 DUP4 DUP6 SUB SLT ISZERO PUSH2 0x1B3 JUMPI PUSH2 0x1B2 PUSH2 0x13F JUMP JUMPDEST JUMPDEST PUSH0 PUSH2 0x1C0 DUP6 DUP3 DUP7 ADD PUSH2 0x189 JUMP JUMPDEST SWAP3 POP POP PUSH1 0x20 PUSH2 0x1D1 DUP6 DUP3 DUP7 ADD PUSH2 0x189 JUMP JUMPDEST SWAP2 POP POP SWAP3 POP SWAP3 SWAP1 POP JUMP JUMPDEST PUSH0 DUP3 DUP3 MSTORE PUSH1 0x20 DUP3 ADD SWAP1 POP SWAP3 SWAP2 POP POP JUMP JUMPDEST PUSH32 0x4D7573742073656E6420457468657220746F2066756E64000000000000000000 PUSH0 DUP3 ADD MSTORE POP JUMP JUMPDEST PUSH0 PUSH2 0x21F PUSH1 0x17 DUP4 PUSH2 0x1DB JUMP JUMPDEST SWAP2 POP PUSH2 0x22A DUP3 PUSH2 0x1EB JUMP JUMPDEST PUSH1 0x20 DUP3 ADD SWAP1 POP SWAP2 SWAP1 POP JUMP JUMPDEST PUSH0 PUSH1 0x20 DUP3 ADD SWAP1 POP DUP2 DUP2 SUB PUSH0 DUP4 ADD MSTORE PUSH2 0x24C DUP2 PUSH2 0x213 JUMP JUMPDEST SWAP1 POP SWAP2 SWAP1 POP JUMP JUMPDEST PUSH32 0x4E487B7100000000000000000000000000000000000000000000000000000000 PUSH0 MSTORE PUSH1 0x21 PUSH1 0x4 MSTORE PUSH1 0x24 PUSH0 REVERT JUMPDEST PUSH2 0x289 DUP2 PUSH2 0x162 JUMP JUMPDEST DUP3 MSTORE POP POP JUMP JUMPDEST PUSH0 DUP2 SWAP1 POP SWAP2 SWAP1 POP JUMP JUMPDEST PUSH2 0x2A1 DUP2 PUSH2 0x28F JUMP JUMPDEST DUP3 MSTORE POP POP JUMP JUMPDEST PUSH0 PUSH1 0x40 DUP3 ADD SWAP1 POP PUSH2 0x2BA PUSH0 DUP4 ADD DUP6 PUSH2 0x280 JUMP JUMPDEST PUSH2 0x2C7 PUSH1 0x20 DUP4 ADD DUP5 PUSH2 0x298 JUMP JUMPDEST SWAP4 SWAP3 POP POP POP JUMP JUMPDEST PUSH1 0x80 MLOAD PUSH1 0xA0 MLOAD PUSH1 0xC0 MLOAD PUSH2 0xD07 PUSH2 0x330 PUSH0 CODECOPY PUSH0 DUP2 DUP2 PUSH2 0x40A ADD MSTORE PUSH2 0x651 ADD MSTORE PUSH0 DUP2 DUP2 PUSH2 0x3D0 ADD MSTORE DUP2 DUP2 PUSH2 0x4B3 ADD MSTORE DUP2 DUP2 PUSH2 0x560 ADD MSTORE DUP2 DUP2 PUSH2 0x6BC ADD MSTORE PUSH2 0x882 ADD MSTORE PUSH0 DUP2 DUP2 PUSH2 0x617 ADD MSTORE DUP2 DUP2 PUSH2 0x6DD ADD MSTORE DUP2 DUP2 PUSH2 0x789 ADD MSTORE PUSH2 0x861 ADD MSTORE PUSH2 0xD07 PUSH0 RETURN INVALID PUSH1 0x80 PUSH1 0x40 MSTORE CALLVALUE DUP1 ISZERO PUSH2 0xF JUMPI PUSH0 PUSH0 REVERT JUMPDEST POP PUSH1 0x4 CALLDATASIZE LT PUSH2 0x55 JUMPI PUSH0 CALLDATALOAD PUSH1 0xE0 SHR DUP1 PUSH4 0xC3F6ACF EQ PUSH2 0x59 JUMPI DUP1 PUSH4 0x1865C57D EQ PUSH2 0x77 JUMPI DUP1 PUSH4 0x590E1AE3 EQ PUSH2 0x95 JUMPI DUP1 PUSH4 0x83A6DEB5 EQ PUSH2 0x9F JUMPI DUP1 PUSH4 0xB6BEF7B3 EQ PUSH2 0xA9 JUMPI JUMPDEST PUSH0 PUSH0 REVERT JUMPDEST PUSH2 0x61 PUSH2 0xB3 JUMP JUMPDEST PUSH1 0x40 MLOAD PUSH2 0x6E SWAP2 SWAP1 PUSH2 0x92C JUMP JUMPDEST PUSH1 0x40 MLOAD DUP1 SWAP2 SUB SWAP1 RETURN JUMPDEST PUSH2 0x7F PUSH2 0xC4 JUMP JUMPDEST PUSH1 0x40 MLOAD PUSH2 0x8C SWAP2 SWAP1 PUSH2 0x9B5 JUMP JUMPDEST PUSH1 0x40 MLOAD DUP1 SWAP2 SUB SWAP1 RETURN JUMPDEST PUSH2 0x9D PUSH2 0x2D8 JUMP JUMPDEST STOP JUMPDEST PUSH2 0xA7 PUSH2 0x4EA JUMP JUMPDEST STOP JUMPDEST PUSH2 0xB1 PUSH2 0x714 JUMP JUMPDEST STOP JUMPDEST PUSH0 PUSH0 SWAP1 SLOAD SWAP1 PUSH2 0x100 EXP SWAP1 DIV PUSH1 0xFF AND DUP2 JUMP JUMPDEST PUSH1 0x60 PUSH0 PUSH1 0x3 DUP2 GT ISZERO PUSH2 0xD9 JUMPI PUSH2 0xD8 PUSH2 0x8B9 JUMP JUMPDEST JUMPDEST PUSH0 PUSH0 SWAP1 SLOAD SWAP1 PUSH2 0x100 EXP SWAP1 DIV PUSH1 0xFF AND PUSH1 0x3 DUP2 GT ISZERO PUSH2 0xF9 JUMPI PUSH2 0xF8 PUSH2 0x8B9 JUMP JUMPDEST JUMPDEST SUB PUSH2 0x13B JUMPI PUSH1 0x40 MLOAD DUP1 PUSH1 0x40 ADD PUSH1 0x40 MSTORE DUP1 PUSH1 0x6 DUP2 MSTORE PUSH1 0x20 ADD PUSH32 0x46756E6465640000000000000000000000000000000000000000000000000000 DUP2 MSTORE POP SWAP1 POP PUSH2 0x2D5 JUMP JUMPDEST PUSH1 0x1 PUSH1 0x3 DUP2 GT ISZERO PUSH2 0x14F JUMPI PUSH2 0x14E PUSH2 0x8B9 JUMP JUMPDEST JUMPDEST PUSH0 PUSH0 SWAP1 SLOAD SWAP1 PUSH2 0x100 EXP SWAP1 DIV PUSH1 0xFF AND PUSH1 0x3 DUP2 GT ISZERO PUSH2 0x16F JUMPI PUSH2 0x16E PUSH2 0x8B9 JUMP JUMPDEST JUMPDEST SUB PUSH2 0x1B1 JUMPI PUSH1 0x40 MLOAD DUP1 PUSH1 0x40 ADD PUSH1 0x40 MSTORE DUP1 PUSH1 0x7 DUP2 MSTORE PUSH1 0x20 ADD PUSH32 0x5368697070656400000000000000000000000000000000000000000000000000 DUP2 MSTORE POP SWAP1 POP PUSH2 0x2D5 JUMP JUMPDEST PUSH1 0x2 PUSH1 0x3 DUP2 GT ISZERO PUSH2 0x1C5 JUMPI PUSH2 0x1C4 PUSH2 0x8B9 JUMP JUMPDEST JUMPDEST PUSH0 PUSH0 SWAP1 SLOAD SWAP1 PUSH2 0x100 EXP SWAP1 DIV PUSH1 0xFF AND PUSH1 0x3 DUP2 GT ISZERO PUSH2 0x1E5 JUMPI PUSH2 0x1E4 PUSH2 0x8B9 JUMP JUMPDEST JUMPDEST SUB PUSH2 0x227 JUMPI PUSH1 0x40 MLOAD DUP1 PUSH1 0x40 ADD PUSH1 0x40 MSTORE DUP1 PUSH1 0x8 DUP2 MSTORE PUSH1 0x20 ADD PUSH32 0x52656C6561736564000000000000000000000000000000000000000000000000 DUP2 MSTORE POP SWAP1 POP PUSH2 0x2D5 JUMP JUMPDEST PUSH1 0x3 DUP1 DUP2 GT ISZERO PUSH2 0x23A JUMPI PUSH2 0x239 PUSH2 0x8B9 JUMP JUMPDEST JUMPDEST PUSH0 PUSH0 SWAP1 SLOAD SWAP1 PUSH2 0x100 EXP SWAP1 DIV PUSH1 0xFF AND PUSH1 0x3 DUP2 GT ISZERO PUSH2 0x25A JUMPI PUSH2 0x259 PUSH2 0x8B9 JUMP JUMPDEST JUMPDEST SUB PUSH2 0x29C JUMPI PUSH1 0x40 MLOAD DUP1 PUSH1 0x40 ADD PUSH1 0x40 MSTORE DUP1 PUSH1 0x8 DUP2 MSTORE PUSH1 0x20 ADD PUSH32 0x526566756E646564000000000000000000000000000000000000000000000000 DUP2 MSTORE POP SWAP1 POP PUSH2 0x2D5 JUMP JUMPDEST PUSH1 0x40 MLOAD DUP1 PUSH1 0x40 ADD PUSH1 0x40 MSTORE DUP1 PUSH1 0x7 DUP2 MSTORE PUSH1 0x20 ADD PUSH32 0x556E6B6E6F776E00000000000000000000000000000000000000000000000000 DUP2 MSTORE POP SWAP1 POP JUMPDEST SWAP1 JUMP JUMPDEST PUSH20 0x5B38DA6A701C568545DCFCB03FCB875F56BEDDC4 PUSH20 0xFFFFFFFFFFFFFFFFFFFFFFFFFFFFFFFFFFFFFFFF AND CALLER PUSH20 0xFFFFFFFFFFFFFFFFFFFFFFFFFFFFFFFFFFFFFFFF AND EQ PUSH2 0x35A JUMPI PUSH1 0x40 MLOAD PUSH32 0x8C379A000000000000000000000000000000000000000000000000000000000 DUP2 MSTORE PUSH1 0x4 ADD PUSH2 0x351 SWAP1 PUSH2 0xA45 JUMP JUMPDEST PUSH1 0x40 MLOAD DUP1 SWAP2 SUB SWAP1 REVERT JUMPDEST PUSH1 0x2 PUSH1 0x3 DUP2 GT ISZERO PUSH2 0x36E JUMPI PUSH2 0x36D PUSH2 0x8B9 JUMP JUMPDEST JUMPDEST PUSH0 PUSH0 SWAP1 SLOAD SWAP1 PUSH2 0x100 EXP SWAP1 DIV PUSH1 0xFF AND PUSH1 0x3 DUP2 GT ISZERO PUSH2 0x38E JUMPI PUSH2 0x38D PUSH2 0x8B9 JUMP JUMPDEST JUMPDEST SUB PUSH2 0x3CE JUMPI PUSH1 0x40 MLOAD PUSH32 0x8C379A000000000000000000000000000000000000000000000000000000000 DUP2 MSTORE PUSH1 0x4 ADD PUSH2 0x3C5 SWAP1 PUSH2 0xAAD JUMP JUMPDEST PUSH1 0x40 MLOAD DUP1 SWAP2 SUB SWAP1 REVERT JUMPDEST PUSH32 0x0 PUSH20 0xFFFFFFFFFFFFFFFFFFFFFFFFFFFFFFFFFFFFFFFF AND PUSH2 0x8FC PUSH32 0x0 SWAP1 DUP2 ISZERO MUL SWAP1 PUSH1 0x40 MLOAD PUSH0 PUSH1 0x40 MLOAD DUP1 DUP4 SUB DUP2 DUP6 DUP9 DUP9 CALL SWAP4 POP POP POP POP ISZERO DUP1 ISZERO PUSH2 0x451 JUMPI RETURNDATASIZE PUSH0 PUSH0 RETURNDATACOPY RETURNDATASIZE PUSH0 REVERT JUMPDEST POP PUSH1 0x3 PUSH0 PUSH0 PUSH2 0x100 EXP DUP2 SLOAD DUP2 PUSH1 0xFF MUL NOT AND SWAP1 DUP4 PUSH1 0x3 DUP2 GT ISZERO PUSH2 0x476 JUMPI PUSH2 0x475 PUSH2 0x8B9 JUMP JUMPDEST JUMPDEST MUL OR SWAP1 SSTORE POP PUSH32 0x51EBC7481979EBBD2E5CF0BE7BB298C0A8DFE2C94E2B37EC845B412B2B93DF52 PUSH20 0x5B38DA6A701C568545DCFCB03FCB875F56BEDDC4 PUSH32 0x0 PUSH1 0x40 MLOAD PUSH2 0x4E0 SWAP3 SWAP2 SWAP1 PUSH2 0xB0A JUMP JUMPDEST PUSH1 0x40 MLOAD DUP1 SWAP2 SUB SWAP1 LOG1 JUMP JUMPDEST PUSH1 0x1 PUSH1 0x3 DUP2 GT ISZERO PUSH2 0x4FE JUMPI PUSH2 0x4FD PUSH2 0x8B9 JUMP JUMPDEST JUMPDEST PUSH0 PUSH0 SWAP1 SLOAD SWAP1 PUSH2 0x100 EXP SWAP1 DIV PUSH1 0xFF AND PUSH1 0x3 DUP2 GT ISZERO PUSH2 0x51E JUMPI PUSH2 0x51D PUSH2 0x8B9 JUMP JUMPDEST JUMPDEST EQ PUSH2 0x55E JUMPI PUSH1 0x40 MLOAD PUSH32 0x8C379A000000000000000000000000000000000000000000000000000000000 DUP2 MSTORE PUSH1 0x4 ADD PUSH2 0x555 SWAP1 PUSH2 0xB7B JUMP JUMPDEST PUSH1 0x40 MLOAD DUP1 SWAP2 SUB SWAP1 REVERT JUMPDEST PUSH32 0x0 PUSH20 0xFFFFFFFFFFFFFFFFFFFFFFFFFFFFFFFFFFFFFFFF AND CALLER PUSH20 0xFFFFFFFFFFFFFFFFFFFFFFFFFFFFFFFFFFFFFFFF AND EQ PUSH2 0x5EC JUMPI PUSH1 0x40 MLOAD PUSH32 0x8C379A000000000000000000000000000000000000000000000000000000000 DUP2 MSTORE PUSH1 0x4 ADD PUSH2 0x5E3 SWAP1 PUSH2 0xBE3 JUMP JUMPDEST PUSH1 0x40 MLOAD DUP1 SWAP2 SUB SWAP1 REVERT JUMPDEST PUSH1 0x2 PUSH0 PUSH0 PUSH2 0x100 EXP DUP2 SLOAD DUP2 PUSH1 0xFF MUL NOT AND SWAP1 DUP4 PUSH1 0x3 DUP2 GT ISZERO PUSH2 0x610 JUMPI PUSH2 0x60F PUSH2 0x8B9 JUMP JUMPDEST JUMPDEST MUL OR SWAP1 SSTORE POP PUSH32 0x0 PUSH20 0xFFFFFFFFFFFFFFFFFFFFFFFFFFFFFFFFFFFFFFFF AND PUSH2 0x8FC PUSH32 0x0 SWAP1 DUP2 ISZERO MUL SWAP1 PUSH1 0x40 MLOAD PUSH0 PUSH1 0x40 MLOAD DUP1 DUP4 SUB DUP2 DUP6 DUP9 DUP9 CALL SWAP4 POP POP POP POP ISZERO DUP1 ISZERO PUSH2 0x698 JUMPI RETURNDATASIZE PUSH0 PUSH0 RETURNDATACOPY RETURNDATASIZE PUSH0 REVERT JUMPDEST POP PUSH32 0xD42A2A2115B903FC93230A2A52F62600DCEEC513A8DAFD08401C374929AD9F5D PUSH32 0x0 PUSH32 0x0 PUSH1 0x40 MLOAD PUSH2 0x70A SWAP3 SWAP2 SWAP1 PUSH2 0xB0A JUMP JUMPDEST PUSH1 0x40 MLOAD DUP1 SWAP2 SUB SWAP1 LOG1 JUMP JUMPDEST PUSH0 PUSH1 0x3 DUP2 GT ISZERO PUSH2 0x727 JUMPI PUSH2 0x726 PUSH2 0x8B9 JUMP JUMPDEST JUMPDEST PUSH0 PUSH0 SWAP1 SLOAD SWAP1 PUSH2 0x100 EXP SWAP1 DIV PUSH1 0xFF AND PUSH1 0x3 DUP2 GT ISZERO PUSH2 0x747 JUMPI PUSH2 0x746 PUSH2 0x8B9 JUMP JUMPDEST JUMPDEST EQ PUSH2 0x787 JUMPI PUSH1 0x40 MLOAD PUSH32 0x8C379A000000000000000000000000000000000000000000000000000000000 DUP2 MSTORE PUSH1 0x4 ADD PUSH2 0x77E SWAP1 PUSH2 0xC4B JUMP JUMPDEST PUSH1 0x40 MLOAD DUP1 SWAP2 SUB SWAP1 REVERT JUMPDEST PUSH32 0x0 PUSH20 0xFFFFFFFFFFFFFFFFFFFFFFFFFFFFFFFFFFFFFFFF AND CALLER PUSH20 0xFFFFFFFFFFFFFFFFFFFFFFFFFFFFFFFFFFFFFFFF AND EQ PUSH2 0x815 JUMPI PUSH1 0x40 MLOAD PUSH32 0x8C379A000000000000000000000000000000000000000000000000000000000 DUP2 MSTORE PUSH1 0x4 ADD PUSH2 0x80C SWAP1 PUSH2 0xCB3 JUMP JUMPDEST PUSH1 0x40 MLOAD DUP1 SWAP2 SUB SWAP1 REVERT JUMPDEST PUSH1 0x1 PUSH0 PUSH0 PUSH2 0x100 EXP DUP2 SLOAD DUP2 PUSH1 0xFF MUL NOT AND SWAP1 DUP4 PUSH1 0x3 DUP2 GT ISZERO PUSH2 0x839 JUMPI PUSH2 0x838 PUSH2 0x8B9 JUMP JUMPDEST JUMPDEST MUL OR SWAP1 SSTORE POP PUSH32 0x4CDA03C40A91251DE090A894EA66B12AAB81E02AE100AA362C7F1800B3FB3AF0 PUSH32 0x0 PUSH32 0x0 PUSH1 0x40 MLOAD PUSH2 0x8AF SWAP3 SWAP2 SWAP1 PUSH2 0xB0A JUMP JUMPDEST PUSH1 0x40 MLOAD DUP1 SWAP2 SUB SWAP1 LOG1 JUMP JUMPDEST PUSH32 0x4E487B7100000000000000000000000000000000000000000000000000000000 PUSH0 MSTORE PUSH1 0x21 PUSH1 0x4 MSTORE PUSH1 0x24 PUSH0 REVERT JUMPDEST PUSH1 0x4 DUP2 LT PUSH2 0x8F7 JUMPI PUSH2 0x8F6 PUSH2 0x8B9 JUMP JUMPDEST JUMPDEST POP JUMP JUMPDEST PUSH0 DUP2 SWAP1 POP PUSH2 0x907 DUP3 PUSH2 0x8E6 JUMP JUMPDEST SWAP2 SWAP1 POP JUMP JUMPDEST PUSH0 PUSH2 0x916 DUP3 PUSH2 0x8FA JUMP JUMPDEST SWAP1 POP SWAP2 SWAP1 POP JUMP JUMPDEST PUSH2 0x926 DUP2 PUSH2 0x90C JUMP JUMPDEST DUP3 MSTORE POP POP JUMP JUMPDEST PUSH0 PUSH1 0x20 DUP3 ADD SWAP1 POP PUSH2 0x93F PUSH0 DUP4 ADD DUP5 PUSH2 0x91D JUMP JUMPDEST SWAP3 SWAP2 POP POP JUMP JUMPDEST PUSH0 DUP2 MLOAD SWAP1 POP SWAP2 SWAP1 POP JUMP JUMPDEST PUSH0 DUP3 DUP3 MSTORE PUSH1 0x20 DUP3 ADD SWAP1 POP SWAP3 SWAP2 POP POP JUMP JUMPDEST DUP3 DUP2 DUP4 MCOPY PUSH0 DUP4 DUP4 ADD MSTORE POP POP POP JUMP JUMPDEST PUSH0 PUSH1 0x1F NOT PUSH1 0x1F DUP4 ADD AND SWAP1 POP SWAP2 SWAP1 POP JUMP JUMPDEST PUSH0 PUSH2 0x987 DUP3 PUSH2 0x945 JUMP JUMPDEST PUSH2 0x991 DUP2 DUP6 PUSH2 0x94F JUMP JUMPDEST SWAP4 POP PUSH2 0x9A1 DUP2 DUP6 PUSH1 0x20 DUP7 ADD PUSH2 0x95F JUMP JUMPDEST PUSH2 0x9AA DUP2 PUSH2 0x96D JUMP JUMPDEST DUP5 ADD SWAP2 POP POP SWAP3 SWAP2 POP POP JUMP JUMPDEST PUSH0 PUSH1 0x20 DUP3 ADD SWAP1 POP DUP2 DUP2 SUB PUSH0 DUP4 ADD MSTORE PUSH2 0x9CD DUP2 DUP5 PUSH2 0x97D JUMP JUMPDEST SWAP1 POP SWAP3 SWAP2 POP POP JUMP JUMPDEST PUSH32 0x4F6E6C7920617262697465722063616E2063616C6C20746869732066756E6374 PUSH0 DUP3 ADD MSTORE PUSH32 0x696F6E0000000000000000000000000000000000000000000000000000000000 PUSH1 0x20 DUP3 ADD MSTORE POP JUMP JUMPDEST PUSH0 PUSH2 0xA2F PUSH1 0x23 DUP4 PUSH2 0x94F JUMP JUMPDEST SWAP2 POP PUSH2 0xA3A DUP3 PUSH2 0x9D5 JUMP JUMPDEST PUSH1 0x40 DUP3 ADD SWAP1 POP SWAP2 SWAP1 POP JUMP JUMPDEST PUSH0 PUSH1 0x20 DUP3 ADD SWAP1 POP DUP2 DUP2 SUB PUSH0 DUP4 ADD MSTORE PUSH2 0xA5C DUP2 PUSH2 0xA23 JUMP JUMPDEST SWAP1 POP SWAP2 SWAP1 POP JUMP JUMPDEST PUSH32 0x416C72656164792072656C656173656400000000000000000000000000000000 PUSH0 DUP3 ADD MSTORE POP JUMP JUMPDEST PUSH0 PUSH2 0xA97 PUSH1 0x10 DUP4 PUSH2 0x94F JUMP JUMPDEST SWAP2 POP PUSH2 0xAA2 DUP3 PUSH2 0xA63 JUMP JUMPDEST PUSH1 0x20 DUP3 ADD SWAP1 POP SWAP2 SWAP1 POP JUMP JUMPDEST PUSH0 PUSH1 0x20 DUP3 ADD SWAP1 POP DUP2 DUP2 SUB PUSH0 DUP4 ADD MSTORE PUSH2 0xAC4 DUP2 PUSH2 0xA8B JUMP JUMPDEST SWAP1 POP SWAP2 SWAP1 POP JUMP JUMPDEST PUSH0 PUSH20 0xFFFFFFFFFFFFFFFFFFFFFFFFFFFFFFFFFFFFFFFF DUP3 AND SWAP1 POP SWAP2 SWAP1 POP JUMP JUMPDEST PUSH0 PUSH2 0xAF4 DUP3 PUSH2 0xACB JUMP JUMPDEST SWAP1 POP SWAP2 SWAP1 POP JUMP JUMPDEST PUSH2 0xB04 DUP2 PUSH2 0xAEA JUMP JUMPDEST DUP3 MSTORE POP POP JUMP JUMPDEST PUSH0 PUSH1 0x40 DUP3 ADD SWAP1 POP PUSH2 0xB1D PUSH0 DUP4 ADD DUP6 PUSH2 0xAFB JUMP JUMPDEST PUSH2 0xB2A PUSH1 0x20 DUP4 ADD DUP5 PUSH2 0xAFB JUMP JUMPDEST SWAP4 SWAP3 POP POP POP JUMP JUMPDEST PUSH32 0x4974656D206E6F74207368697070656420796574000000000000000000000000 PUSH0 DUP3 ADD MSTORE POP JUMP JUMPDEST PUSH0 PUSH2 0xB65 PUSH1 0x14 DUP4 PUSH2 0x94F JUMP JUMPDEST SWAP2 POP PUSH2 0xB70 DUP3 PUSH2 0xB31 JUMP JUMPDEST PUSH1 0x20 DUP3 ADD SWAP1 POP SWAP2 SWAP1 POP JUMP JUMPDEST PUSH0 PUSH1 0x20 DUP3 ADD SWAP1 POP DUP2 DUP2 SUB PUSH0 DUP4 ADD MSTORE PUSH2 0xB92 DUP2 PUSH2 0xB59 JUMP JUMPDEST SWAP1 POP SWAP2 SWAP1 POP JUMP JUMPDEST PUSH32 0x4F6E6C792062757965722063616E20636F6E6669726D20726563696576696E67 PUSH0 DUP3 ADD MSTORE POP JUMP JUMPDEST PUSH0 PUSH2 0xBCD PUSH1 0x20 DUP4 PUSH2 0x94F JUMP JUMPDEST SWAP2 POP PUSH2 0xBD8 DUP3 PUSH2 0xB99 JUMP JUMPDEST PUSH1 0x20 DUP3 ADD SWAP1 POP SWAP2 SWAP1 POP JUMP JUMPDEST PUSH0 PUSH1 0x20 DUP3 ADD SWAP1 POP DUP2 DUP2 SUB PUSH0 DUP4 ADD MSTORE PUSH2 0xBFA DUP2 PUSH2 0xBC1 JUMP JUMPDEST SWAP1 POP SWAP2 SWAP1 POP JUMP JUMPDEST PUSH32 0x4D7573742062652066756E646564206265666F7265207368697070696E670000 PUSH0 DUP3 ADD MSTORE POP JUMP JUMPDEST PUSH0 PUSH2 0xC35 PUSH1 0x1E DUP4 PUSH2 0x94F JUMP JUMPDEST SWAP2 POP PUSH2 0xC40 DUP3 PUSH2 0xC01 JUMP JUMPDEST PUSH1 0x20 DUP3 ADD SWAP1 POP SWAP2 SWAP1 POP JUMP JUMPDEST PUSH0 PUSH1 0x20 DUP3 ADD SWAP1 POP DUP2 DUP2 SUB PUSH0 DUP4 ADD MSTORE PUSH2 0xC62 DUP2 PUSH2 0xC29 JUMP JUMPDEST SWAP1 POP SWAP2 SWAP1 POP JUMP JUMPDEST PUSH32 0x4F6E6C792073656E6465722063616E2073686970000000000000000000000000 PUSH0 DUP3 ADD MSTORE POP JUMP JUMPDEST PUSH0 PUSH2 0xC9D PUSH1 0x14 DUP4 PUSH2 0x94F JUMP JUMPDEST SWAP2 POP PUSH2 0xCA8 DUP3 PUSH2 0xC69 JUMP JUMPDEST PUSH1 0x20 DUP3 ADD SWAP1 POP SWAP2 SWAP1 POP JUMP JUMPDEST PUSH0 PUSH1 0x20 DUP3 ADD SWAP1 POP DUP2 DUP2 SUB PUSH0 DUP4 ADD MSTORE PUSH2 0xCCA DUP2 PUSH2 0xC91 JUMP JUMPDEST SWAP1 POP SWAP2 SWAP1 POP JUMP INVALID LOG2 PUSH5 0x6970667358 0x22 SLT KECCAK256 LOG0 SWAP5 SWAP15 BLOBHASH 0xB2 PUSH3 0xBF4CAD PUSH29 0x39B8231155E428D05C9ED5EF9070CD80C390C37738F264736F6C634300 ADDMOD 0x1E STOP CALLER "
		},
		"gasEstimates": {
			"creation": {
				"codeDepositCost": "667000",
				"executionCost": "infinite",
				"totalCost": "infinite"
			},
			"external": {
				"currentState()": "2531",
				"getState()": "infinite",
				"received()": "infinite",
				"refund()": "infinite",
				"ship()": "infinite"
			}
		},
		"methodIdentifiers": {
			"currentState()": "0c3f6acf",
			"getState()": "1865c57d",
			"received()": "83a6deb5",
			"refund()": "590e1ae3",
			"ship()": "b6bef7b3"
		}
	},
	"abi": [
		{
			"inputs": [
				{
					"internalType": "address",
					"name": "_seller",
					"type": "address"
				},
				{
					"internalType": "address",
					"name": "_buyer",
					"type": "address"
				}
			],
			"stateMutability": "payable",
			"type": "constructor"
		},
		{
			"anonymous": false,
			"inputs": [
				{
					"indexed": false,
					"internalType": "address",
					"name": "from",
					"type": "address"
				},
				{
					"indexed": false,
					"internalType": "uint256",
					"name": "amount",
					"type": "uint256"
				}
			],
			"name": "Funded",
			"type": "event"
		},
		{
			"anonymous": false,
			"inputs": [
				{
					"indexed": false,
					"internalType": "address",
					"name": "from",
					"type": "address"
				},
				{
					"indexed": false,
					"internalType": "address",
					"name": "to",
					"type": "address"
				}
			],
			"name": "Refunded",
			"type": "event"
		},
		{
			"anonymous": false,
			"inputs": [
				{
					"indexed": false,
					"internalType": "address",
					"name": "from",
					"type": "address"
				},
				{
					"indexed": false,
					"internalType": "address",
					"name": "to",
					"type": "address"
				}
			],
			"name": "Released",
			"type": "event"
		},
		{
			"anonymous": false,
			"inputs": [
				{
					"indexed": false,
					"internalType": "address",
					"name": "from",
					"type": "address"
				},
				{
					"indexed": false,
					"internalType": "address",
					"name": "to",
					"type": "address"
				}
			],
			"name": "Shipped",
			"type": "event"
		},
		{
			"inputs": [],
			"name": "currentState",
			"outputs": [
				{
					"internalType": "enum Escrow.state",
					"name": "",
					"type": "uint8"
				}
			],
			"stateMutability": "view",
			"type": "function"
		},
		{
			"inputs": [],
			"name": "getState",
			"outputs": [
				{
					"internalType": "string",
					"name": "",
					"type": "string"
				}
			],
			"stateMutability": "view",
			"type": "function"
		},
		{
			"inputs": [],
			"name": "received",
			"outputs": [],
			"stateMutability": "nonpayable",
			"type": "function"
		},
		{
			"inputs": [],
			"name": "refund",
			"outputs": [],
			"stateMutability": "nonpayable",
			"type": "function"
		},
		{
			"inputs": [],
			"name": "ship",
			"outputs": [],
			"stateMutability": "nonpayable",
			"type": "function"
		}
	]
}