{
	"data": {
		"bytecode": {
			"linkReferences": {},
			"object": "608060405260ff5f5f6101000a81548160ff021916908360ff1602179055503480156028575f5ffd5b5061011d806100365f395ff3fe6080604052348015600e575f5ffd5b50600436106030575f3560e01c806356658a021460345780635f62fc6e14604e575b5f5ffd5b603a6069565b6040516045919060ad565b60405180910390f35b6054607a565b604051606092919060c4565b60405180910390f35b5f5f9054906101000a900460ff1681565b5f5f5f60ff90505f60018201905081819350935050509091565b5f60ff82169050919050565b60a7816094565b82525050565b5f60208201905060be5f83018460a0565b92915050565b5f60408201905060d55f83018560a0565b60e0602083018460a0565b939250505056fea2646970667358221220b92fe8ddd6134a6a2b2e0f966c64d7760d7d6eeea4dc7a9116338fbf7606fea264736f6c634300081e0033",
			"opcodes": "PUSH1 0x80 PUSH1 0x40 MSTORE PUSH1 0xFF PUSH0 PUSH0 PUSH2 0x100 EXP DUP2 SLOAD DUP2 PUSH1 0xFF MUL NOT AND SWAP1 DUP4 PUSH1 0xFF AND MUL OR SWAP1 SSTORE POP CALLVALUE DUP1 ISZERO PUSH1 0x28 JUMPI PUSH0 PUSH0 REVERT JUMPDEST POP PUSH2 0x11D DUP1 PUSH2 0x36 PUSH0 CODECOPY PUSH0 RETURN INVALID PUSH1 0x80 PUSH1 0x40 MSTORE CALLVALUE DUP1 ISZERO PUSH1 0xE JUMPI PUSH0 PUSH0 REVERT JUMPDEST POP PUSH1 0x4 CALLDATASIZE LT PUSH1 0x30 JUMPI PUSH0 CALLDATALOAD PUSH1 0xE0 SHR DUP1 PUSH4 0x56658A02 EQ PUSH1 0x34 JUMPI DUP1 PUSH4 0x5F62FC6E EQ PUSH1 0x4E JUMPI JUMPDEST PUSH0 PUSH0 REVERT JUMPDEST PUSH1 0x3A PUSH1 0x69 JUMP JUMPDEST PUSH1 0x40 MLOAD PUSH1 0x45 SWAP2 SWAP1 PUSH1 0xAD JUMP JUMPDEST PUSH1 0x40 MLOAD DUP1 SWAP2 SUB SWAP1 RETURN JUMPDEST PUSH1 0x54 PUSH1 0x7A JUMP JUMPDEST PUSH1 0x40 MLOAD PUSH1 0x60 SWAP3 SWAP2 SWAP1 PUSH1 0xC4 JUMP JUMPDEST PUSH1 0x40 MLOAD DUP1 SWAP2 SUB SWAP1 RETURN JUMPDEST PUSH0 PUSH0 SWAP1 SLOAD SWAP1 PUSH2 0x100 EXP SWAP1 DIV PUSH1 0xFF AND DUP2 JUMP JUMPDEST PUSH0 PUSH0 PUSH0 PUSH1 0xFF SWAP1 POP PUSH0 PUSH1 0x1 DUP3 ADD SWAP1 POP DUP2 DUP2 SWAP4 POP SWAP4 POP POP POP SWAP1 SWAP2 JUMP JUMPDEST PUSH0 PUSH1 0xFF DUP3 AND SWAP1 POP SWAP2 SWAP1 POP JUMP JUMPDEST PUSH1 0xA7 DUP2 PUSH1 0x94 JUMP JUMPDEST DUP3 MSTORE POP POP JUMP JUMPDEST PUSH0 PUSH1 0x20 DUP3 ADD SWAP1 POP PUSH1 0xBE PUSH0 DUP4 ADD DUP5 PUSH1 0xA0 JUMP JUMPDEST SWAP3 SWAP2 POP POP JUMP JUMPDEST PUSH0 PUSH1 0x40 DUP3 ADD SWAP1 POP PUSH1 0xD5 PUSH0 DUP4 ADD DUP6 PUSH1 0xA0 JUMP JUMPDEST PUSH1 0xE0 PUSH1 0x20 DUP4 ADD DUP5 PUSH1 0xA0 JUMP JUMPDEST SWAP4 SWAP3 POP POP POP JUMP INVALID LOG2 PUSH5 0x6970667358 0x22 SLT KECCAK256 0xB9 0x2F 0xE8 0xDD 0xD6 SGT BLOBBASEFEE PUSH11 0x2B2E0F966C64D7760D7D6E RETURNCONTRACT 0xA4 0xDC PUSH27 0x9116338FBF7606FEA264736F6C634300081E003300000000000000 "
		},
		"gasEstimates": {
			"creation": {
				"codeDepositCost": "57000",
				"executionCost": "24368",
				"totalCost": "81368"
			},
			"external": {
				"overflowPreview()": "infinite",
				"smallNum()": "2443"
			}
		},
		"methodIdentifiers": {
			"overflowPreview()": "5f62fc6e",
			"smallNum()": "56658a02"
		}
	},
	"abi": [
		{
			"inputs": [],
			"name": "overflowPreview",
			"outputs": [
				{
					"internalType": "uint8",
					"name": "beforeValue",
					"type": "uint8"
				},
				{
					"internalType": "uint8",
					"name": "afterValue",
					"type": "uint8"
				}
			],
			"stateMutability": "pure",
			"type": "function"
		},
		{
			"inputs": [],
			"name": "smallNum",
			"outputs": [
				{
					"internalType": "uint8",
					"name": "",
					"type": "uint8"
				}
			],
			"stateMutability": "view",
			"type": "function"
		}
	]
}