{
	"data": {
		"bytecode": {
			"linkReferences": {},
			"object": "6080604052348015600e575f5ffd5b506102bf8061001c5f395ff3fe608060405234801561000f575f5ffd5b5060043610610029575f3560e01c806384aced8c1461002d575b5f5ffd5b610047600480360381019061004291906100fd565b61005d565b6040516100549190610142565b60405180910390f35b5f5f5f90505f8390505b5f8411156100a957600a8461007c9190610188565b600a8361008991906101e5565b6100939190610226565b9150600a846100a29190610259565b9350610067565b8181036100bb576001925050506100c1565b5f925050505b919050565b5f5ffd5b5f819050919050565b6100dc816100ca565b81146100e6575f5ffd5b50565b5f813590506100f7816100d3565b92915050565b5f60208284031215610112576101116100c6565b5b5f61011f848285016100e9565b91505092915050565b5f8115159050919050565b61013c81610128565b82525050565b5f6020820190506101555f830184610133565b92915050565b7f4e487b71000000000000000000000000000000000000000000000000000000005f52601260045260245ffd5b5f610192826100ca565b915061019d836100ca565b9250826101ad576101ac61015b565b5b828206905092915050565b7f4e487b71000000000000000000000000000000000000000000000000000000005f52601160045260245ffd5b5f6101ef826100ca565b91506101fa836100ca565b9250828202610208816100ca565b9150828204841483151761021f5761021e6101b8565b5b5092915050565b5f610230826100ca565b915061023b836100ca565b9250828201905080821115610253576102526101b8565b5b92915050565b5f610263826100ca565b915061026e836100ca565b92508261027e5761027d61015b565b5b82820490509291505056fea2646970667358221220cb190f20b39317171b64006d6ad329e9d68d7acac87909550832bd5c657b2f0964736f6c634300081e0033",
			"opcodes": "PUSH1 0x80 PUSH1 0x40 MSTORE CALLVALUE DUP1 ISZERO PUSH1 0xE JUMPI PUSH0 PUSH0 REVERT JUMPDEST POP PUSH2 0x2BF DUP1 PUSH2 0x1C PUSH0 CODECOPY PUSH0 RETURN INVALID PUSH1 0x80 PUSH1 0x40 MSTORE CALLVALUE DUP1 ISZERO PUSH2 0xF JUMPI PUSH0 PUSH0 REVERT JUMPDEST POP PUSH1 0x4 CALLDATASIZE LT PUSH2 0x29 JUMPI PUSH0 CALLDATALOAD PUSH1 0xE0 SHR DUP1 PUSH4 0x84ACED8C EQ PUSH2 0x2D JUMPI JUMPDEST PUSH0 PUSH0 REVERT JUMPDEST PUSH2 0x47 PUSH1 0x4 DUP1 CALLDATASIZE SUB DUP2 ADD SWAP1 PUSH2 0x42 SWAP2 SWAP1 PUSH2 0xFD JUMP JUMPDEST PUSH2 0x5D JUMP JUMPDEST PUSH1 0x40 MLOAD PUSH2 0x54 SWAP2 SWAP1 PUSH2 0x142 JUMP JUMPDEST PUSH1 0x40 MLOAD DUP1 SWAP2 SUB SWAP1 RETURN JUMPDEST PUSH0 PUSH0 PUSH0 SWAP1 POP PUSH0 DUP4 SWAP1 POP JUMPDEST PUSH0 DUP5 GT ISZERO PUSH2 0xA9 JUMPI PUSH1 0xA DUP5 PUSH2 0x7C SWAP2 SWAP1 PUSH2 0x188 JUMP JUMPDEST PUSH1 0xA DUP4 PUSH2 0x89 SWAP2 SWAP1 PUSH2 0x1E5 JUMP JUMPDEST PUSH2 0x93 SWAP2 SWAP1 PUSH2 0x226 JUMP JUMPDEST SWAP2 POP PUSH1 0xA DUP5 PUSH2 0xA2 SWAP2 SWAP1 PUSH2 0x259 JUMP JUMPDEST SWAP4 POP PUSH2 0x67 JUMP JUMPDEST DUP2 DUP2 SUB PUSH2 0xBB JUMPI PUSH1 0x1 SWAP3 POP POP POP PUSH2 0xC1 JUMP JUMPDEST PUSH0 SWAP3 POP POP POP JUMPDEST SWAP2 SWAP1 POP JUMP JUMPDEST PUSH0 PUSH0 REVERT JUMPDEST PUSH0 DUP2 SWAP1 POP SWAP2 SWAP1 POP JUMP JUMPDEST PUSH2 0xDC DUP2 PUSH2 0xCA JUMP JUMPDEST DUP2 EQ PUSH2 0xE6 JUMPI PUSH0 PUSH0 REVERT JUMPDEST POP JUMP JUMPDEST PUSH0 DUP2 CALLDATALOAD SWAP1 POP PUSH2 0xF7 DUP2 PUSH2 0xD3 JUMP JUMPDEST SWAP3 SWAP2 POP POP JUMP JUMPDEST PUSH0 PUSH1 0x20 DUP3 DUP5 SUB SLT ISZERO PUSH2 0x112 JUMPI PUSH2 0x111 PUSH2 0xC6 JUMP JUMPDEST JUMPDEST PUSH0 PUSH2 0x11F DUP5 DUP3 DUP6 ADD PUSH2 0xE9 JUMP JUMPDEST SWAP2 POP POP SWAP3 SWAP2 POP POP JUMP JUMPDEST PUSH0 DUP2 ISZERO ISZERO SWAP1 POP SWAP2 SWAP1 POP JUMP JUMPDEST PUSH2 0x13C DUP2 PUSH2 0x128 JUMP JUMPDEST DUP3 MSTORE POP POP JUMP JUMPDEST PUSH0 PUSH1 0x20 DUP3 ADD SWAP1 POP PUSH2 0x155 PUSH0 DUP4 ADD DUP5 PUSH2 0x133 JUMP JUMPDEST SWAP3 SWAP2 POP POP JUMP JUMPDEST PUSH32 0x4E487B7100000000000000000000000000000000000000000000000000000000 PUSH0 MSTORE PUSH1 0x12 PUSH1 0x4 MSTORE PUSH1 0x24 PUSH0 REVERT JUMPDEST PUSH0 PUSH2 0x192 DUP3 PUSH2 0xCA JUMP JUMPDEST SWAP2 POP PUSH2 0x19D DUP4 PUSH2 0xCA JUMP JUMPDEST SWAP3 POP DUP3 PUSH2 0x1AD JUMPI PUSH2 0x1AC PUSH2 0x15B JUMP JUMPDEST JUMPDEST DUP3 DUP3 MOD SWAP1 POP SWAP3 SWAP2 POP POP JUMP JUMPDEST PUSH32 0x4E487B7100000000000000000000000000000000000000000000000000000000 PUSH0 MSTORE PUSH1 0x11 PUSH1 0x4 MSTORE PUSH1 0x24 PUSH0 REVERT JUMPDEST PUSH0 PUSH2 0x1EF DUP3 PUSH2 0xCA JUMP JUMPDEST SWAP2 POP PUSH2 0x1FA DUP4 PUSH2 0xCA JUMP JUMPDEST SWAP3 POP DUP3 DUP3 MUL PUSH2 0x208 DUP2 PUSH2 0xCA JUMP JUMPDEST SWAP2 POP DUP3 DUP3 DIV DUP5 EQ DUP4 ISZERO OR PUSH2 0x21F JUMPI PUSH2 0x21E PUSH2 0x1B8 JUMP JUMPDEST JUMPDEST POP SWAP3 SWAP2 POP POP JUMP JUMPDEST PUSH0 PUSH2 0x230 DUP3 PUSH2 0xCA JUMP JUMPDEST SWAP2 POP PUSH2 0x23B DUP4 PUSH2 0xCA JUMP JUMPDEST SWAP3 POP DUP3 DUP3 ADD SWAP1 POP DUP1 DUP3 GT ISZERO PUSH2 0x253 JUMPI PUSH2 0x252 PUSH2 0x1B8 JUMP JUMPDEST JUMPDEST SWAP3 SWAP2 POP POP JUMP JUMPDEST PUSH0 PUSH2 0x263 DUP3 PUSH2 0xCA JUMP JUMPDEST SWAP2 POP PUSH2 0x26E DUP4 PUSH2 0xCA JUMP JUMPDEST SWAP3 POP DUP3 PUSH2 0x27E JUMPI PUSH2 0x27D PUSH2 0x15B JUMP JUMPDEST JUMPDEST DUP3 DUP3 DIV SWAP1 POP SWAP3 SWAP2 POP POP JUMP INVALID LOG2 PUSH5 0x6970667358 0x22 SLT KECCAK256 0xCB NOT 0xF KECCAK256 0xB3 SWAP4 OR OR SHL PUSH5 0x6D6AD329 0xE9 0xD6 DUP14 PUSH27 0xCAC87909550832BD5C657B2F0964736F6C634300081E0033000000 "
		},
		"gasEstimates": {
			"creation": {
				"codeDepositCost": "140600",
				"executionCost": "181",
				"totalCost": "140781"
			},
			"external": {
				"palindrome(uint256)": "infinite"
			}
		},
		"methodIdentifiers": {
			"palindrome(uint256)": "84aced8c"
		}
	},
	"abi": [
		{
			"inputs": [
				{
					"internalType": "uint256",
					"name": "_Number",
					"type": "uint256"
				}
			],
			"name": "palindrome",
			"outputs": [
				{
					"internalType": "bool",
					"name": "",
					"type": "bool"
				}
			],
			"stateMutability": "pure",
			"type": "function"
		}
	]
}